{
  "contractName": "fitchainLib",
  "abi": [
    {
      "constant": false,
      "inputs": [
        {
          "name": "thing_id",
          "type": "bytes"
        },
        {
          "name": "validation_data_first",
          "type": "bytes32"
        },
        {
          "name": "validation_data_second",
          "type": "bytes32"
        }
      ],
      "name": "getSomethingHash",
      "outputs": [
        {
          "name": "",
          "type": "bytes32"
        }
      ],
      "payable": false,
      "stateMutability": "nonpayable",
      "type": "function"
    }
  ],
  "bytecode": "0x610440610030600b82828239805160001a6073146000811461002057610022565bfe5b5030600052607381538281f30073000000000000000000000000000000000000000030146080604052600436106100575763ffffffff7c01000000000000000000000000000000000000000000000000000000006000350416631fec6b60811461005c575b600080fd5b81801561006857600080fd5b506040805160206004803580820135601f81018490048402850184019095528484526100be9436949293602493928401919081908401838280828437509497505084359550505060209092013591506100d09050565b60408051918252519081900360200190f35b6000606080606060008060006100e6898961025a565b955085518a51016040519080825280601f01601f19166020018201604052801561011a578160200160208202803883390190505b50945084935060009250600091505b895182101561018a57898281518110151561014057fe5b90602001015160f860020a900460f860020a02848480600101955081518110151561016757fe5b906020010190600160f860020a031916908160001a905350600190910190610129565b600091505b85518210156101f05785828151811015156101a657fe5b90602001015160f860020a900460f860020a0284848060010195508151811015156101cd57fe5b906020010190600160f860020a031916908160001a90535060019091019061018f565b836040518082805190602001908083835b602083106102205780518252601f199092019160209182019101610201565b5181516020939093036101000a600019018019909116921691909117905260405192018290039091209d9c50505050505050505050505050565b604080518181526060808201835291829160009182918291859183916020820161080080388339019050509550600093505b6020841015610301576008840260020a890292507fff000000000000000000000000000000000000000000000000000000000000008316156102f6578286868151811015156102d757fe5b906020010190600160f860020a031916908160001a9053506001850194505b60019093019261028c565b600093505b602084101561037b576008840260020a880292507fff000000000000000000000000000000000000000000000000000000000000008316156103705782868681518110151561035157fe5b906020010190600160f860020a031916908160001a9053506001850194505b600190930192610306565b846040519080825280601f01601f1916602001820160405280156103a9578160200160208202803883390190505b509150600090505b848110156104085785818151811015156103c757fe5b90602001015160f860020a900460f860020a0282828151811015156103e857fe5b906020010190600160f860020a031916908160001a9053506001016103b1565b509796505050505050505600a165627a7a72305820821120fcfb15dfcf305d4e58d8ef0f84b76a79c789991069aeed19ae6a1df8850029",
  "source": "pragma solidity ^0.4.23;\n\n/**\n@title fitchain solidity library\n@author Francesco Gadaleta\n*/\n\nlibrary fitchainLib {\n\t/*\n    * @notice Concatenate two strings and hash them\n    * @param b1 first bytes32 string\n    * @param b2 second bytes32 string to concatenate\n    * @return bytes hash of concatenated string\n    */\n    function concatenate2(bytes32 b1, bytes32 b2) internal pure returns (bytes) {\n        // make space for 2 bytes32 vars\n        bytes memory bytesString = new bytes(2 * 32);\n        uint pos;\n        // stream b1\n        for (uint j=0; j<32; j++) {\n            byte char = byte(bytes32(uint(b1) * 2 ** (8 * j)));\n            if (char != 0) {\n                bytesString[pos] = char;\n                pos += 1;\n            }\n        }\n        //stream b2\n        for (j=0; j<32; j++) {\n            char = byte(bytes32(uint(b2) * 2 ** (8 * j)));\n            if (char != 0) {\n                bytesString[pos] = char;\n                pos += 1;\n            }\n        }\n        bytes memory bytesStringTrimmed = new bytes(pos);\n        for (uint i=0; i<pos; i++) {\n            bytesStringTrimmed[i] = bytesString[i];\n        }\n\n        return bytesStringTrimmed;\n    }\n\n\t\n    function concatenate3(bytes32 b1, bytes32 b2, bytes32 b3) internal pure returns (bytes) {\n      // make space for 3 bytes32 vars\n      bytes memory bytesString = new bytes(3 * 32);\n      uint pos;\n      // stream b1\n      for (uint j=0; j<32; j++) {\n          byte char = byte(bytes32(uint(b1) * 2 ** (8 * j)));\n          if (char != 0) {\n              bytesString[pos] = char;\n              pos += 1;\n          }\n      }\n      //stream b2\n      for (j=0; j<32; j++) {\n          char = byte(bytes32(uint(b2) * 2 ** (8 * j)));\n          if (char != 0) {\n              bytesString[pos] = char;\n              pos += 1;\n          }\n      }\n      //stream b3\n      for (j=0; j<32; j++) {\n          char = byte(bytes32(uint(b3) * 2 ** (8 * j)));\n          if (char != 0) {\n              bytesString[pos] = char;\n              pos += 1;\n          }\n      }\n\n      bytes memory bytesStringTrimmed = new bytes(pos);\n      for (uint i=0; i<pos; i++) {\n          bytesStringTrimmed[i] = bytesString[i];\n      }\n\n      return bytesStringTrimmed;\n    }\n\n\n    function getSomethingHash(bytes thing_id,\n                              bytes32 validation_data_first,\n                              bytes32 validation_data_second) public returns (bytes32){\n        bytes memory ipfs_address = concatenate2(validation_data_first, validation_data_second);\n        string memory s_somethingHash = new string(thing_id.length + ipfs_address.length );\n        bytes memory b_somethingHash = bytes(s_somethingHash);\n        uint k = 0;\n        for (uint i = 0; i < thing_id.length; i++) b_somethingHash[k++] = thing_id[i];\n        for (i = 0; i < ipfs_address.length; i++) b_somethingHash[k++] = ipfs_address[i];\n        bytes32 somethingHash = keccak256(b_somethingHash);\n        return somethingHash;\n    }\n\n}\n",
  "sourcePath": "/Users/ahmed/Desktop/test/fitchain-contracts/contracts/fitchainLib.sol",
  "compiler": {
    "name": "solc",
    "version": "0.4.25+commit.59dbf8f1.Emscripten.clang"
  },
  "schemaVersion": "3.0.0-beta.0",
  "updatedAt": "2018-12-12T16:40:25.921Z"
}