{
  "contractName": "fitchainLib",
  "abi": [
    {
      "constant": false,
      "inputs": [
        {
          "name": "thing_id",
          "type": "bytes"
        },
        {
          "name": "validation_data_first",
          "type": "bytes32"
        },
        {
          "name": "validation_data_second",
          "type": "bytes32"
        }
      ],
      "name": "getSomethingHash",
      "outputs": [
        {
          "name": "",
          "type": "bytes32"
        }
      ],
      "payable": false,
      "stateMutability": "nonpayable",
      "type": "function"
    }
  ],
  "bytecode": "0x610622610030600b82828239805160001a6073146000811461002057610022565bfe5b5030600052607381538281f3007300000000000000000000000000000000000000003014608060405260043610610058576000357c0100000000000000000000000000000000000000000000000000000000900463ffffffff1680631fec6b601461005d575b600080fd5b81801561006957600080fd5b506100e0600480360381019080803590602001908201803590602001908080601f0160208091040260200160405190810160405280939291908181526020018383808284378201915050505050509192919290803560001916906020019092919080356000191690602001909291905050506100fe565b60405180826000191660001916815260200191505060405180910390f35b600060608060606000806000610114898961033c565b955085518a51016040519080825280601f01601f19166020018201604052801561014d5781602001602082028038833980820191505090505b50945084935060009250600091505b895182101561020f57898281518110151561017357fe5b9060200101517f010000000000000000000000000000000000000000000000000000000000000090047f01000000000000000000000000000000000000000000000000000000000000000284848060010195508151811015156101d257fe5b9060200101907effffffffffffffffffffffffffffffffffffffffffffffffffffffffffffff1916908160001a905350818060010192505061015c565b600091505b85518210156102c757858281518110151561022b57fe5b9060200101517f010000000000000000000000000000000000000000000000000000000000000090047f010000000000000000000000000000000000000000000000000000000000000002848480600101955081518110151561028a57fe5b9060200101907effffffffffffffffffffffffffffffffffffffffffffffffffffffffffffff1916908160001a9053508180600101925050610214565b836040518082805190602001908083835b6020831015156102fd57805182526020820191506020810190506020830392506102d8565b6001836020036101000a038019825116818451168082178552505050505050905001915050604051809103902090508096505050505050509392505050565b606080600080600060606000604080519080825280601f01601f19166020018201604052801561037b5781602001602082028038833980820191505090505b509550600093505b602084101561043f578360080260020a896001900402600102925060007f010000000000000000000000000000000000000000000000000000000000000002837effffffffffffffffffffffffffffffffffffffffffffffffffffffffffffff1916141515610432578286868151811015156103fb57fe5b9060200101907effffffffffffffffffffffffffffffffffffffffffffffffffffffffffffff1916908160001a9053506001850194505b8380600101945050610383565b600093505b6020841015610500578360080260020a886001900402600102925060007f010000000000000000000000000000000000000000000000000000000000000002837effffffffffffffffffffffffffffffffffffffffffffffffffffffffffffff19161415156104f3578286868151811015156104bc57fe5b9060200101907effffffffffffffffffffffffffffffffffffffffffffffffffffffffffffff1916908160001a9053506001850194505b8380600101945050610444565b846040519080825280601f01601f1916602001820160405280156105335781602001602082028038833980820191505090505b509150600090505b848110156105e757858181518110151561055157fe5b9060200101517f010000000000000000000000000000000000000000000000000000000000000090047f01000000000000000000000000000000000000000000000000000000000000000282828151811015156105aa57fe5b9060200101907effffffffffffffffffffffffffffffffffffffffffffffffffffffffffffff1916908160001a905350808060010191505061053b565b819650505050505050929150505600a165627a7a72305820e58a18dbd72497949e86b8caa266f1eaeb1de7bcc4192ea64dee7d66883688ce0029",
  "source": "pragma solidity ^0.4.23;\n\n/**\n@title fitchain solidity library\n@author Francesco Gadaleta\n*/\n\nlibrary fitchainLib {\n\t/*\n    * @notice Concatenate two strings and hash them\n    * @param b1 first bytes32 string\n    * @param b2 second bytes32 string to concatenate\n    * @return bytes hash of concatenated string\n    */\n    function concatenate2(bytes32 b1, bytes32 b2) internal pure returns (bytes) {\n        // make space for 2 bytes32 vars\n        bytes memory bytesString = new bytes(2 * 32);\n        uint pos;\n        // stream b1\n        for (uint j=0; j<32; j++) {\n            byte char = byte(bytes32(uint(b1) * 2 ** (8 * j)));\n            if (char != 0) {\n                bytesString[pos] = char;\n                pos += 1;\n            }\n        }\n        //stream b2\n        for (j=0; j<32; j++) {\n            char = byte(bytes32(uint(b2) * 2 ** (8 * j)));\n            if (char != 0) {\n                bytesString[pos] = char;\n                pos += 1;\n            }\n        }\n        bytes memory bytesStringTrimmed = new bytes(pos);\n        for (uint i=0; i<pos; i++) {\n            bytesStringTrimmed[i] = bytesString[i];\n        }\n\n        return bytesStringTrimmed;\n    }\n\n    function concatenate3(bytes32 b1, bytes32 b2, bytes32 b3) internal pure returns (bytes) {\n      // make space for 3 bytes32 vars\n      bytes memory bytesString = new bytes(3 * 32);\n      uint pos;\n      // stream b1\n      for (uint j=0; j<32; j++) {\n          byte char = byte(bytes32(uint(b1) * 2 ** (8 * j)));\n          if (char != 0) {\n              bytesString[pos] = char;\n              pos += 1;\n          }\n      }\n      //stream b2\n      for (j=0; j<32; j++) {\n          char = byte(bytes32(uint(b2) * 2 ** (8 * j)));\n          if (char != 0) {\n              bytesString[pos] = char;\n              pos += 1;\n          }\n      }\n      //stream b3\n      for (j=0; j<32; j++) {\n          char = byte(bytes32(uint(b3) * 2 ** (8 * j)));\n          if (char != 0) {\n              bytesString[pos] = char;\n              pos += 1;\n          }\n      }\n\n      bytes memory bytesStringTrimmed = new bytes(pos);\n      for (uint i=0; i<pos; i++) {\n          bytesStringTrimmed[i] = bytesString[i];\n      }\n\n      return bytesStringTrimmed;\n    }\n\n\n    function getSomethingHash(bytes thing_id,\n                              bytes32 validation_data_first,\n                              bytes32 validation_data_second) public returns (bytes32){\n        bytes memory ipfs_address = concatenate2(validation_data_first, validation_data_second);\n        string memory s_somethingHash = new string(thing_id.length + ipfs_address.length );\n        bytes memory b_somethingHash = bytes(s_somethingHash);\n        uint k = 0;\n        for (uint i = 0; i < thing_id.length; i++) b_somethingHash[k++] = thing_id[i];\n        for (i = 0; i < ipfs_address.length; i++) b_somethingHash[k++] = ipfs_address[i];\n        bytes32 somethingHash = keccak256(b_somethingHash);\n        return somethingHash;\n    }\n\n}\n",
  "sourcePath": "/home/frag/Documents/fitchain/fitchain-contracts/contracts/fitchainLib.sol",
  "compiler": {
    "name": "solc",
    "version": "0.4.24+commit.e67f0147.Emscripten.clang"
  },
  "schemaVersion": "2.0.1",
  "updatedAt": "2018-10-15T15:28:18.584Z"
}