{
  "contractName": "FitchainStake",
  "abi": [
    {
      "inputs": [
        {
          "name": "_tokenAddress",
          "type": "address"
        }
      ],
      "payable": false,
      "stateMutability": "nonpayable",
      "type": "constructor",
      "signature": "constructor"
    },
    {
      "anonymous": false,
      "inputs": [
        {
          "indexed": false,
          "name": "sender",
          "type": "address"
        },
        {
          "indexed": false,
          "name": "receiver",
          "type": "address"
        },
        {
          "indexed": false,
          "name": "amount",
          "type": "uint256"
        },
        {
          "indexed": false,
          "name": "state",
          "type": "bool"
        }
      ],
      "name": "Staking",
      "type": "event",
      "signature": "0xfafefe6f12466d7da88112bcc628cff33055a93dcc32a2a7e69d33fface20601"
    },
    {
      "constant": false,
      "inputs": [
        {
          "name": "stakeId",
          "type": "bytes32"
        },
        {
          "name": "actor",
          "type": "address"
        },
        {
          "name": "amount",
          "type": "uint256"
        }
      ],
      "name": "stake",
      "outputs": [
        {
          "name": "",
          "type": "bool"
        }
      ],
      "payable": false,
      "stateMutability": "nonpayable",
      "type": "function",
      "signature": "0x8c610c8d"
    },
    {
      "constant": false,
      "inputs": [
        {
          "name": "stakeId",
          "type": "bytes32"
        },
        {
          "name": "amount",
          "type": "uint256"
        }
      ],
      "name": "stake",
      "outputs": [
        {
          "name": "",
          "type": "bool"
        }
      ],
      "payable": false,
      "stateMutability": "nonpayable",
      "type": "function",
      "signature": "0x8caa5230"
    },
    {
      "constant": true,
      "inputs": [
        {
          "name": "stakeId",
          "type": "bytes32"
        },
        {
          "name": "actor",
          "type": "address"
        }
      ],
      "name": "getStakebyActor",
      "outputs": [
        {
          "name": "",
          "type": "uint256"
        }
      ],
      "payable": false,
      "stateMutability": "view",
      "type": "function",
      "signature": "0x570bd558"
    },
    {
      "constant": false,
      "inputs": [
        {
          "name": "stakeId",
          "type": "bytes32"
        },
        {
          "name": "actor",
          "type": "address"
        },
        {
          "name": "amount",
          "type": "uint256"
        }
      ],
      "name": "slash",
      "outputs": [
        {
          "name": "",
          "type": "bool"
        }
      ],
      "payable": false,
      "stateMutability": "nonpayable",
      "type": "function",
      "signature": "0xe503612f"
    },
    {
      "constant": false,
      "inputs": [
        {
          "name": "stakeId",
          "type": "bytes32"
        },
        {
          "name": "actor",
          "type": "address"
        },
        {
          "name": "amount",
          "type": "uint256"
        }
      ],
      "name": "release",
      "outputs": [
        {
          "name": "",
          "type": "bool"
        }
      ],
      "payable": false,
      "stateMutability": "nonpayable",
      "type": "function",
      "signature": "0xf5b16b84"
    }
  ],
  "bytecode": "0x608060405234801561001057600080fd5b50604051602080610a378339810160405251600160a060020a038116151561009957604080517f08c379a000000000000000000000000000000000000000000000000000000000815260206004820152600f60248201527f496e76616c696420616464726573730000000000000000000000000000000000604482015290519081900360640190fd5b60018054600160a060020a031916600160a060020a039290921691909117905561096f806100c86000396000f30060806040526004361061006c5763ffffffff7c0100000000000000000000000000000000000000000000000000000000600035041663570bd55881146100715780638c610c8d146100a75780638caa5230146100e2578063e503612f146100fd578063f5b16b8414610124575b600080fd5b34801561007d57600080fd5b50610095600435600160a060020a036024351661014b565b60408051918252519081900360200190f35b3480156100b357600080fd5b506100ce600435600160a060020a0360243516604435610176565b604080519115158252519081900360200190f35b3480156100ee57600080fd5b506100ce600435602435610401565b34801561010957600080fd5b506100ce600435600160a060020a0360243516604435610621565b34801561013057600080fd5b506100ce600435600160a060020a0360243516604435610741565b600082815260208181526040808320600160a060020a03851684526001019091529020545b92915050565b600154604080517fdd62ed3e0000000000000000000000000000000000000000000000000000000081523360048201523060248201529051600092600160a060020a03169163dd62ed3e91604480830192602092919082900301818787803b1580156101e157600080fd5b505af11580156101f5573d6000803e3d6000fd5b505050506040513d602081101561020b57600080fd5b5050600154604080517f70a08231000000000000000000000000000000000000000000000000000000008152600160a060020a0386811660048301529151859392909216916370a08231916024808201926020929091908290030181600087803b15801561027857600080fd5b505af115801561028c573d6000803e3d6000fd5b505050506040513d60208110156102a257600080fd5b505110156102fa576040805160e560020a62461bcd02815260206004820152601160248201527f696e73756666696369656e742066756e64000000000000000000000000000000604482015290519081900360640190fd5b600154604080517f23b872dd000000000000000000000000000000000000000000000000000000008152600160a060020a03868116600483015230602483015260448201869052915191909216916323b872dd9160648083019260209291908290030181600087803b15801561036f57600080fd5b505af1158015610383573d6000803e3d6000fd5b505050506040513d602081101561039957600080fd5b5051156103f65750600083815260208181526040808320600160a060020a03861684526001808201845291842080548601905586845292909152815473ffffffffffffffffffffffffffffffffffffffff191633179091556103fa565b5060005b9392505050565b600154604080517fdd62ed3e0000000000000000000000000000000000000000000000000000000081523360048201523060248201529051600092600160a060020a03169163dd62ed3e91604480830192602092919082900301818787803b15801561046c57600080fd5b505af1158015610480573d6000803e3d6000fd5b505050506040513d602081101561049657600080fd5b5050600154604080517f23b872dd000000000000000000000000000000000000000000000000000000008152336004820152306024820152604481018590529051600160a060020a03909216916323b872dd916064808201926020929091908290030181600087803b15801561050b57600080fd5b505af115801561051f573d6000803e3d6000fd5b505050506040513d602081101561053557600080fd5b5051156105d2576000838152602081815260408083203380855260018083018552838620805489019055888652948452815473ffffffffffffffffffffffffffffffffffffffff1916811790915581519081523092810192909252818101859052606082019290925290517ffafefe6f12466d7da88112bcc628cff33055a93dcc32a2a7e69d33fface206019181900360800190a1506001610170565b604080513381523060208201528082018490526000606082015290517ffafefe6f12466d7da88112bcc628cff33055a93dcc32a2a7e69d33fface206019181900360800190a150600092915050565b6000838152602081905260408120548490600160a060020a03163314610691576040805160e560020a62461bcd02815260206004820152601360248201527f696e76616c6964207374616b65206f776e657200000000000000000000000000604482015290519081900360640190fd5b600085815260208181526040808320600160a060020a0388168452600101909152902054831061070b576040805160e560020a62461bcd02815260206004820152601160248201527f696e73756666696369656e742066756e64000000000000000000000000000000604482015290519081900360640190fd5b5050600092835260208381526040808520600160a060020a03949094168552600193840190915290922080549290920390915590565b6000838152602081905260408120548490600160a060020a031633146107b1576040805160e560020a62461bcd02815260206004820152601360248201527f696e76616c6964207374616b65206f776e657200000000000000000000000000604482015290519081900360640190fd5b600085815260208181526040808320600160a060020a038816845260010190915290205483111561082c576040805160e560020a62461bcd02815260206004820152601c60248201527f696e76616c69642072656c6561736520746f6b656e20616d6f756e7400000000604482015290519081900360640190fd5b600154604080517fa9059cbb000000000000000000000000000000000000000000000000000000008152600160a060020a038781166004830152602482018790529151919092169163a9059cbb9160448083019260209291908290030181600087803b15801561089b57600080fd5b505af11580156108af573d6000803e3d6000fd5b505050506040513d60208110156108c557600080fd5b5051151561070b576040805160e560020a62461bcd02815260206004820152602660248201527f756e61626c6520746f207472616e7366657220746f6b656e20746f207468652060448201527f6163746f72210000000000000000000000000000000000000000000000000000606482015290519081900360840190fd00a165627a7a72305820410d69707d10660948905dc5278607ce976312a395d25ed7ea310d1f703ad3250029",
  "source": "pragma solidity 0.4.25;\n\nimport './FitchainToken.sol';\n/**\n@title Fitchain Stake Contract\n@author Team: Fitchain Team\n*/\n\ncontract FitchainStake {\n\n    struct Stake{\n        address owner;\n        mapping(address=>uint256) actors;\n    }\n\n    mapping(bytes32 => Stake) stakes;\n    FitchainToken private token;\n\n    modifier onlyStakeOwner(bytes32 stakeId){\n        require(stakes[stakeId].owner == msg.sender, 'invalid stake owner');\n        _;\n    }\n\n    event Staking(address sender, address receiver, uint256 amount, bool state);\n\n    constructor(address _tokenAddress) public {\n        require(_tokenAddress != address(0), 'Invalid address');\n        token = FitchainToken(_tokenAddress);\n    }\n\n    function stake(bytes32 stakeId, uint256 amount) public returns(bool){\n        token.allowance(msg.sender, address(this));\n        if(token.transferFrom(msg.sender, address(this), amount)){\n            stakes[stakeId].actors[msg.sender] += amount;\n            stakes[stakeId].owner = msg.sender;\n            emit Staking(msg.sender, address(this), amount, true);\n            return true;\n        }\n        emit Staking(msg.sender, address(this), amount, false);\n        return false;\n    }\n\n    function stake(bytes32 stakeId, address actor, uint256 amount) public returns(bool){\n        token.allowance(msg.sender, address(this));\n        require(token.balanceOf(actor) >= amount, 'insufficient fund');\n        if(token.transferFrom(actor, address(this), amount)){\n            stakes[stakeId].actors[actor] += amount;\n            stakes[stakeId].owner = msg.sender;\n            return true;\n        }\n        return false;\n    }\n\n    function getStakebyActor(bytes32 stakeId, address actor) public view returns(uint256){\n        return stakes[stakeId].actors[actor];\n    }\n\n    function slash(bytes32 stakeId, address actor, uint256 amount) public onlyStakeOwner(stakeId) returns(bool){\n        require(stakes[stakeId].actors[actor] > amount, 'insufficient fund');\n        stakes[stakeId].actors[actor] -= amount;\n        //TODO: distribute this amount as a reward for other actors in the same pool\n        return true;\n    }\n\n    function release(bytes32 stakeId, address actor, uint256 amount) public onlyStakeOwner(stakeId) returns(bool){\n        require(stakes[stakeId].actors[actor] >= amount, 'invalid release token amount');\n        require(token.transfer(actor, amount), 'unable to transfer token to the actor!');\n        stakes[stakeId].actors[actor] -= amount;\n        return true;\n    }\n}",
  "sourcePath": "/Users/ahmed/Desktop/test/fitchain-contracts/contracts/FitchainStake.sol",
  "compiler": {
    "name": "solc",
    "version": "0.4.25+commit.59dbf8f1.Emscripten.clang"
  },
  "schemaVersion": "3.0.0-beta.0",
  "updatedAt": "2018-12-12T17:20:03.631Z"
}