{
  "contractName": "FitchainRegistry",
  "abi": [
    {
      "constant": false,
      "inputs": [],
      "name": "renounceOwnership",
      "outputs": [],
      "payable": false,
      "stateMutability": "nonpayable",
      "type": "function",
      "signature": "0x715018a6"
    },
    {
      "constant": true,
      "inputs": [],
      "name": "owner",
      "outputs": [
        {
          "name": "",
          "type": "address"
        }
      ],
      "payable": false,
      "stateMutability": "view",
      "type": "function",
      "signature": "0x8da5cb5b"
    },
    {
      "constant": true,
      "inputs": [],
      "name": "isOwner",
      "outputs": [
        {
          "name": "",
          "type": "bool"
        }
      ],
      "payable": false,
      "stateMutability": "view",
      "type": "function",
      "signature": "0x8f32d59b"
    },
    {
      "constant": false,
      "inputs": [
        {
          "name": "newOwner",
          "type": "address"
        }
      ],
      "name": "transferOwnership",
      "outputs": [],
      "payable": false,
      "stateMutability": "nonpayable",
      "type": "function",
      "signature": "0xf2fde38b"
    },
    {
      "inputs": [
        {
          "name": "_stakeAddress",
          "type": "address"
        }
      ],
      "payable": false,
      "stateMutability": "nonpayable",
      "type": "constructor",
      "signature": "constructor"
    },
    {
      "anonymous": false,
      "inputs": [
        {
          "indexed": true,
          "name": "previousOwner",
          "type": "address"
        },
        {
          "indexed": true,
          "name": "newOwner",
          "type": "address"
        }
      ],
      "name": "OwnershipTransferred",
      "type": "event",
      "signature": "0x8be0079c531659141344cd1fd0a4f28419497f9722a3daafe3b4186f6b6457e0"
    },
    {
      "constant": false,
      "inputs": [
        {
          "name": "actor",
          "type": "address"
        },
        {
          "name": "slots",
          "type": "uint256"
        },
        {
          "name": "stakeId",
          "type": "bytes32"
        },
        {
          "name": "amount",
          "type": "uint256"
        }
      ],
      "name": "register",
      "outputs": [
        {
          "name": "",
          "type": "bool"
        }
      ],
      "payable": false,
      "stateMutability": "nonpayable",
      "type": "function",
      "signature": "0xa7e7c09f"
    },
    {
      "constant": false,
      "inputs": [
        {
          "name": "actor",
          "type": "address"
        },
        {
          "name": "stakeId",
          "type": "bytes32"
        }
      ],
      "name": "deregister",
      "outputs": [
        {
          "name": "",
          "type": "bool"
        }
      ],
      "payable": false,
      "stateMutability": "nonpayable",
      "type": "function",
      "signature": "0x5cfcdbc5"
    },
    {
      "constant": false,
      "inputs": [
        {
          "name": "stakeId",
          "type": "bytes32"
        },
        {
          "name": "actor",
          "type": "address"
        },
        {
          "name": "amount",
          "type": "uint256"
        },
        {
          "name": "decrementSlots",
          "type": "bool"
        }
      ],
      "name": "slashActor",
      "outputs": [
        {
          "name": "",
          "type": "bool"
        }
      ],
      "payable": false,
      "stateMutability": "nonpayable",
      "type": "function",
      "signature": "0x62db8bc2"
    },
    {
      "constant": true,
      "inputs": [
        {
          "name": "actor",
          "type": "address"
        }
      ],
      "name": "isActorRegistered",
      "outputs": [
        {
          "name": "",
          "type": "bool"
        }
      ],
      "payable": false,
      "stateMutability": "view",
      "type": "function",
      "signature": "0x2bc6aa4e"
    },
    {
      "constant": true,
      "inputs": [
        {
          "name": "actor",
          "type": "address"
        }
      ],
      "name": "getActorFreeSlots",
      "outputs": [
        {
          "name": "",
          "type": "uint256"
        }
      ],
      "payable": false,
      "stateMutability": "view",
      "type": "function",
      "signature": "0x392bb9d5"
    },
    {
      "constant": true,
      "inputs": [
        {
          "name": "actor",
          "type": "address"
        }
      ],
      "name": "getActorMaxSlots",
      "outputs": [
        {
          "name": "",
          "type": "uint256"
        }
      ],
      "payable": false,
      "stateMutability": "view",
      "type": "function",
      "signature": "0xf8102a98"
    },
    {
      "constant": true,
      "inputs": [],
      "name": "getAvaliableRegistrants",
      "outputs": [
        {
          "name": "",
          "type": "address[]"
        }
      ],
      "payable": false,
      "stateMutability": "view",
      "type": "function",
      "signature": "0x29d8e19b"
    },
    {
      "constant": false,
      "inputs": [
        {
          "name": "actor",
          "type": "address"
        }
      ],
      "name": "decrementActorSlots",
      "outputs": [
        {
          "name": "",
          "type": "bool"
        }
      ],
      "payable": false,
      "stateMutability": "nonpayable",
      "type": "function",
      "signature": "0x149fe509"
    },
    {
      "constant": false,
      "inputs": [
        {
          "name": "actor",
          "type": "address"
        }
      ],
      "name": "incrementActorSlots",
      "outputs": [
        {
          "name": "",
          "type": "bool"
        }
      ],
      "payable": false,
      "stateMutability": "nonpayable",
      "type": "function",
      "signature": "0x772279dd"
    }
  ],
  "bytecode": "0x608060405234801561001057600080fd5b506040516020806111f3833981016040819052905160008054600160a060020a03191633178082559192600160a060020a0392909216917f8be0079c531659141344cd1fd0a4f28419497f9722a3daafe3b4186f6b6457e0908290a3600160a060020a03811615156100e357604080517f08c379a000000000000000000000000000000000000000000000000000000000815260206004820152600f60248201527f696e76616c696420616464726573730000000000000000000000000000000000604482015290519081900360640190fd5b60038054600160a060020a031916600160a060020a03929092169190911790556110e1806101126000396000f3006080604052600436106100c45763ffffffff7c0100000000000000000000000000000000000000000000000000000000600035041663149fe50981146100c957806329d8e19b146100fe5780632bc6aa4e14610163578063392bb9d5146101845780635cfcdbc5146101b757806362db8bc2146101db578063715018a614610207578063772279dd1461021e5780638da5cb5b1461023f5780638f32d59b14610270578063a7e7c09f14610285578063f2fde38b146102af578063f8102a98146102d0575b600080fd5b3480156100d557600080fd5b506100ea600160a060020a03600435166102f1565b604080519115158252519081900360200190f35b34801561010a57600080fd5b50610113610429565b60408051602080825283518183015283519192839290830191858101910280838360005b8381101561014f578181015183820152602001610137565b505050509050019250505060405180910390f35b34801561016f57600080fd5b506100ea600160a060020a0360043516610495565b34801561019057600080fd5b506101a5600160a060020a03600435166104c0565b60408051918252519081900360200190f35b3480156101c357600080fd5b506100ea600160a060020a03600435166024356104eb565b3480156101e757600080fd5b506100ea600435600160a060020a036024351660443560643515156107db565b34801561021357600080fd5b5061021c6109f9565b005b34801561022a57600080fd5b506100ea600160a060020a0360043516610a63565b34801561024b57600080fd5b50610254610bb6565b60408051600160a060020a039092168252519081900360200190f35b34801561027c57600080fd5b506100ea610bc5565b34801561029157600080fd5b506100ea600160a060020a0360043516602435604435606435610bd6565b3480156102bb57600080fd5b5061021c600160a060020a0360043516610dbf565b3480156102dc57600080fd5b506101a5600160a060020a0360043516610dde565b336000908152600160209081526040808320600160a060020a0385168452909152812054829060ff16151561035e576040805160e560020a62461bcd0281526020600482015260166024820152600080516020611096833981519152604482015290519081900360640190fd5b336000908152600160208181526040808420600160a060020a038816855290915282200154116103d8576040805160e560020a62461bcd02815260206004820152601360248201527f696e76616c696420736c6f74732076616c756500000000000000000000000000604482015290519081900360640190fd5b336000908152600160208181526040808420600160a060020a03881685529091529091200180546000190190819055151561041e576104178333610e09565b9150610423565b600191505b50919050565b3360009081526002602090815260409182902080548351818402810184019094528084526060939283018282801561048a57602002820191906000526020600020905b8154600160a060020a0316815260019091019060200180831161046c575b505050505090505b90565b336000908152600160209081526040808320600160a060020a03949094168352929052205460ff1690565b336000908152600160208181526040808420600160a060020a03861685529091529091200154919050565b336000908152600160209081526040808320600160a060020a03861684529091528120548190849060ff16151561055a576040805160e560020a62461bcd0281526020600482015260166024820152600080516020611096833981519152604482015290519081900360640190fd5b336000908152600160208181526040808420600160a060020a038a1685529091529091206002810154910154869114610603576040805160e560020a62461bcd02815260206004820152602a60248201527f72656769737472616e7420697320627573792c20706c6561736520667265652060448201527f736f6d6520736c6f747300000000000000000000000000000000000000000000606482015290519081900360840190fd5b600354604080517f570bd55800000000000000000000000000000000000000000000000000000000815260048101889052600160a060020a0389811660248301529151919092169163570bd5589160448083019260209291908290030181600087803b15801561067257600080fd5b505af1158015610686573d6000803e3d6000fd5b505050506040513d602081101561069c57600080fd5b50519250600083116106f8576040805160e560020a62461bcd02815260206004820152601760248201527f696e6469636174696e6720656d707479207374616b6521000000000000000000604482015290519081900360640190fd5b336000818152600160209081526040808320600160a060020a038b1684529091529020805460ff1916905561072e908790610e09565b50600354604080517ff5b16b8400000000000000000000000000000000000000000000000000000000815260048101889052600160a060020a038981166024830152604482018790529151919092169163f5b16b849160648083019260209291908290030181600087803b1580156107a557600080fd5b505af11580156107b9573d6000803e3d6000fd5b505050506040513d60208110156107cf57600080fd5b50519695505050505050565b336000908152600160209081526040808320600160a060020a0387168452909152812054849060ff161515610848576040805160e560020a62461bcd0281526020600482015260166024820152600080516020611096833981519152604482015290519081900360640190fd5b336000908152600160209081526040808320600160a060020a0389168452909152902054859060ff1615156108b5576040805160e560020a62461bcd0281526020600482015260166024820152600080516020611096833981519152604482015290519081900360640190fd5b600354604080517fe503612f000000000000000000000000000000000000000000000000000000008152600481018a9052600160a060020a038981166024830152604482018990529151919092169163e503612f9160648083019260209291908290030181600087803b15801561092b57600080fd5b505af115801561093f573d6000803e3d6000fd5b505050506040513d602081101561095557600080fd5b505115156109ad576040805160e560020a62461bcd02815260206004820152601960248201527f756e61626c6520746f20736c61736820746865206163746f7200000000000000604482015290519081900360640190fd5b83156109ec576109bc866102f1565b50336000908152600160209081526040808320600160a060020a038a168452909152902060020180546000190190555b5060019695505050505050565b610a01610bc5565b1515610a0c57600080fd5b60008054604051600160a060020a03909116907f8be0079c531659141344cd1fd0a4f28419497f9722a3daafe3b4186f6b6457e0908390a36000805473ffffffffffffffffffffffffffffffffffffffff19169055565b336000908152600160209081526040808320600160a060020a0385168452909152812054829060ff161515610ad0576040805160e560020a62461bcd0281526020600482015260166024820152600080516020611096833981519152604482015290519081900360640190fd5b336000908152600160208181526040808420600160a060020a0388168552909152822001541015610b4b576040805160e560020a62461bcd02815260206004820152601360248201527f696e76616c696420736c6f74732076616c756500000000000000000000000000604482015290519081900360640190fd5b336000908152600160208181526040808420600160a060020a038816855290915290912001541515610b8357610b818333610f7f565b505b5050336000908152600160208181526040808420600160a060020a03959095168452939052919020810180548201905590565b600054600160a060020a031690565b600054600160a060020a0316331490565b336000908152600160209081526040808320600160a060020a0388168452909152812054859060ff1615610c54576040805160e560020a62461bcd02815260206004820152601560248201527f4163746f7220616c726561647920657869737473210000000000000000000000604482015290519081900360640190fd5b6001851015610cad576040805160e560020a62461bcd02815260206004820152601c60248201527f696e76616c6964206e756d626572206f66206672656520736c6f747300000000604482015290519081900360640190fd5b600354604080517f8c610c8d00000000000000000000000000000000000000000000000000000000815260048101879052600160a060020a038981166024830152888702604483015291519190921691638c610c8d9160648083019260209291908290030181600087803b158015610d2457600080fd5b505af1158015610d38573d6000803e3d6000fd5b505050506040513d6020811015610d4e57600080fd5b50511515610d5b57600080fd5b60408051606081018252600180825260208083018981528385018a8152336000818152858552878120600160a060020a038f168252909452959092209351845460ff19169015151784555191830191909155516002909101556109ec908790610f7f565b610dc7610bc5565b1515610dd257600080fd5b610ddb81610fd1565b50565b336000908152600160209081526040808320600160a060020a03949094168352929052206002015490565b600080805b600160a060020a038416600090815260026020526040902054821015610f7257600160a060020a0384166000908152600260205260409020805483908110610e5257fe5b600091825260209091200154600160a060020a0386811691161415610f675750805b600160a060020a03841660009081526002602052604090205460001901811015610f3457600160a060020a0384166000908152600260205260409020805460018301908110610ebf57fe5b6000918252602080832090910154600160a060020a03878116845260029092526040909220805491909216919083908110610ef657fe5b6000918252602090912001805473ffffffffffffffffffffffffffffffffffffffff1916600160a060020a0392909216919091179055600101610e74565b600160a060020a0384166000908152600260205260409020805490610f5d90600019830161104e565b5060019250610f77565b600190910190610e0e565b600092505b505092915050565b600160a060020a03908116600090815260026020908152604082208054600180820183559184529190922001805473ffffffffffffffffffffffffffffffffffffffff19169390921692909217905590565b600160a060020a0381161515610fe657600080fd5b60008054604051600160a060020a03808516939216917f8be0079c531659141344cd1fd0a4f28419497f9722a3daafe3b4186f6b6457e091a36000805473ffffffffffffffffffffffffffffffffffffffff1916600160a060020a0392909216919091179055565b81548183558181111561107257600083815260209020611072918101908301611077565b505050565b61049291905b80821115611091576000815560010161107d565b50905600696e76616c6964207265676973747279206f776e657200000000000000000000a165627a7a723058208b56f92e65558316cc1ce2badd31bab630ae20251cc042b57493cf9f088409aa0029",
  "source": "pragma solidity 0.4.25;\n\nimport 'openzeppelin-solidity/contracts/ownership/Ownable.sol';\nimport './FitchainStake.sol';\n\n/**\n@title Fitchain Actors Registry\n@author Team: Fitchain Team\n*/\n\ncontract FitchainRegistry is Ownable {\n\n    struct Registrant {\n        bool exists;\n        uint256 slots;\n        uint256 maxSlots;\n    }\n    // RegistryOwner -> Actor -> RegistrantStruct\n    mapping(address => mapping(address => Registrant)) registry;\n    mapping(address => address[]) actors;\n    FitchainStake private staking;\n\n    modifier onlyRegistryOwner(address actor){\n        require(registry[msg.sender][actor].exists, 'invalid registry owner');\n        _;\n    }\n\n    modifier onlyExist(address actor){\n        require(registry[msg.sender][actor].exists, 'invalid registry owner');\n        _;\n    }\n\n    modifier onlyFreeSlots(address actor){\n        require(registry[msg.sender][actor].slots == registry[msg.sender][actor].maxSlots, 'registrant is busy, please free some slots');\n        _;\n    }\n\n    modifier onlyNotExist(address actor) {\n        require(!registry[msg.sender][actor].exists, 'Actor already exists!');\n        _;\n    }\n\n    constructor(address _stakeAddress) public {\n        require(_stakeAddress != address(0), 'invalid address');\n        staking = FitchainStake(_stakeAddress);\n    }\n\n    function register(address actor, uint256 slots, bytes32 stakeId, uint256 amount) public onlyNotExist(actor) returns(bool) {\n        require(slots >= 1, 'invalid number of free slots');\n        require(staking.stake(stakeId, actor, slots * amount));\n        registry[msg.sender][actor] = Registrant(true, slots, slots);\n        addActorToRegistry(actor, msg.sender);\n        return true;\n    }\n\n    function deregister(address actor, bytes32 stakeId) public onlyRegistryOwner(actor) onlyFreeSlots(actor) returns (bool) {\n        uint256 amount = staking.getStakebyActor(stakeId, actor);\n        require(amount > 0, 'indicating empty stake!');\n        registry[msg.sender][actor].exists = false;\n        removeActorFromRegistry(actor, msg.sender);\n        return staking.release(stakeId, actor, amount);\n    }\n\n    function slashActor(bytes32 stakeId, address actor, uint256 amount, bool decrementSlots) public onlyRegistryOwner(actor) onlyExist(actor) returns(bool){\n        require(staking.slash(stakeId, actor, amount), 'unable to slash the actor');\n        if(decrementSlots) {\n            decrementActorSlots(actor);\n            // decrement the max slots after slashing the stake\n            registry[msg.sender][actor].maxSlots -=1;\n        }\n        return true;\n    }\n\n    function isActorRegistered(address actor) public view returns(bool) {\n        return registry[msg.sender][actor].exists;\n    }\n\n    function getActorFreeSlots(address actor) public view returns(uint256) {\n        return registry[msg.sender][actor].slots;\n    }\n\n    function getActorMaxSlots(address actor) public view returns(uint256) {\n        return registry[msg.sender][actor].maxSlots;\n    }\n\n    function removeActorFromRegistry(address actor, address owner)  private returns(bool) {\n        // This function is prone to gas limit errors\n        for(uint256 j=0; j<actors[owner].length; j++){\n            if(actor == actors[owner][j]){\n                for (uint i=j; i< actors[owner].length-1; i++){\n                    actors[owner][i] = actors[owner][i+1];\n                }\n                actors[owner].length--;\n                return true;\n            }\n        }\n        return false;\n    }\n\n    function addActorToRegistry(address actor, address owner) private returns(bool) {\n        actors[owner].push(actor);\n        return true;\n    }\n\n    function getAvaliableRegistrants() public view returns(address[]) {\n        return actors[msg.sender];\n    }\n\n    function decrementActorSlots(address actor) public onlyRegistryOwner(actor) returns(bool){\n        require(registry[msg.sender][actor].slots > 0, 'invalid slots value');\n        registry[msg.sender][actor].slots -=1;\n        if(registry[msg.sender][actor].slots == 0){\n            return removeActorFromRegistry(actor, msg.sender);\n        }\n        return true;\n    }\n\n    function incrementActorSlots(address actor) public onlyRegistryOwner(actor) returns(bool){\n        require(registry[msg.sender][actor].slots >=0, 'invalid slots value');\n        if(registry[msg.sender][actor].slots == 0){\n            addActorToRegistry(actor, msg.sender);\n        }\n        registry[msg.sender][actor].slots +=1;\n        return true;\n    }\n}",
  "sourcePath": "/Users/ahmed/Desktop/test/fitchain-contracts/contracts/FitchainRegistry.sol",
  "compiler": {
    "name": "solc",
    "version": "0.4.25+commit.59dbf8f1.Emscripten.clang"
  },
  "schemaVersion": "3.0.0-beta.0",
  "updatedAt": "2018-12-12T17:20:04.657Z"
}