{
  "contractName": "GossipersPool",
  "abi": [
    {
      "constant": false,
      "inputs": [],
      "name": "renounceOwnership",
      "outputs": [],
      "payable": false,
      "stateMutability": "nonpayable",
      "type": "function"
    },
    {
      "constant": true,
      "inputs": [],
      "name": "owner",
      "outputs": [
        {
          "name": "",
          "type": "address"
        }
      ],
      "payable": false,
      "stateMutability": "view",
      "type": "function"
    },
    {
      "constant": true,
      "inputs": [],
      "name": "isOwner",
      "outputs": [
        {
          "name": "",
          "type": "bool"
        }
      ],
      "payable": false,
      "stateMutability": "view",
      "type": "function"
    },
    {
      "constant": false,
      "inputs": [
        {
          "name": "newOwner",
          "type": "address"
        }
      ],
      "name": "transferOwnership",
      "outputs": [],
      "payable": false,
      "stateMutability": "nonpayable",
      "type": "function"
    },
    {
      "inputs": [
        {
          "name": "_minKGossipers",
          "type": "uint256"
        },
        {
          "name": "_maxKGossipers",
          "type": "uint256"
        },
        {
          "name": "_minStake",
          "type": "uint256"
        },
        {
          "name": "_registry",
          "type": "address"
        }
      ],
      "payable": false,
      "stateMutability": "nonpayable",
      "type": "constructor"
    },
    {
      "anonymous": false,
      "inputs": [
        {
          "indexed": false,
          "name": "channelId",
          "type": "bytes32"
        },
        {
          "indexed": false,
          "name": "gossipers",
          "type": "address[]"
        },
        {
          "indexed": false,
          "name": "proofId",
          "type": "bytes32"
        }
      ],
      "name": "ChannelInitialized",
      "type": "event"
    },
    {
      "anonymous": false,
      "inputs": [
        {
          "indexed": false,
          "name": "channelId",
          "type": "bytes32"
        },
        {
          "indexed": false,
          "name": "proofId",
          "type": "bytes32"
        },
        {
          "indexed": false,
          "name": "verifier",
          "type": "address"
        },
        {
          "indexed": false,
          "name": "proofHash",
          "type": "bytes32"
        }
      ],
      "name": "PoTSubmitted",
      "type": "event"
    },
    {
      "anonymous": false,
      "inputs": [
        {
          "indexed": false,
          "name": "channelId",
          "type": "bytes32"
        },
        {
          "indexed": false,
          "name": "proofId",
          "type": "bytes32"
        }
      ],
      "name": "PoTValidated",
      "type": "event"
    },
    {
      "anonymous": false,
      "inputs": [
        {
          "indexed": true,
          "name": "previousOwner",
          "type": "address"
        },
        {
          "indexed": true,
          "name": "newOwner",
          "type": "address"
        }
      ],
      "name": "OwnershipTransferred",
      "type": "event"
    },
    {
      "constant": false,
      "inputs": [
        {
          "name": "channelId",
          "type": "bytes32"
        },
        {
          "name": "KVerifiers",
          "type": "uint256"
        },
        {
          "name": "mOfN",
          "type": "uint256"
        },
        {
          "name": "owner",
          "type": "address"
        }
      ],
      "name": "initChannel",
      "outputs": [
        {
          "name": "",
          "type": "bool"
        }
      ],
      "payable": false,
      "stateMutability": "nonpayable",
      "type": "function"
    },
    {
      "constant": false,
      "inputs": [
        {
          "name": "channelId",
          "type": "bytes32"
        }
      ],
      "name": "terminateChannel",
      "outputs": [
        {
          "name": "",
          "type": "bool"
        }
      ],
      "payable": false,
      "stateMutability": "nonpayable",
      "type": "function"
    },
    {
      "constant": true,
      "inputs": [
        {
          "name": "channelId",
          "type": "bytes32"
        }
      ],
      "name": "getChannelVerifiers",
      "outputs": [
        {
          "name": "",
          "type": "address[]"
        }
      ],
      "payable": false,
      "stateMutability": "view",
      "type": "function"
    },
    {
      "constant": true,
      "inputs": [
        {
          "name": "proofId",
          "type": "bytes32"
        }
      ],
      "name": "getChannelByProofId",
      "outputs": [
        {
          "name": "",
          "type": "bytes32"
        }
      ],
      "payable": false,
      "stateMutability": "view",
      "type": "function"
    },
    {
      "constant": true,
      "inputs": [
        {
          "name": "channelId",
          "type": "bytes32"
        }
      ],
      "name": "getProofIdByChannelId",
      "outputs": [
        {
          "name": "",
          "type": "bytes32"
        }
      ],
      "payable": false,
      "stateMutability": "view",
      "type": "function"
    },
    {
      "constant": true,
      "inputs": [
        {
          "name": "proofId",
          "type": "bytes32"
        }
      ],
      "name": "getProof",
      "outputs": [
        {
          "name": "",
          "type": "bool"
        },
        {
          "name": "",
          "type": "bytes32"
        },
        {
          "name": "",
          "type": "bytes32[]"
        }
      ],
      "payable": false,
      "stateMutability": "view",
      "type": "function"
    },
    {
      "constant": false,
      "inputs": [
        {
          "name": "channelId",
          "type": "bytes32"
        },
        {
          "name": "eot",
          "type": "string"
        },
        {
          "name": "merkleroot",
          "type": "bytes32[]"
        },
        {
          "name": "signature",
          "type": "bytes"
        },
        {
          "name": "result",
          "type": "bytes32"
        }
      ],
      "name": "submitProof",
      "outputs": [
        {
          "name": "",
          "type": "bool"
        }
      ],
      "payable": false,
      "stateMutability": "nonpayable",
      "type": "function"
    },
    {
      "constant": false,
      "inputs": [
        {
          "name": "channelId",
          "type": "bytes32"
        }
      ],
      "name": "validateProof",
      "outputs": [
        {
          "name": "",
          "type": "bool"
        }
      ],
      "payable": false,
      "stateMutability": "nonpayable",
      "type": "function"
    }
  ],
  "bytecode": "0x608060405234801561001057600080fd5b506040516080806119be833981016040818152825160208401519184015160609094015160008054600160a060020a0319163317808255929593949192600160a060020a0316917f8be0079c531659141344cd1fd0a4f28419497f9722a3daafe3b4186f6b6457e0908290a3600160a060020a038116151561011957604080517f08c379a000000000000000000000000000000000000000000000000000000000815260206004820152602160248201527f496e76616c696420726567697374727920636f6e74726163742061646472657360448201527f7300000000000000000000000000000000000000000000000000000000000000606482015290519081900360840190fd5b60408051606081018252948552602080860194855285820193845230600090815260039091522093518455915160018401555160029092019190915560048054600160a060020a0392909216600160a060020a0319909216919091179055611838806101866000396000f3006080604052600436106100a05763ffffffff60e060020a6000350416631b80bb3a81146100a55780632e77f33414610122578063510faf3f1461018a5780635c4f56d6146101c8578063715018a6146101f257806380ffa69d146102095780638da5cb5b146102215780638f32d59b146102525780639d79573d14610267578063ab1f95121461033e578063eada966a14610356578063f2fde38b1461036e575b600080fd5b3480156100b157600080fd5b506100bd60043561038f565b6040805184151581526020808201859052606092820183815284519383019390935283519192916080840191858101910280838360005b8381101561010c5781810151838201526020016100f4565b5050505090500194505050505060405180910390f35b34801561012e57600080fd5b5061013a60043561040e565b60408051602080825283518183015283519192839290830191858101910280838360005b8381101561017657818101518382015260200161015e565b505050509050019250505060405180910390f35b34801561019657600080fd5b506101b4600435602435604435600160a060020a036064351661047d565b604080519115158252519081900360200190f35b3480156101d457600080fd5b506101e0600435610a8b565b60408051918252519081900360200190f35b3480156101fe57600080fd5b50610207610aa1565b005b34801561021557600080fd5b506101b4600435610b0b565b34801561022d57600080fd5b50610236610d73565b60408051600160a060020a039092168252519081900360200190f35b34801561025e57600080fd5b506101b4610d83565b34801561027357600080fd5b5060408051602060046024803582810135601f81018590048502860185019096528585526101b4958335953695604494919390910191908190840183828082843750506040805187358901803560208181028481018201909552818452989b9a99890198929750908201955093508392508501908490808284375050604080516020601f89358b018035918201839004830284018301909452808352979a9998810197919650918201945092508291508401838280828437509497505093359450610d949350505050565b34801561034a57600080fd5b506101b4600435611088565b34801561036257600080fd5b506101e0600435611145565b34801561037a57600080fd5b50610207600160a060020a036004351661115b565b600081815260026020818152604080842080549381015460049091018054835181860281018601909452808452869560609560ff909116949183918301828280156103fa57602002820191906000526020600020905b815481526001909101906020018083116103e5575b505050505090509250925092509193909250565b60008181526001602090815260409182902060020180548351818402810184019094528084526060939283018282801561047157602002820191906000526020600020905b8154600160a060020a03168152600190910190602001808311610453575b50505050509050919050565b3060009081526003602052604081205481908590859082101561050f576040805160e560020a62461bcd028152602060048201526024808201527f696e6469636174696e6720736d616c6c206e756d626572206f6620676f73736960448201527f7065727300000000000000000000000000000000000000000000000000000000606482015290519081900360840190fd5b3060009081526003602052604090206001015482111561059e576040805160e560020a62461bcd028152602060048201526024808201527f696e6469636174696e67206c61726765206e756d626572206f6620676f73736960448201527f7065727300000000000000000000000000000000000000000000000000000000606482015290519081900360840190fd5b816105a761117a565b5110156105fe576040805160e560020a62461bcd02815260206004820152601d60248201527f4b20676f7373697065727320617265206e6f7420617661696c61626c65000000604482015290519081900360640190fd5b8082101561067c576040805160e560020a62461bcd02815260206004820152602f60248201527f496e76616c6964206368616e6e656c20696e697469616c697a6174696f6e206960448201527f6e70757420706172616d65746572730000000000000000000000000000000000606482015290519081900360840190fd5b600088815260016020526040902054889060ff16156106e5576040805160e560020a62461bcd02815260206004820152601660248201527f4368616e6e656c20616c72656164792065786973747300000000000000000000604482015290519081900360640190fd5b6040805160208082018c905243828401526c010000000000000000000000003302606083015282516054818403018152607490920192839052815191929182918401908083835b6020831061074b5780518252601f19909201916020918201910161072c565b6001836020036101000a0380198251168184511680821785525050505050509050019150506040518091039020935060c0604051908101604052806000151581526020018881526020018a60001916815260200160006040519080825280602002602001820160405280156107ca578160200160208202803883390190505b50815260200160006040519080825280602002602001820160405280156107fb578160200160208202803883390190505b508152602001600060405190808252806020026020018201604052801561083657816020015b60608152602001906001900390816108215790505b5090526000858152600260208181526040928390208451815460ff191690151517815584820151600182015592840151918301919091556060830151805161088492600385019201906115d8565b50608082015180516108a09160048401916020909101906115d8565b5060a082015180516108bc916005840191602090910190611625565b50506040805160808101825260018152600160a060020a0389166020808301919091528183018890528251600080825291810190935290925060608301919050905260008a8152600160208181526040928390208451815486840151600160a060020a03166101000274ffffffffffffffffffffffffffffffffffffffff001992151560ff199092169190911791909116178155928401519183019190915560608301518051610972926002850192019061167e565b50905050876109818a8a611273565b146109d6576040805160e560020a62461bcd02815260206004820152601c60248201527f556e61626c6520746f20696e697469616c697a65206368616e6e656c00000000604482015290519081900360640190fd5b60008981526001602090815260409182902082518c81529283018790526060918301828152600290910180549284018390527f36c173d71e50ea0e4b1999ea6792fd7db8317f4553e0b077d956c0042a1f3e9e938d9391928992608083019085908015610a6c57602002820191906000526020600020905b8154600160a060020a03168152600190910190602001808311610a4e575b505094505050505060405180910390a150600198975050505050505050565b6000908152600160208190526040909120015490565b610aa9610d83565b1515610ab457600080fd5b60008054604051600160a060020a03909116907f8be0079c531659141344cd1fd0a4f28419497f9722a3daafe3b4186f6b6457e0908390a36000805473ffffffffffffffffffffffffffffffffffffffff19169055565b60008080805b600085815260016020818152604080842090920154835260029052902060050154821015610bf05760008581526001602081815260408084209092015483526002905290206005015460001901821015610be557600085815260016020818152604080842083015484526002909152909120600401805490918401908110610b9557fe5b60009182526020808320909101548783526001808352604080852090910154845260029092529120600401805484908110610bcc57fe5b6000918252602090912001541415610be5576001830192505b600190910190610b11565b6000858152600160208181526040808420830154845260029091529091200154831415610d6657506000848152600160208181526040808420830154845260029091528220805460ff191690911790555b600085815260016020526040902060020154811015610d115760045460008681526001602052604090206002018054600160a060020a039092169163772279dd919085908110610c8d57fe5b60009182526020808320909101546040805160e060020a63ffffffff8716028152600160a060020a0390921660048301525160248083019491928390030190829087803b158015610cdd57600080fd5b505af1158015610cf1573d6000803e3d6000fd5b505050506040513d6020811015610d0757600080fd5b5050600101610c41565b6000858152600160208181526040928390209091015482518881529182015281517fd4007d07c371997cef85632175d797f4f1cbcc551fb88352b7c3df7a6f4231a2929181900390910190a160019350610d6b565b600093505b505050919050565b600054600160a060020a03165b90565b600054600160a060020a0316331490565b6000808681805b600083815260016020526040902060020154811015610dfa576000838152600160205260409020600201805482908110610dd157fe5b600091825260209091200154600160a060020a0316331415610df257600191505b600101610d9b565b811515610e77576040805160e560020a62461bcd02815260206004820152602a60248201527f756e61626c6520746f20766572696679207468652070726f6f662c206163636560448201527f73732064656e6965642100000000000000000000000000000000000000000000606482015290519081900360840190fd5b610f828a898b89604051602001808560001916600019168152602001848051906020019060200280838360005b83811015610ebc578181015183820152602001610ea4565b5050505090500183805190602001908083835b60208310610eee5780518252601f199092019160209182019101610ecf565b51815160209384036101000a6000190180199092169116179052920193845250604080518085038152938201908190528351939650945084935085019190508083835b60208310610f505780518252601f199092019160209182019101610f31565b6001836020036101000a03801982511681845116808217855250505050505090500191505060405180910390206113b3565b9350610f8f84883361145d565b156110765760008a815260016020818152604080842083015484526002825283206005018054928301808255908452928190208a51610fd59391909101918b01906116ec565b505060008a81526001602081815260408084208301805485526002835281852060040180548086018255908652838620018990558054855281852060030180548086018255908652838620018b9055938e9052918152915481518d815292830152338282015260608201869052517fffc4fa195561c386370c6b19cfeeee0782fc3dd14043d76ca1c746f922ff25cd9181900360800190a16001945061107b565b600094505b5050505095945050505050565b600081815260016020818152604080842090920154835260029052812054829060ff161515611127576040805160e560020a62461bcd02815260206004820152603360248201527f556e61626c6520746f207465726d696e617465206368616e6e656c2c20506f5460448201527f206e6f742076616c696461746564207965742100000000000000000000000000606482015290519081900360840190fd5b50506000908152600160208190526040909120805460ff1916905590565b6000908152600260208190526040909120015490565b611163610d83565b151561116e57600080fd5b61117781611486565b50565b60048054604080517f57f7e58f000000000000000000000000000000000000000000000000000000008152309381019390935251606092600160a060020a03909216916357f7e58f91602480830192600092919082900301818387803b1580156111e357600080fd5b505af11580156111f7573d6000803e3d6000fd5b505050506040513d6000823e601f3d908101601f19168201604052602081101561122057600080fd5b81019080805164010000000081111561123857600080fd5b8201602081018481111561124b57600080fd5b815185602082028301116401000000008211171561126857600080fd5b509094505050505090565b60006060600061128161117a565b9150600090505b8381101561139a57600085815260016020526040902082516002909101908390839081106112b257fe5b602090810291909101810151825460018101845560009384529190922001805473ffffffffffffffffffffffffffffffffffffffff1916600160a060020a03928316179055600454835191169063149fe5099084908490811061131157fe5b906020019060200201516040518263ffffffff1660e060020a0281526004018082600160a060020a0316600160a060020a03168152602001915050602060405180830381600087803b15801561136657600080fd5b505af115801561137a573d6000803e3d6000fd5b505050506040513d602081101561139057600080fd5b5050600101611288565b5050506000918252506001602052604090206002015490565b604080517f19457468657265756d205369676e6564204d6573736167653a0a333200000000602080830191909152603c80830185905283518084039091018152605c909201928390528151600093918291908401908083835b6020831061142b5780518252601f19909201916020918201910161140c565b5181516020939093036101000a6000190180199091169216919091179052604051920182900390912095945050505050565b60006114698484611503565b600160a060020a031682600160a060020a03161490509392505050565b600160a060020a038116151561149b57600080fd5b60008054604051600160a060020a03808516939216917f8be0079c531659141344cd1fd0a4f28419497f9722a3daafe3b4186f6b6457e091a36000805473ffffffffffffffffffffffffffffffffffffffff1916600160a060020a0392909216919091179055565b6000806000808451604114151561151d57600093506115cf565b50505060208201516040830151606084015160001a601b60ff8216101561154257601b015b8060ff16601b1415801561155a57508060ff16601c14155b1561156857600093506115cf565b60408051600080825260208083018085528a905260ff8516838501526060830187905260808301869052925160019360a0808501949193601f19840193928390039091019190865af11580156115c2573d6000803e3d6000fd5b5050506020604051035193505b50505092915050565b828054828255906000526020600020908101928215611615579160200282015b8281111561161557825182556020909201916001909101906115f8565b5061162192915061175a565b5090565b828054828255906000526020600020908101928215611672579160200282015b8281111561167257825180516116629184916020909101906116ec565b5091602001919060010190611645565b50611621929150611774565b8280548282559060005260206000209081019282156116e0579160200282015b828111156116e0578251825473ffffffffffffffffffffffffffffffffffffffff1916600160a060020a0390911617825560209092019160019091019061169e565b50611621929150611797565b828054600181600116156101000203166002900490600052602060002090601f016020900481019282601f1061172d57805160ff1916838001178555611615565b82800160010185558215611615579182015b8281111561161557825182559160200191906001019061173f565b610d8091905b808211156116215760008155600101611760565b610d8091905b8082111561162157600061178e82826117c8565b5060010161177a565b610d8091905b8082111561162157805473ffffffffffffffffffffffffffffffffffffffff1916815560010161179d565b50805460018160011615610100020316600290046000825580601f106117ee5750611177565b601f016020900490600052602060002090810190611177919061175a5600a165627a7a72305820e81fc92a1a89b36645c7c6be2d24a4f94f2cdc87207e344f7caeac6d2834ab6f0029",
  "source": "pragma solidity ^0.4.25;\n\nimport 'openzeppelin-solidity/contracts/cryptography/ECDSA.sol';\nimport 'openzeppelin-solidity/contracts/ownership/Ownable.sol';\nimport './Registry.sol';\n\n/**\n@title Fitchain Gossipers Pool Contract\n@author Team: Fitchain Team\n*/\n\ncontract GossipersPool is Ownable {\n\n    // lighting channels\n    struct Channel {\n        bool state;\n        address owner;\n        bytes32 proof;\n        address[] gossipers;\n    }\n\n    // proof of training\n    struct Proof {\n        bool isVerified;\n        uint256 MofNSigs; // M of (N=channel[channelId].verifers.length) verified signatures for the same proof\n        bytes32 channelId;\n        bytes32[] results;\n        bytes32[] proofHashs;\n        bytes[] signatures;\n    }\n\n    // contract settings (only VPC contract owner)\n    struct GPCsettings {\n        uint256  minKGossipers;\n        uint256  maxKGossipers;\n        uint256  minStake;\n    }\n\n    mapping(bytes32 => Channel) channels;\n    mapping(bytes32 => Proof) proofs;\n    mapping(address => GPCsettings) settings;\n\n    Registry private registry;\n\n    // events\n    event ChannelInitialized(bytes32 channelId, address[] gossipers, bytes32 proofId);\n    event PoTSubmitted(bytes32 channelId, bytes32 proofId, address verifier, bytes32 proofHash);\n    event PoTValidated(bytes32 channelId, bytes32 proofId);\n\n\n    // access control modifiers\n    modifier requireKGossipers(uint256 KGossipers, uint256 mOfN) {\n        require(settings[address(this)].minKGossipers <= KGossipers, 'indicating small number of gossipers');\n        require(settings[address(this)].maxKGossipers >= KGossipers, 'indicating large number of gossipers');\n        require(getAvailableGossipers().length >= KGossipers, 'K gossipers are not available');\n        require(KGossipers >= mOfN, 'Invalid channel initialization input parameters');\n        _;\n    }\n\n    modifier isValidChannelId(bytes32 channelId) {\n        require(!channels[channelId].state, 'Channel already exists');\n        _;\n    }\n\n    modifier isValidStake(){\n        require(msg.value >= settings[address(this)].minStake);\n        _;\n    }\n\n    modifier canVerify(bytes32 channelId) {\n        bool state = false;\n        for(uint256 i=0; i< channels[channelId].gossipers.length; i++){\n            if(msg.sender == channels[channelId].gossipers[i]) state=true;\n        }\n        require(state, 'unable to verify the proof, access denied!');\n        _;\n    }\n\n    modifier isPotValidated(bytes32 channelId) {\n        require(proofs[channels[channelId].proof].isVerified, 'Unable to terminate channel, PoT not validated yet!');\n        _;\n    }\n\n    // init VPC settings\n    constructor(uint256 _minKGossipers, uint256 _maxKGossipers, uint256 _minStake, address _registry) public {\n        require(_registry != address(0), 'Invalid registry contract address');\n        settings[address(this)] = GPCsettings(_minKGossipers, _maxKGossipers, _minStake);\n        registry = Registry(_registry);\n    }\n\n    function getAvailableGossipers() private view returns(address[]){\n        return registry.getAvaliableRegistrantsByType(address(this));\n    }\n\n    function getKGossipers(bytes32 channelId, uint256 K) private returns(uint256){\n        address [] memory gossipersSet = getAvailableGossipers();\n        for(uint256 i=0; i< K; i++){\n            channels[channelId].gossipers.push(gossipersSet[i]);\n            // TODO: decrease the number of the available slots for the gossiper\n            registry.decrementActorSlots(gossipersSet[i]);\n        }\n        return channels[channelId].gossipers.length;\n    }\n\n\n    function initChannel(bytes32 channelId, uint256 KVerifiers, uint256 mOfN, address owner) public requireKGossipers(KVerifiers, mOfN) isValidChannelId(channelId) returns(bool) {\n        bytes32 proofId = keccak256(abi.encodePacked(channelId, block.number, msg.sender));\n        proofs[proofId] = Proof(false, mOfN, channelId, new bytes32[](0), new bytes32[](0), new bytes[](0));\n        channels[channelId] = Channel(true, owner, proofId,new address[](0));\n        // TODO: set state of the verifier to 1 (busy)\n        require(getKGossipers(channelId, KVerifiers) == KVerifiers , 'Unable to initialize channel');\n        emit ChannelInitialized(channelId, channels[channelId].gossipers, proofId);\n        return true;\n    }\n\n    function terminateChannel(bytes32 channelId) public isPotValidated(channelId) returns(bool) {\n        channels[channelId].state = false;\n        return true;\n    }\n\n    function getChannelVerifiers(bytes32 channelId) public view returns(address[]) {\n        return channels[channelId].gossipers;\n    }\n\n    function getChannelByProofId(bytes32 proofId) public view returns(bytes32) {\n        return proofs[proofId].channelId;\n    }\n\n    function getProofIdByChannelId(bytes32 channelId) public view returns(bytes32) {\n        return channels[channelId].proof;\n    }\n\n    function getProof(bytes32 proofId) public view returns(bool, bytes32, bytes32[]) {\n        return (proofs[proofId].isVerified, proofs[proofId].channelId, proofs[proofId].proofHashs);\n    }\n\n\n    function isValidSignature(bytes32 hash, bytes signature, address gossiper) private pure returns (bool){\n        return (gossiper == ECDSA.recover(hash, signature));\n    }\n\n    function submitProof(bytes32 channelId, string eot, bytes32[] merkleroot, bytes signature, bytes32 result) public canVerify(channelId) returns(bool) {\n        bytes32 prefixedHash = ECDSA.toEthSignedMessageHash(keccak256(abi.encodePacked(channelId, merkleroot, eot, result)));\n        if(isValidSignature(prefixedHash, signature, msg.sender)){\n                proofs[channels[channelId].proof].signatures.push(signature);\n                proofs[channels[channelId].proof].proofHashs.push(prefixedHash);\n                proofs[channels[channelId].proof].results.push(result);\n                emit PoTSubmitted(channelId, channels[channelId].proof, msg.sender, prefixedHash);\n                return true;\n        }\n        return false;\n    }\n\n    function validateProof(bytes32 channelId) public returns (bool){\n        uint256 kValidProofs = 0;\n        for(uint256 i=0; i<proofs[channels[channelId].proof].signatures.length; i++){\n            if(i < proofs[channels[channelId].proof].signatures.length -1){\n                if(proofs[channels[channelId].proof].proofHashs[i] == proofs[channels[channelId].proof].proofHashs[i+1]) {\n                    kValidProofs +=1;\n                }\n            }\n        }\n        if(proofs[channels[channelId].proof].MofNSigs == kValidProofs) {\n            proofs[channels[channelId].proof].isVerified = true;\n            // free gossipers\n            for (uint j=0; j < channels[channelId].gossipers.length; j++){\n                registry.incrementActorSlots(channels[channelId].gossipers[i]);\n                //TODO: free the gossiper stake\n            }\n            emit PoTValidated(channelId, channels[channelId].proof);\n            return true;\n        }\n        return false;\n    }\n}",
  "sourcePath": "/Users/ahmed/Documents/github_projects/aabdulwahed/fitchain-contracts/contracts/GossipersPool.sol",
  "compiler": {
    "name": "solc",
    "version": "0.4.25+commit.59dbf8f1.Emscripten.clang"
  },
  "schemaVersion": "3.0.0-beta.0",
  "updatedAt": "2018-11-17T10:22:13.761Z"
}