{
  "contractName": "GossipersPool",
  "abi": [
    {
      "inputs": [
        {
          "name": "_registryAddress",
          "type": "address"
        },
        {
          "name": "_minKGossipers",
          "type": "uint256"
        },
        {
          "name": "_maxKGossipers",
          "type": "uint256"
        },
        {
          "name": "_minStake",
          "type": "uint256"
        }
      ],
      "payable": false,
      "stateMutability": "nonpayable",
      "type": "constructor"
    },
    {
      "anonymous": false,
      "inputs": [
        {
          "indexed": false,
          "name": "channelId",
          "type": "bytes32"
        },
        {
          "indexed": false,
          "name": "gossipers",
          "type": "address[]"
        },
        {
          "indexed": false,
          "name": "proofId",
          "type": "bytes32"
        }
      ],
      "name": "ChannelInitialized",
      "type": "event"
    },
    {
      "anonymous": false,
      "inputs": [
        {
          "indexed": false,
          "name": "channelId",
          "type": "bytes32"
        },
        {
          "indexed": false,
          "name": "proofId",
          "type": "bytes32"
        },
        {
          "indexed": false,
          "name": "verifier",
          "type": "address"
        },
        {
          "indexed": false,
          "name": "proofHash",
          "type": "bytes32"
        }
      ],
      "name": "PoTSubmitted",
      "type": "event"
    },
    {
      "anonymous": false,
      "inputs": [
        {
          "indexed": false,
          "name": "channelId",
          "type": "bytes32"
        },
        {
          "indexed": false,
          "name": "proofId",
          "type": "bytes32"
        },
        {
          "indexed": false,
          "name": "state",
          "type": "bool"
        },
        {
          "indexed": false,
          "name": "submittedProofs",
          "type": "uint256"
        }
      ],
      "name": "PoTValidated",
      "type": "event"
    },
    {
      "constant": false,
      "inputs": [
        {
          "name": "amount",
          "type": "uint256"
        },
        {
          "name": "slots",
          "type": "uint256"
        }
      ],
      "name": "registerGossiper",
      "outputs": [
        {
          "name": "",
          "type": "bool"
        }
      ],
      "payable": false,
      "stateMutability": "nonpayable",
      "type": "function"
    },
    {
      "constant": true,
      "inputs": [
        {
          "name": "gossiper",
          "type": "address"
        }
      ],
      "name": "isRegisteredGossiper",
      "outputs": [
        {
          "name": "",
          "type": "bool"
        }
      ],
      "payable": false,
      "stateMutability": "view",
      "type": "function"
    },
    {
      "constant": false,
      "inputs": [],
      "name": "deregisterGossiper",
      "outputs": [
        {
          "name": "",
          "type": "bool"
        }
      ],
      "payable": false,
      "stateMutability": "nonpayable",
      "type": "function"
    },
    {
      "constant": true,
      "inputs": [],
      "name": "getAvailableGossipers",
      "outputs": [
        {
          "name": "",
          "type": "address[]"
        }
      ],
      "payable": false,
      "stateMutability": "view",
      "type": "function"
    },
    {
      "constant": false,
      "inputs": [
        {
          "name": "channelId",
          "type": "bytes32"
        },
        {
          "name": "KGossipers",
          "type": "uint256"
        },
        {
          "name": "mOfN",
          "type": "uint256"
        },
        {
          "name": "owner",
          "type": "address"
        }
      ],
      "name": "initChannel",
      "outputs": [
        {
          "name": "",
          "type": "bool"
        }
      ],
      "payable": false,
      "stateMutability": "nonpayable",
      "type": "function"
    },
    {
      "constant": false,
      "inputs": [
        {
          "name": "channelId",
          "type": "bytes32"
        }
      ],
      "name": "terminateChannel",
      "outputs": [
        {
          "name": "",
          "type": "bool"
        }
      ],
      "payable": false,
      "stateMutability": "nonpayable",
      "type": "function"
    },
    {
      "constant": true,
      "inputs": [
        {
          "name": "channelId",
          "type": "bytes32"
        }
      ],
      "name": "getChannelGossipers",
      "outputs": [
        {
          "name": "",
          "type": "address[]"
        }
      ],
      "payable": false,
      "stateMutability": "view",
      "type": "function"
    },
    {
      "constant": true,
      "inputs": [
        {
          "name": "proofId",
          "type": "bytes32"
        }
      ],
      "name": "getChannelByProofId",
      "outputs": [
        {
          "name": "",
          "type": "bytes32"
        }
      ],
      "payable": false,
      "stateMutability": "view",
      "type": "function"
    },
    {
      "constant": true,
      "inputs": [
        {
          "name": "channelId",
          "type": "bytes32"
        }
      ],
      "name": "getProofIdByChannelId",
      "outputs": [
        {
          "name": "",
          "type": "bytes32"
        }
      ],
      "payable": false,
      "stateMutability": "view",
      "type": "function"
    },
    {
      "constant": true,
      "inputs": [
        {
          "name": "channelId",
          "type": "bytes32"
        }
      ],
      "name": "getProof",
      "outputs": [
        {
          "name": "",
          "type": "bool"
        },
        {
          "name": "",
          "type": "bytes32"
        },
        {
          "name": "",
          "type": "bytes32[]"
        }
      ],
      "payable": false,
      "stateMutability": "view",
      "type": "function"
    },
    {
      "constant": true,
      "inputs": [
        {
          "name": "channelId",
          "type": "bytes32"
        }
      ],
      "name": "isValidProof",
      "outputs": [
        {
          "name": "",
          "type": "bool"
        }
      ],
      "payable": false,
      "stateMutability": "view",
      "type": "function"
    },
    {
      "constant": false,
      "inputs": [
        {
          "name": "channelId",
          "type": "bytes32"
        },
        {
          "name": "eot",
          "type": "string"
        },
        {
          "name": "merkleroot",
          "type": "bytes32[]"
        },
        {
          "name": "signature",
          "type": "bytes"
        },
        {
          "name": "result",
          "type": "bytes32"
        }
      ],
      "name": "submitProof",
      "outputs": [
        {
          "name": "",
          "type": "bool"
        }
      ],
      "payable": false,
      "stateMutability": "nonpayable",
      "type": "function"
    },
    {
      "constant": false,
      "inputs": [
        {
          "name": "channelId",
          "type": "bytes32"
        }
      ],
      "name": "validateProof",
      "outputs": [
        {
          "name": "",
          "type": "bool"
        }
      ],
      "payable": false,
      "stateMutability": "nonpayable",
      "type": "function"
    },
    {
      "constant": true,
      "inputs": [
        {
          "name": "channelId",
          "type": "bytes32"
        }
      ],
      "name": "getChannelOwner",
      "outputs": [
        {
          "name": "",
          "type": "address"
        }
      ],
      "payable": false,
      "stateMutability": "view",
      "type": "function"
    },
    {
      "constant": true,
      "inputs": [
        {
          "name": "channelId",
          "type": "bytes32"
        }
      ],
      "name": "isChannelTerminated",
      "outputs": [
        {
          "name": "",
          "type": "bool"
        }
      ],
      "payable": false,
      "stateMutability": "view",
      "type": "function"
    }
  ],
  "bytecode": "0x608060405234801561001057600080fd5b50604051608080611e3f8339810160409081528151602083015191830151606090930151909290600160a060020a03841615156100d457604080517f08c379a000000000000000000000000000000000000000000000000000000000815260206004820152602160248201527f696e76616c696420726567697374727920636f6e74726163742061646472657360448201527f7300000000000000000000000000000000000000000000000000000000000000606482015290519081900360840190fd5b6040805160608101825293845260208085019384528482019283523060009081526002918290529190912093518455915160018401555191015560038054600160a060020a0392909216600160a060020a0319909216919091179055611d008061013f6000396000f3006080604052600436106100c05763ffffffff60e060020a600035041662ad775881146100c55780631b80bb3a146100f457806330dee48a14610171578063510faf3f146101865780635c4f56d6146101b057806366b4d5c2146101da57806367ee157b146101fb57806380ffa69d146102635780639b5016461461027b5780639d79573d14610293578063ab1f95121461036a578063aba60a7014610382578063be0bd659146103b6578063cd294a6d146103cb578063eada966a146103e3575b600080fd5b3480156100d157600080fd5b506100e06004356024356103fb565b604080519115158252519081900360200190f35b34801561010057600080fd5b5061010c600435610547565b6040805184151581526020808201859052606092820183815284519383019390935283519192916080840191858101910280838360005b8381101561015b578181015183820152602001610143565b5050505090500194505050505060405180910390f35b34801561017d57600080fd5b506100e06105d6565b34801561019257600080fd5b506100e0600435602435604435600160a060020a03606435166106f3565b3480156101bc57600080fd5b506101c8600435610dda565b60408051918252519081900360200190f35b3480156101e657600080fd5b506100e0600160a060020a0360043516610df2565b34801561020757600080fd5b50610213600435610eee565b60408051602080825283518183015283519192839290830191858101910280838360005b8381101561024f578181015183820152602001610237565b505050509050019250505060405180910390f35b34801561026f57600080fd5b506100e0600435610f5b565b34801561028757600080fd5b506100e0600435611229565b34801561029f57600080fd5b5060408051602060046024803582810135601f81018590048502860185019096528585526100e0958335953695604494919390910191908190840183828082843750506040805187358901803560208181028481018201909552818452989b9a99890198929750908201955093508392508501908490808284375050604080516020601f89358b018035918201839004830284018301909452808352979a99988101979196509182019450925082915084018382808284375094975050933594506112509350505050565b34801561037657600080fd5b506100e0600435611547565b34801561038e57600080fd5b5061039a600435611627565b60408051600160a060020a039092168252519081900360200190f35b3480156103c257600080fd5b50610213611647565b3480156103d757600080fd5b506100e0600435611736565b3480156103ef57600080fd5b506101c8600435611759565b30600090815260026020819052604082200154839081101561041c57600080fd5b600354604080516c010000000000000000000000003002602080830191909152825180830360140181526034909201928390528151600160a060020a039094169363a7e7c09f9333938993909282918401908083835b602083106104915780518252601f199092019160209182019101610472565b51815160209384036101000a60001901801990921691161790526040805192909401829003822063ffffffff8a1660e060020a028352600160a060020a039890981660048301526024820196909652604481019690965250606485018b9052516084808601959193509083900301905081600087803b15801561051357600080fd5b505af1158015610527573d6000803e3d6000fd5b505050506040513d602081101561053d57600080fd5b5051949350505050565b6000818152602081815260408083206001908101548085529083528184208054600282015460049092018054855181880281018801909652808652879660609660ff90941694939183918301828280156105c157602002820191906000526020600020905b815481526001909101906020018083116105ac575b50505050509050935093509350509193909250565b600354604080516c010000000000000000000000003002602080830191909152825180830360140181526034909201928390528151600094600160a060020a031693635cfcdbc5933393909282918401908083835b6020831061064a5780518252601f19909201916020918201910161062b565b51815160001960209485036101000a019081169019919091161790526040805194909201849003842060e060020a63ffffffff8a16028552600160a060020a039097166004850152602484019690965251604480840196955090935091839003909101905081600087803b1580156106c157600080fd5b505af11580156106d5573d6000803e3d6000fd5b505050506040513d60208110156106eb57600080fd5b505190505b90565b306000908152600260205260408120548190819086908690821015610787576040805160e560020a62461bcd028152602060048201526024808201527f696e6469636174696e6720736d616c6c206e756d626572206f6620676f73736960448201527f7065727300000000000000000000000000000000000000000000000000000000606482015290519081900360840190fd5b30600090815260026020526040902060010154821115610816576040805160e560020a62461bcd028152602060048201526024808201527f696e6469636174696e67206c61726765206e756d626572206f6620676f73736960448201527f7065727300000000000000000000000000000000000000000000000000000000606482015290519081900360840190fd5b8161081f611647565b511015610876576040805160e560020a62461bcd02815260206004820152601d60248201527f4b20676f7373697065727320617265206e6f7420617661696c61626c65000000604482015290519081900360640190fd5b808210156108f4576040805160e560020a62461bcd02815260206004820152602f60248201527f496e76616c6964206368616e6e656c20696e697469616c697a6174696f6e206960448201527f6e70757420706172616d65746572730000000000000000000000000000000000606482015290519081900360840190fd5b600089815260208190526040902054899060ff161561095d576040805160e560020a62461bcd02815260206004820152601660248201527f4368616e6e656c20616c72656164792065786973747300000000000000000000604482015290519081900360640190fd5b6040805160208082018d905243828401526c010000000000000000000000003302606083015282516054818403018152607490920192839052815191929182918401908083835b602083106109c35780518252601f1990920191602091820191016109a4565b6001836020036101000a0380198251168184511680821785525050505050509050019150506040518091039020945060c0604051908101604052806000151581526020018981526020018b6000191681526020016000604051908082528060200260200182016040528015610a42578160200160208202803883390190505b5081526020016000604051908082528060200260200182016040528015610a73578160200160208202803883390190505b5081526020016000604051908082528060200260200182016040528015610aae57816020015b6060815260200190600190039081610a995790505b5090526000868152600160208181526040928390208451815460ff19169015151781558482015192810192909255918301516002820155606083015180519192610b0092600385019290910190611a9d565b5060808201518051610b1c916004840191602090910190611a9d565b5060a08201518051610b38916005840191602090910190611aea565b50506040805160808101825260018152600160a060020a038a166020808301919091528183018990528251600080825291810190935290925060608301919050905260008b815260208181526040918290208351815485840151600160a060020a03166101000274ffffffffffffffffffffffffffffffffffffffff001992151560ff19909216919091179190911617815591830151600183015560608301518051610bea9260028501920190611b43565b5090505088610bf98b8b61176e565b14610c4e576040805160e560020a62461bcd02815260206004820152601c60248201527f556e61626c6520746f20696e697469616c697a65206368616e6e656c00000000604482015290519081900360640190fd5b600093505b60008a815260208190526040902060020154841015610d265760035460008b81526020819052604090206002018054600160a060020a039092169163149fe509919087908110610c9f57fe5b60009182526020808320909101546040805160e060020a63ffffffff8716028152600160a060020a0390921660048301525160248083019491928390030190829087803b158015610cef57600080fd5b505af1158015610d03573d6000803e3d6000fd5b505050506040513d6020811015610d1957600080fd5b5050600190930192610c53565b60008a8152602081815260409182902082518d81529283018890526060918301828152600290910180549284018390527f36c173d71e50ea0e4b1999ea6792fd7db8317f4553e0b077d956c0042a1f3e9e938e9391928a92608083019085908015610dba57602002820191906000526020600020905b8154600160a060020a03168152600190910190602001808311610d9c575b505094505050505060405180910390a15060019998505050505050505050565b6000818152602081905260409020600101545b919050565b6000600160a060020a0382161515610e54576040805160e560020a62461bcd02815260206004820152601860248201527f696e76616c696420676f73736970657220616464726573730000000000000000604482015290519081900360640190fd5b600354604080517f2bc6aa4e000000000000000000000000000000000000000000000000000000008152600160a060020a03858116600483015291519190921691632bc6aa4e9160248083019260209291908290030181600087803b158015610ebc57600080fd5b505af1158015610ed0573d6000803e3d6000fd5b505050506040513d6020811015610ee657600080fd5b505192915050565b60008181526020818152604091829020600201805483518184028101840190945280845260609392830182828015610f4f57602002820191906000526020600020905b8154600160a060020a03168152600190910190602001808311610f31575b50505050509050919050565b600080805b60008481526020818152604080832060019081015484529091529020600501548110156110ba5760008481526020818152604080832060019081015484529091529020600501546000190181101561103557600084815260208181526040808320600190810154845291829052909120600401805490918301908110610fe257fe5b600091825260208083209091015486835282825260408084206001908101548552909252912060040180548390811061101757fe5b6000918252602090912001541415611030576001820191505b6110b2565b600084815260208181526040808320600190810154845290915290206004018054600019830190811061106457fe5b600091825260208083209091015486835282825260408084206001908101548552909252912060040180548390811061109957fe5b60009182526020909120015414156110b2576001820191505b600101610f60565b600084815260208181526040808320600190810154845291829052909120015482106111c757600084815260208181526040808320600190810154845291829052909120805460ff1916909117905561111284611818565b1515611168576040805160e560020a62461bcd02815260206004820152601660248201527f756e61626c6520746f2066726565206368616e6e656c00000000000000000000604482015290519081900360640190fd5b60008481526020818152604091829020600190810154835188815292830152818301526060810184905290517f8a7a0f598bf2f32299dd79a8ac34cf83be246961287f45b46addff4dff3c791d9181900360800190a160019250611222565b60008481526020818152604080832060010154815188815292830152818101929092526060810184905290517f8a7a0f598bf2f32299dd79a8ac34cf83be246961287f45b46addff4dff3c791d9181900360800190a1600092505b5050919050565b60008181526020819052604081205460ff161561124857506000610ded565b506001919050565b6000808681805b6000838152602081905260409020600201548110156112b657600083815260208190526040902060020180548290811061128d57fe5b600091825260209091200154600160a060020a03163314156112ae57600191505b600101611257565b811515611333576040805160e560020a62461bcd02815260206004820152602a60248201527f756e61626c6520746f20766572696679207468652070726f6f662c206163636560448201527f73732064656e6965642100000000000000000000000000000000000000000000606482015290519081900360840190fd5b61143e8a898b89604051602001808560001916600019168152602001848051906020019060200280838360005b83811015611378578181015183820152602001611360565b5050505090500183805190602001908083835b602083106113aa5780518252601f19909201916020918201910161138b565b51815160209384036101000a6000190180199092169116179052920193845250604080518085038152938201908190528351939650945084935085019190508083835b6020831061140c5780518252601f1990920191602091820191016113ed565b6001836020036101000a03801982511681845116808217855250505050505090500191505060405180910390206118f5565b935061144b84883361199f565b156115355760008a81526020818152604080832060019081015484528083529083206005018054918201808255908452928290208a51611493939190920191908b0190611bb1565b505060008a8152602081815260408083206001908101805485528184528285206004018054808401825590865284862001899055805485528285206003018054928301815585528385209091018a90558d8452928252915482518d81529182015233818301526060810186905290517fffc4fa195561c386370c6b19cfeeee0782fc3dd14043d76ca1c746f922ff25cd9181900360800190a16001945061153a565b600094505b5050505095945050505050565b6000818152602081815260408083206001908101548452909152812054829060ff1615156115e5576040805160e560020a62461bcd02815260206004820152603360248201527f556e61626c6520746f207465726d696e617465206368616e6e656c2c20506f5460448201527f206e6f742076616c696461746564207965742100000000000000000000000000606482015290519081900360840190fd5b60008381526020819052604090205460ff1615156116065760019150611621565b6000838152602081905260409020805460ff19169055600191505b50919050565b6000908152602081905260409020546101009004600160a060020a031690565b600354604080517f29d8e19b0000000000000000000000000000000000000000000000000000000081529051606092600160a060020a0316916329d8e19b91600480830192600092919082900301818387803b1580156116a657600080fd5b505af11580156116ba573d6000803e3d6000fd5b505050506040513d6000823e601f3d908101601f1916820160405260208110156116e357600080fd5b8101908080516401000000008111156116fb57600080fd5b8201602081018481111561170e57600080fd5b815185602082028301116401000000008211171561172b57600080fd5b509094505050505090565b600090815260208181526040808320600190810154845290915290205460ff1690565b60009081526001602052604090206002015490565b60006060600061177c611647565b9150600090505b838110156117ff57600085815260208190526040902082516002909101908390839081106117ad57fe5b602090810291909101810151825460018082018555600094855292909320909201805473ffffffffffffffffffffffffffffffffffffffff1916600160a060020a039093169290921790915501611783565b5050506000918252506020819052604090206002015490565b6000805b6000838152602081905260409020600201548110156118ec5760035460008481526020819052604090206002018054600160a060020a039092169163772279dd91908490811061186857fe5b60009182526020808320909101546040805160e060020a63ffffffff8716028152600160a060020a0390921660048301525160248083019491928390030190829087803b1580156118b857600080fd5b505af11580156118cc573d6000803e3d6000fd5b505050506040513d60208110156118e257600080fd5b505060010161181c565b50600192915050565b604080517f19457468657265756d205369676e6564204d6573736167653a0a333200000000602080830191909152603c80830185905283518084039091018152605c909201928390528151600093918291908401908083835b6020831061196d5780518252601f19909201916020918201910161194e565b5181516020939093036101000a6000190180199091169216919091179052604051920182900390912095945050505050565b60006119ab84846119c8565b600160a060020a031682600160a060020a03161490509392505050565b600080600080845160411415156119e25760009350611a94565b50505060208201516040830151606084015160001a601b60ff82161015611a0757601b015b8060ff16601b14158015611a1f57508060ff16601c14155b15611a2d5760009350611a94565b60408051600080825260208083018085528a905260ff8516838501526060830187905260808301869052925160019360a0808501949193601f19840193928390039091019190865af1158015611a87573d6000803e3d6000fd5b5050506020604051035193505b50505092915050565b828054828255906000526020600020908101928215611ada579160200282015b82811115611ada5782518255602090920191600190910190611abd565b50611ae6929150611c1f565b5090565b828054828255906000526020600020908101928215611b37579160200282015b82811115611b375782518051611b27918491602090910190611bb1565b5091602001919060010190611b0a565b50611ae6929150611c39565b828054828255906000526020600020908101928215611ba5579160200282015b82811115611ba5578251825473ffffffffffffffffffffffffffffffffffffffff1916600160a060020a03909116178255602090920191600190910190611b63565b50611ae6929150611c5c565b828054600181600116156101000203166002900490600052602060002090601f016020900481019282601f10611bf257805160ff1916838001178555611ada565b82800160010185558215611ada579182015b82811115611ada578251825591602001919060010190611c04565b6106f091905b80821115611ae65760008155600101611c25565b6106f091905b80821115611ae6576000611c538282611c8d565b50600101611c3f565b6106f091905b80821115611ae657805473ffffffffffffffffffffffffffffffffffffffff19168155600101611c62565b50805460018160011615610100020316600290046000825580601f10611cb35750611cd1565b601f016020900490600052602060002090810190611cd19190611c1f565b505600a165627a7a723058207266b2b4b3ef4e88ad585548ff4315c6a5f79f55ae656c1d96a1060a4f12067d0029",
  "source": "pragma solidity ^0.4.25;\n\nimport 'openzeppelin-solidity/contracts/cryptography/ECDSA.sol';\nimport './FitchainRegistry.sol';\n\n/**\n@title Fitchain Gossipers Pool Contract\n@author Team: Fitchain Team\n*/\n\ncontract GossipersPool {\n\n    // lighting channels\n    struct Channel {\n        bool state;\n        address owner;\n        bytes32 proof;\n        address[] gossipers;\n    }\n\n    // proof of training\n    struct Proof {\n        bool isVerified;\n        uint256 MofNSigs;\n        bytes32 channelId;\n        bytes32[] results;\n        bytes32[] proofHashs;\n        bytes[] signatures;\n    }\n\n    // contract settings (only VPC contract owner)\n    struct GPCsettings {\n        uint256  minKGossipers;\n        uint256  maxKGossipers;\n        uint256  minStake;\n    }\n\n    mapping(bytes32 => Channel) channels;\n    mapping(bytes32 => Proof) proofs;\n    mapping(address => GPCsettings) settings;\n    FitchainRegistry private registry;\n\n\n\n    // events\n    event ChannelInitialized(bytes32 channelId, address[] gossipers, bytes32 proofId);\n    event PoTSubmitted(bytes32 channelId, bytes32 proofId, address verifier, bytes32 proofHash);\n    event PoTValidated(bytes32 channelId, bytes32 proofId, bool state, uint256 submittedProofs);\n\n    // access control modifiers\n    modifier requireKGossipers(uint256 KGossipers, uint256 mOfN) {\n        require(settings[address(this)].minKGossipers <= KGossipers, 'indicating small number of gossipers');\n        require(settings[address(this)].maxKGossipers >= KGossipers, 'indicating large number of gossipers');\n        require(getAvailableGossipers().length >= KGossipers, 'K gossipers are not available');\n        require(KGossipers >= mOfN, 'Invalid channel initialization input parameters');\n        _;\n    }\n\n    modifier isValidChannelId(bytes32 channelId) {\n        require(!channels[channelId].state, 'Channel already exists');\n        _;\n    }\n\n    modifier onlyValidStake(uint256 amount){\n        require(amount >= settings[address(this)].minStake);\n        _;\n    }\n\n    modifier canVerify(bytes32 channelId) {\n        bool state = false;\n        for(uint256 i=0; i< channels[channelId].gossipers.length; i++){\n            if(msg.sender == channels[channelId].gossipers[i]) state=true;\n        }\n        require(state, 'unable to verify the proof, access denied!');\n        _;\n    }\n\n    modifier isPotValidated(bytes32 channelId) {\n        require(proofs[channels[channelId].proof].isVerified, 'Unable to terminate channel, PoT not validated yet!');\n        _;\n    }\n\n    // init GPC settings\n    constructor(address _registryAddress, uint256 _minKGossipers, uint256 _maxKGossipers, uint256 _minStake) public {\n        require(_registryAddress != address(0), 'invalid registry contract address');\n        settings[address(this)] = GPCsettings(_minKGossipers, _maxKGossipers, _minStake);\n        registry = FitchainRegistry(_registryAddress);\n    }\n\n    function registerGossiper(uint256 amount, uint256 slots) public onlyValidStake(amount) returns(bool){\n        return registry.register(msg.sender, slots, keccak256(abi.encodePacked(address(this))), amount);\n    }\n\n    function isRegisteredGossiper(address gossiper) public view returns(bool){\n        require(gossiper != address(0), 'invalid gossiper address');\n        return registry.isActorRegistered(gossiper);\n    }\n\n    function deregisterGossiper() public returns(bool){\n        return registry.deregister(msg.sender,  keccak256(abi.encodePacked(address(this))));\n    }\n\n    function getAvailableGossipers() public view returns(address[]){\n        return registry.getAvaliableRegistrants();\n    }\n\n    function getKGossipers(bytes32 channelId, uint256 K) private returns(uint256){\n        address[] memory gossipersSet = getAvailableGossipers();\n        for(uint256 i=0; i< K; i++){\n            channels[channelId].gossipers.push(gossipersSet[i]);\n        }\n        return channels[channelId].gossipers.length;\n    }\n\n\n    function initChannel(bytes32 channelId, uint256 KGossipers, uint256 mOfN, address owner) public requireKGossipers(KGossipers, mOfN) isValidChannelId(channelId) returns(bool) {\n        bytes32 proofId = keccak256(abi.encodePacked(channelId, block.number, msg.sender));\n        proofs[proofId] = Proof(false, mOfN, channelId, new bytes32[](0), new bytes32[](0), new bytes[](0));\n        channels[channelId] = Channel(true, owner, proofId,new address[](0));\n        require(getKGossipers(channelId, KGossipers) == KGossipers , 'Unable to initialize channel');\n        for (uint256 i=0; i<channels[channelId].gossipers.length; i++){\n            registry.decrementActorSlots(channels[channelId].gossipers[i]);\n        }\n        emit ChannelInitialized(channelId, channels[channelId].gossipers, proofId);\n        return true;\n    }\n\n    function terminateChannel(bytes32 channelId) public isPotValidated(channelId) returns(bool) {\n        if(!channels[channelId].state) return true;\n        channels[channelId].state = false;\n        return true;\n    }\n\n    function getChannelGossipers(bytes32 channelId) public view returns(address[]) {\n        return channels[channelId].gossipers;\n    }\n\n    function getChannelByProofId(bytes32 proofId) public view returns(bytes32) {\n        return proofs[proofId].channelId;\n    }\n\n    function getProofIdByChannelId(bytes32 channelId) public view returns(bytes32) {\n        return channels[channelId].proof;\n    }\n\n    function getProof(bytes32 channelId) public view returns(bool, bytes32, bytes32[]) {\n        bytes32 proofId = channels[channelId].proof;\n        return (proofs[proofId].isVerified, proofs[proofId].channelId, proofs[proofId].proofHashs);\n    }\n\n    function isValidProof(bytes32 channelId) public view returns(bool) {\n        return proofs[channels[channelId].proof].isVerified;\n    }\n\n    function isValidSignature(bytes32 hash, bytes signature, address gossiper) private pure returns (bool){\n        return (gossiper == ECDSA.recover(hash, signature));\n    }\n\n    function submitProof(bytes32 channelId, string eot, bytes32[] merkleroot, bytes signature, bytes32 result) public canVerify(channelId) returns(bool) {\n        bytes32 prefixedHash = ECDSA.toEthSignedMessageHash(keccak256(abi.encodePacked(channelId, merkleroot, eot, result)));\n        if(isValidSignature(prefixedHash, signature, msg.sender)){\n            proofs[channels[channelId].proof].signatures.push(signature);\n            proofs[channels[channelId].proof].proofHashs.push(prefixedHash);\n            proofs[channels[channelId].proof].results.push(result);\n            emit PoTSubmitted(channelId, channels[channelId].proof, msg.sender, prefixedHash);\n            return true;\n        }\n        return false;\n    }\n\n    function freeChannelSlots(bytes32 channelId) private returns(bool){\n        for (uint j=0; j < channels[channelId].gossipers.length; j++){\n            registry.incrementActorSlots(channels[channelId].gossipers[j]);\n            //TODO: free the gossiper stake\n        }\n        return true;\n    }\n    function validateProof(bytes32 channelId) public returns (bool){\n        uint256 kValidProofs = 0;\n        for(uint256 i=0; i<proofs[channels[channelId].proof].signatures.length; i++){\n            if(i < proofs[channels[channelId].proof].signatures.length -1){\n                if(proofs[channels[channelId].proof].proofHashs[i] == proofs[channels[channelId].proof].proofHashs[i+1]) {\n                    kValidProofs +=1;\n                }\n            }else{\n                if(proofs[channels[channelId].proof].proofHashs[i] == proofs[channels[channelId].proof].proofHashs[i-1]){\n                    kValidProofs +=1;\n                }\n            }\n        }\n        if(proofs[channels[channelId].proof].MofNSigs <= kValidProofs) {\n            proofs[channels[channelId].proof].isVerified = true;\n            // free gossipers\n            require(freeChannelSlots(channelId), 'unable to free channel');\n            emit PoTValidated(channelId, channels[channelId].proof, true, kValidProofs);\n            return true;\n        }\n        emit PoTValidated(channelId, channels[channelId].proof, false, kValidProofs);\n        return false;\n    }\n\n    function getChannelOwner(bytes32 channelId) public view returns(address) {\n        return channels[channelId].owner;\n    }\n\n    function isChannelTerminated(bytes32 channelId) public view returns (bool) {\n        if (channels[channelId].state) return false;\n        return true;\n    }\n}",
  "sourcePath": "/Users/ahmed/Desktop/test/fitchain-contracts/contracts/GossipersPool.sol",
  "compiler": {
    "name": "solc",
    "version": "0.4.25+commit.59dbf8f1.Emscripten.clang"
  },
  "schemaVersion": "3.0.0-beta.0",
  "updatedAt": "2018-12-12T16:40:25.909Z"
}