{
  "contractName": "GossipersPool",
  "abi": [
    {
      "constant": false,
      "inputs": [],
      "name": "renounceOwnership",
      "outputs": [],
      "payable": false,
      "stateMutability": "nonpayable",
      "type": "function"
    },
    {
      "constant": true,
      "inputs": [],
      "name": "owner",
      "outputs": [
        {
          "name": "",
          "type": "address"
        }
      ],
      "payable": false,
      "stateMutability": "view",
      "type": "function"
    },
    {
      "constant": true,
      "inputs": [],
      "name": "isOwner",
      "outputs": [
        {
          "name": "",
          "type": "bool"
        }
      ],
      "payable": false,
      "stateMutability": "view",
      "type": "function"
    },
    {
      "constant": false,
      "inputs": [
        {
          "name": "newOwner",
          "type": "address"
        }
      ],
      "name": "transferOwnership",
      "outputs": [],
      "payable": false,
      "stateMutability": "nonpayable",
      "type": "function"
    },
    {
      "inputs": [
        {
          "name": "_minKVerifiers",
          "type": "uint256"
        },
        {
          "name": "_maxKVerifiers",
          "type": "uint256"
        },
        {
          "name": "_minStake",
          "type": "uint256"
        }
      ],
      "payable": false,
      "stateMutability": "nonpayable",
      "type": "constructor"
    },
    {
      "anonymous": false,
      "inputs": [
        {
          "indexed": false,
          "name": "verifier",
          "type": "address"
        }
      ],
      "name": "VerifierRegistered",
      "type": "event"
    },
    {
      "anonymous": false,
      "inputs": [
        {
          "indexed": false,
          "name": "verifeir",
          "type": "address"
        }
      ],
      "name": "VerifierDeregistered",
      "type": "event"
    },
    {
      "anonymous": false,
      "inputs": [
        {
          "indexed": false,
          "name": "channelId",
          "type": "bytes32"
        },
        {
          "indexed": false,
          "name": "verifiers",
          "type": "address[]"
        },
        {
          "indexed": false,
          "name": "proofId",
          "type": "bytes32"
        }
      ],
      "name": "ChannelInitialized",
      "type": "event"
    },
    {
      "anonymous": false,
      "inputs": [
        {
          "indexed": false,
          "name": "channelId",
          "type": "bytes32"
        },
        {
          "indexed": false,
          "name": "proofId",
          "type": "bytes32"
        },
        {
          "indexed": false,
          "name": "verifier",
          "type": "address"
        },
        {
          "indexed": false,
          "name": "proofHash",
          "type": "bytes32"
        }
      ],
      "name": "ProofOfTraining",
      "type": "event"
    },
    {
      "anonymous": false,
      "inputs": [
        {
          "indexed": false,
          "name": "channelId",
          "type": "bytes32"
        },
        {
          "indexed": false,
          "name": "proofId",
          "type": "bytes32"
        }
      ],
      "name": "PoTValidated",
      "type": "event"
    },
    {
      "anonymous": false,
      "inputs": [
        {
          "indexed": true,
          "name": "previousOwner",
          "type": "address"
        },
        {
          "indexed": true,
          "name": "newOwner",
          "type": "address"
        }
      ],
      "name": "OwnershipTransferred",
      "type": "event"
    },
    {
      "constant": false,
      "inputs": [],
      "name": "registerVerifier",
      "outputs": [
        {
          "name": "",
          "type": "bool"
        }
      ],
      "payable": true,
      "stateMutability": "payable",
      "type": "function"
    },
    {
      "constant": false,
      "inputs": [],
      "name": "deregisterVerifier",
      "outputs": [
        {
          "name": "",
          "type": "bool"
        }
      ],
      "payable": false,
      "stateMutability": "nonpayable",
      "type": "function"
    },
    {
      "constant": false,
      "inputs": [
        {
          "name": "channelId",
          "type": "bytes32"
        },
        {
          "name": "KVerifiers",
          "type": "uint256"
        },
        {
          "name": "mOfN",
          "type": "uint256"
        },
        {
          "name": "owner",
          "type": "address"
        }
      ],
      "name": "initChannel",
      "outputs": [
        {
          "name": "",
          "type": "bool"
        }
      ],
      "payable": false,
      "stateMutability": "nonpayable",
      "type": "function"
    },
    {
      "constant": false,
      "inputs": [
        {
          "name": "channelId",
          "type": "bytes32"
        }
      ],
      "name": "terminateChannel",
      "outputs": [
        {
          "name": "",
          "type": "bool"
        }
      ],
      "payable": false,
      "stateMutability": "nonpayable",
      "type": "function"
    },
    {
      "constant": true,
      "inputs": [
        {
          "name": "channelId",
          "type": "bytes32"
        }
      ],
      "name": "getChannelVerifiers",
      "outputs": [
        {
          "name": "",
          "type": "address[]"
        }
      ],
      "payable": false,
      "stateMutability": "view",
      "type": "function"
    },
    {
      "constant": true,
      "inputs": [
        {
          "name": "proofId",
          "type": "bytes32"
        }
      ],
      "name": "getChannelByProofId",
      "outputs": [
        {
          "name": "",
          "type": "bytes32"
        }
      ],
      "payable": false,
      "stateMutability": "view",
      "type": "function"
    },
    {
      "constant": true,
      "inputs": [],
      "name": "getMyCurrentChannel",
      "outputs": [
        {
          "name": "",
          "type": "bytes32"
        }
      ],
      "payable": false,
      "stateMutability": "view",
      "type": "function"
    },
    {
      "constant": true,
      "inputs": [
        {
          "name": "channelId",
          "type": "bytes32"
        }
      ],
      "name": "getProofIdByChannelId",
      "outputs": [
        {
          "name": "",
          "type": "bytes32"
        }
      ],
      "payable": false,
      "stateMutability": "view",
      "type": "function"
    },
    {
      "constant": true,
      "inputs": [
        {
          "name": "proofId",
          "type": "bytes32"
        }
      ],
      "name": "getProof",
      "outputs": [
        {
          "name": "",
          "type": "bool"
        },
        {
          "name": "",
          "type": "bytes32"
        },
        {
          "name": "",
          "type": "bytes32[]"
        }
      ],
      "payable": false,
      "stateMutability": "view",
      "type": "function"
    },
    {
      "constant": false,
      "inputs": [
        {
          "name": "channelId",
          "type": "bytes32"
        },
        {
          "name": "eot",
          "type": "string"
        },
        {
          "name": "merkleroot",
          "type": "bytes32[]"
        },
        {
          "name": "signature",
          "type": "bytes"
        },
        {
          "name": "result",
          "type": "bytes32"
        }
      ],
      "name": "submitProof",
      "outputs": [
        {
          "name": "",
          "type": "bool"
        }
      ],
      "payable": false,
      "stateMutability": "nonpayable",
      "type": "function"
    },
    {
      "constant": false,
      "inputs": [
        {
          "name": "channelId",
          "type": "bytes32"
        }
      ],
      "name": "validateProof",
      "outputs": [
        {
          "name": "",
          "type": "bool"
        }
      ],
      "payable": false,
      "stateMutability": "nonpayable",
      "type": "function"
    }
  ],
  "bytecode": "0x608060405234801561001057600080fd5b50604051606080611bc883398101604081815282516020840151919093015160008054600160a060020a031916331780825592939192600160a060020a0316917f8be0079c531659141344cd1fd0a4f28419497f9722a3daafe3b4186f6b6457e0908290a3604080516060810182529384526020808501938452848201928352306000908152600490915220925183559051600183015551600290910155611b0b806100bd6000396000f3006080604052600436106100da5763ffffffff7c01000000000000000000000000000000000000000000000000000000006000350416631b80bb3a81146100df5780632e77f3341461015c578063510faf3f146101c45780635c4f56d6146102025780636caeb2141461022c578063715018a61461024157806380ffa69d146102585780638da5cb5b146102705780638f32d59b146102a15780639d79573d146102b6578063ab1f95121461038d578063ea968a2d146103a5578063eada966a146103ad578063f2fde38b146103c5578063faff50b3146103e6575b600080fd5b3480156100eb57600080fd5b506100f76004356103fb565b6040805184151581526020808201859052606092820183815284519383019390935283519192916080840191858101910280838360005b8381101561014657818101518382015260200161012e565b5050505090500194505050505060405180910390f35b34801561016857600080fd5b5061017460043561047c565b60408051602080825283518183015283519192839290830191858101910280838360005b838110156101b0578181015183820152602001610198565b505050509050019250505060405180910390f35b3480156101d057600080fd5b506101ee600435602435604435600160a060020a03606435166104eb565b604080519115158252519081900360200190f35b34801561020e57600080fd5b5061021a600435610af3565b60408051918252519081900360200190f35b34801561023857600080fd5b506101ee610b08565b34801561024d57600080fd5b50610256610c78565b005b34801561026457600080fd5b506101ee600435610ce2565b34801561027c57600080fd5b50610285610f4d565b60408051600160a060020a039092168252519081900360200190f35b3480156102ad57600080fd5b506101ee610f5c565b3480156102c257600080fd5b5060408051602060046024803582810135601f81018590048502860185019096528585526101ee958335953695604494919390910191908190840183828082843750506040805187358901803560208181028481018201909552818452989b9a99890198929750908201955093508392508501908490808284375050604080516020601f89358b018035918201839004830284018301909452808352979a9998810197919650918201945092508291508401838280828437509497505093359450610f6d9350505050565b34801561039957600080fd5b506101ee6004356111f1565b6101ee6112ae565b3480156103b957600080fd5b5061021a600435611422565b3480156103d157600080fd5b50610256600160a060020a0360043516611437565b3480156103f257600080fd5b5061021a611456565b60008181526003602090815260408083208054600282015460049092018054845181870281018701909552808552869560609560ff909416949391839183018282801561046857602002820191906000526020600020905b81548152600190910190602001808311610453575b505050505090509250925092509193909250565b6000818152600260208181526040928390209091018054835181840281018401909452808452606093928301828280156104df57602002820191906000526020600020905b8154600160a060020a031681526001909101906020018083116104c1575b50505050509050919050565b3060009081526004602052604081205481908590859082101561057d576040805160e560020a62461bcd028152602060048201526024808201527f696e6469636174696e6720736d616c6c206e756d626572206f6620766572696660448201527f6965727300000000000000000000000000000000000000000000000000000000606482015290519081900360840190fd5b3060009081526004602052604090206001015482111561060c576040805160e560020a62461bcd028152602060048201526024808201527f696e6469636174696e67206c61726765206e756d626572206f6620766572696660448201527f6965727300000000000000000000000000000000000000000000000000000000606482015290519081900360840190fd5b8161061561146d565b1461066a576040805160e560020a62461bcd02815260206004820152601d60248201527f4b2076657269666965727320617265206e6f7420617661696c61626c65000000604482015290519081900360640190fd5b808210156106e8576040805160e560020a62461bcd02815260206004820152602f60248201527f496e76616c6964206368616e6e656c20696e697469616c697a6174696f6e206960448201527f6e70757420706172616d65746572730000000000000000000000000000000000606482015290519081900360840190fd5b600088815260026020526040902054889060ff1615610751576040805160e560020a62461bcd02815260206004820152601660248201527f4368616e6e656c20616c72656164792065786973747300000000000000000000604482015290519081900360640190fd5b6040805160208082018c905243828401526c010000000000000000000000003302606083015282516054818403018152607490920192839052815191929182918401908083835b602083106107b75780518252601f199092019160209182019101610798565b6001836020036101000a0380198251168184511680821785525050505050509050019150506040518091039020935060c0604051908101604052806000151581526020018881526020018a6000191681526020016000604051908082528060200260200182016040528015610836578160200160208202803883390190505b5081526020016000604051908082528060200260200182016040528015610867578160200160208202803883390190505b50815260200160006040519080825280602002602001820160405280156108a257816020015b606081526020019060019003908161088d5790505b5090526000858152600360208181526040928390208451815460ff1916901515178155848201516001820155928401516002840155606084015180516108ef9385019291909101906118af565b506080820151805161090b9160048401916020909101906118af565b5060a082015180516109279160058401916020909101906118f8565b50506040805160808101825260018152600160a060020a0389166020808301919091528183018890528251600080825291810190935290925060608301919050905260008a8152600260208181526040928390208451815486840151600160a060020a03166101000274ffffffffffffffffffffffffffffffffffffffff001992151560ff199092169190911791909116178155928401516001840155606084015180516109dc938501929190910190611951565b509050506109ea89896114ce565b1515610a40576040805160e560020a62461bcd02815260206004820152601c60248201527f556e61626c6520746f20696e697469616c697a65206368616e6e656c00000000604482015290519081900360640190fd5b60008981526002602081815260409283902083518d81529384018890526060918401828152920180549184018290527f36c173d71e50ea0e4b1999ea6792fd7db8317f4553e0b077d956c0042a1f3e9e938d939192899290608083019085908015610ad457602002820191906000526020600020905b8154600160a060020a03168152600190910190602001808311610ab6575b505094505050505060405180910390a150600198975050505050505050565b60009081526002602052604090206001015490565b3360009081526001602081905260408220015415610b96576040805160e560020a62461bcd02815260206004820152602160248201527f5665726966696572206375727265746c792070617274206f66206368616e6e6560448201527f6c00000000000000000000000000000000000000000000000000000000000000606482015290519081900360840190fd5b3360009081526001602052604090205460ff1615610c24576040805160e560020a62461bcd02815260206004820152602360248201527f43616e206e6f742064657265676973746572207665726966696572206973206260448201527f7573790000000000000000000000000000000000000000000000000000000000606482015290519081900360840190fd5b33600081815260016020908152604091829020805461ff0019169055815192835290517f12418d5e7a60fc3729f1694646c15cb0fb6a6dc1773b823b9a6cd2e0aa14bc8c9281900390910190a15060015b90565b610c80610f5c565b1515610c8b57600080fd5b60008054604051600160a060020a03909116907f8be0079c531659141344cd1fd0a4f28419497f9722a3daafe3b4186f6b6457e0908390a36000805473ffffffffffffffffffffffffffffffffffffffff19169055565b60008080805b60008581526002602090815260408083206001015483526003909152902060050154821015610dcb576000858152600260209081526040808320600101548352600390915290206005015460001901821015610dc057600085815260026020908152604080832060019081015484526003909252909120600401805490918401908110610d7157fe5b600091825260208083209091015487835260028252604080842060010154845260039092529120600401805484908110610da757fe5b6000918252602090912001541415610dc0576001830192505b600190910190610ce8565b6000858152600260209081526040808320600190810154845260039092529091200154831415610f4057506000848152600260209081526040808320600190810154845260039092528220805460ff191690911790555b60008581526002602081905260409091200154811015610eeb5760008581526002602081905260408220018054600191839185908110610e5e57fe5b6000918252602080832090910154600160a060020a031683528281019390935260409182018120600190810194909455888152600292839052908120909101805491929183919085908110610eaf57fe5b600091825260208083209190910154600160a060020a031683528201929092526040019020805460ff1916911515919091179055600101610e22565b6000858152600260209081526040918290206001015482518881529182015281517fd4007d07c371997cef85632175d797f4f1cbcc551fb88352b7c3df7a6f4231a2929181900390910190a160019350610f45565b600093505b505050919050565b600054600160a060020a031690565b600054600160a060020a0316331490565b33600090815260016020819052604082200154819087908114610fda576040805160e560020a62461bcd02815260206004820152601260248201527f696e76616c6964206368616e6e656c4964210000000000000000000000000000604482015290519081900360640190fd5b6110e588878987604051602001808560001916600019168152602001848051906020019060200280838360005b8381101561101f578181015183820152602001611007565b5050505090500183805190602001908083835b602083106110515780518252601f199092019160209182019101611032565b51815160209384036101000a6000190180199092169116179052920193845250604080518085038152938201908190528351939650945084935085019190508083835b602083106110b35780518252601f199092019160209182019101611094565b6001836020036101000a038019825116818451168082178552505050505050905001915050604051809103902061168f565b91506110f2828633611739565b156111e1576000888152600260209081526040808320600190810154845260038352908320600501805491820180825590845292829020885161113d939190920191908901906119bf565b50506000888152600260208181526040808420600190810180548652600380855283872060040180548085018255908852858820018990558154875283872001805492830181558652838620909101899055938c9052918152915481518b815292830152338282015260608201849052517f9b6c0bd354af07c70e4f486603acf95142d0f4d7f00ba9e4f502f2b21c0111b59181900360800190a1600192506111e6565b600092505b505095945050505050565b60008181526002602090815260408083206001015483526003909152812054829060ff161515611291576040805160e560020a62461bcd02815260206004820152603360248201527f556e61626c6520746f207465726d696e617465206368616e6e656c2c20506f5460448201527f206e6f742076616c696461746564207965742100000000000000000000000000606482015290519081900360840190fd5b50506000908152600260205260409020805460ff19169055600190565b33600090815260016020526040812054610100900460ff161561131b576040805160e560020a62461bcd02815260206004820152601b60248201527f566572696669657220616c726561647920726567697374657265640000000000604482015290519081900360640190fd5b3060009081526004602052604090206002015434101561133a57600080fd5b6040805160808101825260008082526001602080840182815284860184815234606087019081523380875285855288872097518854945115156101000261ff001991151560ff199096169590951716939093178755905186850155516002909501949094556005805492830181559092527f036b6384b5eca791c62761152d0c79bb0604c104a5fb6f4eb0703f3154bb3db001805473ffffffffffffffffffffffffffffffffffffffff191683179055825191825291517f85cf819da48b7e3c138cca9531adae41f25faeff5801e9e096eb2c1fb3cbbab7929181900390910190a150600190565b60009081526003602052604090206002015490565b61143f610f5c565b151561144a57600080fd5b61145381611762565b50565b336000908152600160208190526040909120015490565b6000805b60055481116114ca576001600060058381548110151561148d57fe5b6000918252602080832090910154600160a060020a0316835282019290925260400190205460ff1615156114c2576001820191505b600101611471565b5090565b60008080805b6005548210156115a457600160006005848154811015156114f157fe5b6000918252602080832090910154600160a060020a0316835282019290925260400190205460ff161580156115265750848311155b15611599576000868152600260208190526040909120600580549190920191908490811061155057fe5b600091825260208083209091015483546001810185559383529120909101805473ffffffffffffffffffffffffffffffffffffffff1916600160a060020a039092169190911790555b6001909101906114d4565b84831415611681575060005b600086815260026020819052604090912001548111611678576000868152600260208190526040822001805488926001929091859081106115ed57fe5b6000918252602080832090910154600160a060020a0316835282810193909352604091820181206001908101949094558981526002928390529081209091018054839291908590811061163c57fe5b600091825260208083209190910154600160a060020a031683528201929092526040019020805460ff19169115159190911790556001016115b0565b60019350611686565b600093505b50505092915050565b604080517f19457468657265756d205369676e6564204d6573736167653a0a333200000000602080830191909152603c80830185905283518084039091018152605c909201928390528151600093918291908401908083835b602083106117075780518252601f1990920191602091820191016116e8565b5181516020939093036101000a6000190180199091169216919091179052604051920182900390912095945050505050565b600061174584846117df565b600160a060020a031682600160a060020a03161490509392505050565b600160a060020a038116151561177757600080fd5b60008054604051600160a060020a03808516939216917f8be0079c531659141344cd1fd0a4f28419497f9722a3daafe3b4186f6b6457e091a36000805473ffffffffffffffffffffffffffffffffffffffff1916600160a060020a0392909216919091179055565b600080600080845160411415156117f95760009350611686565b50505060208201516040830151606084015160001a601b60ff8216101561181e57601b015b8060ff16601b1415801561183657508060ff16601c14155b156118445760009350611686565b60408051600080825260208083018085528a905260ff8516838501526060830187905260808301869052925160019360a0808501949193601f19840193928390039091019190865af115801561189e573d6000803e3d6000fd5b505050602060405103519350611686565b8280548282559060005260206000209081019282156118ec579160200282015b828111156118ec57825182556020909201916001909101906118cf565b506114ca929150611a2d565b828054828255906000526020600020908101928215611945579160200282015b8281111561194557825180516119359184916020909101906119bf565b5091602001919060010190611918565b506114ca929150611a47565b8280548282559060005260206000209081019282156119b3579160200282015b828111156119b3578251825473ffffffffffffffffffffffffffffffffffffffff1916600160a060020a03909116178255602090920191600190910190611971565b506114ca929150611a6a565b828054600181600116156101000203166002900490600052602060002090601f016020900481019282601f10611a0057805160ff19168380011785556118ec565b828001600101855582156118ec579182015b828111156118ec578251825591602001919060010190611a12565b610c7591905b808211156114ca5760008155600101611a33565b610c7591905b808211156114ca576000611a618282611a9b565b50600101611a4d565b610c7591905b808211156114ca57805473ffffffffffffffffffffffffffffffffffffffff19168155600101611a70565b50805460018160011615610100020316600290046000825580601f10611ac15750611453565b601f0160209004906000526020600020908101906114539190611a2d5600a165627a7a72305820006b512fab4d81a6382411d02e3bfd6490198ab5a53a908f51176f7dc8ad655b0029",
  "source": "pragma solidity ^0.4.25;\n\nimport '/openzeppelin-solidity/contracts/cryptography/ECDSA.sol';\nimport '/openzeppelin-solidity/contracts/ownership/Ownable.sol';\n\ncontract GossipersPool is Ownable {\n\n    // Fitchain PoT Gossipers\n    struct Verifier {\n        bool state; // 0 avaialble\n        bool registered;\n        bytes32 currChannelId;\n        uint256 stake;\n    }\n\n    // lighting channels\n    struct Channel {\n        bool state;\n        address owner;\n        bytes32 proof;\n        address[] verifiers;\n    }\n\n    // proof of training\n    struct Proof {\n        bool verified;\n        uint256 MofNSigs; // M of (N=channel[channelId].verifers.length) verified signatures for the same proof\n        bytes32 channelId;\n        bytes32[] results;\n        bytes32[] proofHashs;\n        bytes[] signatures;\n    }\n\n    // contract settings (only VPC contract owner)\n    struct VPCsettings {\n        uint256  minKVerifiers;\n        uint256  maxKVerifiers;\n        uint256  minStake;\n    }\n\n    mapping(address => Verifier) verifiers;\n    mapping(bytes32 => Channel) channels;\n    mapping(bytes32 => Proof) proofs;\n    mapping(address => VPCsettings) settings;\n    address[] private verifiersSet;\n\n    // events\n    event VerifierRegistered(address verifier);\n    event VerifierDeregistered(address verifeir);\n    event ChannelInitialized(bytes32 channelId, address[] verifiers, bytes32 proofId);\n    event ProofOfTraining(bytes32 channelId, bytes32 proofId, address verifier, bytes32 proofHash);\n    event PoTValidated(bytes32 channelId, bytes32 proofId);\n\n\n    // access control modifiers\n    modifier requireKVerifiers(uint256 KVerifiers, uint256 mOfN) {\n        require(settings[address(this)].minKVerifiers <= KVerifiers, 'indicating small number of verifiers');\n        require(settings[address(this)].maxKVerifiers >= KVerifiers, 'indicating large number of verifiers');\n        require(getAvailableVerifiers() == KVerifiers, 'K verifiers are not available');\n        require(KVerifiers >= mOfN, 'Invalid channel initialization input parameters');\n        _;\n    }\n\n    modifier isValidChannelId(bytes32 channelId) {\n        require(!channels[channelId].state, 'Channel already exists');\n        _;\n    }\n\n    modifier canRegisterVerifier() {\n        require(!verifiers[msg.sender].registered, 'Verifier already registered');\n        _;\n    }\n\n    modifier canDeregisterVerifier() {\n        require(verifiers[msg.sender].currChannelId == bytes32(0), 'Verifier curretly part of channel');\n        require(!verifiers[msg.sender].state, 'Can not deregister verifier is busy');\n        _;\n    }\n\n    modifier isValidStake(){\n        require(msg.value >= settings[address(this)].minStake);\n        _;\n    }\n\n    modifier canVerify(bytes32 channelId) {\n        require(verifiers[msg.sender].currChannelId == channelId, 'invalid channelId!');\n        _;\n    }\n\n    modifier isPotValidated(bytes32 channelId) {\n        require(proofs[channels[channelId].proof].verified, 'Unable to terminate channel, PoT not validated yet!');\n        _;\n    }\n\n    // init VPC settings\n    constructor(uint256 _minKVerifiers, uint256 _maxKVerifiers, uint256 _minStake) public {\n        settings[address(this)] = VPCsettings(_minKVerifiers, _maxKVerifiers, _minStake);\n    }\n\n    function getAvailableVerifiers() private view returns(uint256 K){\n        for(uint256 i=0; i<=verifiersSet.length; i++){\n            if(!verifiers[verifiersSet[i]].state){\n                K+=1;\n            }\n        }\n        return K;\n    }\n\n    function getKVerifiers(bytes32 channelId, uint256 K) private returns(bool){\n        uint256 j=0;\n        for(uint256 i=0; i<verifiersSet.length; i++){\n            if(!verifiers[verifiersSet[i]].state && j <= K) {\n                channels[channelId].verifiers.push(verifiersSet[i]);\n            }\n        }\n        if(j==K){\n            // set the verifier's current channel\n            for (uint256 l=0; l <= channels[channelId].verifiers.length; l++){\n                verifiers[channels[channelId].verifiers[l]].currChannelId = channelId;\n                verifiers[channels[channelId].verifiers[l]].state = true;\n            }\n            return true;\n        }\n        return false;\n    }\n\n    function registerVerifier() public canRegisterVerifier() isValidStake() payable returns(bool){\n        // TODO: move ether 'stake' to the contract\n        verifiers[msg.sender] = Verifier(false, true, bytes32(0), msg.value);\n        verifiersSet.push(msg.sender);\n        emit VerifierRegistered(msg.sender);\n        return true;\n    }\n\n    function deregisterVerifier() public canDeregisterVerifier() returns(bool) {\n        verifiers[msg.sender].registered = false;\n        // TODO: tranfer stake to the verifier address\n        emit VerifierDeregistered(msg.sender);\n        return true;\n    }\n\n    function initChannel(bytes32 channelId, uint256 KVerifiers, uint256 mOfN, address owner) public requireKVerifiers(KVerifiers, mOfN) isValidChannelId(channelId) returns(bool) {\n        bytes32 proofId = keccak256(abi.encodePacked(channelId, block.number, msg.sender));\n        proofs[proofId] = Proof(false, mOfN, channelId, new bytes32[](0), new bytes32[](0), new bytes[](0));\n        channels[channelId] = Channel(true, owner, proofId,new address[](0));\n        // TODO: set state of the verifier to 1 (busy)\n        require(getKVerifiers(channelId, KVerifiers), 'Unable to initialize channel');\n        emit ChannelInitialized(channelId, channels[channelId].verifiers, proofId);\n        return true;\n    }\n\n    function terminateChannel(bytes32 channelId) public isPotValidated(channelId) returns(bool) {\n        channels[channelId].state = false;\n        return true;\n    }\n\n    function getChannelVerifiers(bytes32 channelId) public view returns(address[]) {\n        return channels[channelId].verifiers;\n    }\n\n    function getChannelByProofId(bytes32 proofId) public view returns(bytes32) {\n        return proofs[proofId].channelId;\n    }\n\n    function getMyCurrentChannel() public view returns(bytes32) {\n        return verifiers[msg.sender].currChannelId;\n    }\n\n    function getProofIdByChannelId(bytes32 channelId) public view returns(bytes32) {\n        return channels[channelId].proof;\n    }\n\n    function getProof(bytes32 proofId) public view returns(bool, bytes32, bytes32[]) {\n        return (proofs[proofId].verified, proofs[proofId].channelId, proofs[proofId].proofHashs);\n    }\n\n\n    function isValidSignature(bytes32 hash, bytes signature, address verifier) private pure returns (bool){\n        return (verifier == ECDSA.recover(hash, signature));\n    }\n\n    function submitProof(bytes32 channelId, string eot, bytes32[] merkleroot, bytes signature, bytes32 result) public canVerify(channelId) returns(bool) {\n        bytes32 prefixedHash = ECDSA.toEthSignedMessageHash(keccak256(abi.encodePacked(channelId, merkleroot, eot, result)));\n        if(isValidSignature(prefixedHash, signature, msg.sender)){\n                proofs[channels[channelId].proof].signatures.push(signature);\n                proofs[channels[channelId].proof].proofHashs.push(prefixedHash);\n                proofs[channels[channelId].proof].results.push(result);\n                emit ProofOfTraining(channelId, channels[channelId].proof, msg.sender, prefixedHash);\n                return true;\n        }\n        return false;\n    }\n\n    function validateProof(bytes32 channelId) public returns (bool){\n        uint256 kValidProofs = 0;\n        for(uint256 i=0; i<proofs[channels[channelId].proof].signatures.length; i++){\n            if(i < proofs[channels[channelId].proof].signatures.length -1){\n                if(proofs[channels[channelId].proof].proofHashs[i] == proofs[channels[channelId].proof].proofHashs[i+1]) {\n                    kValidProofs +=1;\n                }\n            }\n        }\n        if(proofs[channels[channelId].proof].MofNSigs == kValidProofs) {\n            proofs[channels[channelId].proof].verified = true;\n            // free verifiers\n            for (uint j=0; j < channels[channelId].verifiers.length; j++){\n                verifiers[channels[channelId].verifiers[j]].currChannelId = bytes32(0);\n                verifiers[channels[channelId].verifiers[j]].state = false;\n            }\n            emit PoTValidated(channelId, channels[channelId].proof);\n            return true;\n        }\n        return false;\n    }\n}",
  "sourcePath": "/Users/ahmed/Documents/github_projects/aabdulwahed/fitchain-contracts/contracts/GossipersPool.sol",
  "compiler": {
    "name": "solc",
    "version": "0.4.25+commit.59dbf8f1.Emscripten.clang"
  },
  "schemaVersion": "3.0.0-beta.0",
  "updatedAt": "2018-11-16T14:02:12.230Z"
}