{
  "contractName": "Registry",
  "abi": [
    {
      "constant": true,
      "inputs": [],
      "name": "registrarAddress",
      "outputs": [
        {
          "name": "",
          "type": "address"
        }
      ],
      "payable": false,
      "stateMutability": "view",
      "type": "function"
    },
    {
      "constant": true,
      "inputs": [
        {
          "name": "",
          "type": "bytes32"
        },
        {
          "name": "",
          "type": "uint256"
        }
      ],
      "name": "modelToChallenges",
      "outputs": [
        {
          "name": "",
          "type": "bytes32"
        }
      ],
      "payable": false,
      "stateMutability": "view",
      "type": "function"
    },
    {
      "constant": true,
      "inputs": [
        {
          "name": "",
          "type": "bytes32"
        }
      ],
      "name": "idToChallenge",
      "outputs": [
        {
          "name": "",
          "type": "uint256"
        }
      ],
      "payable": false,
      "stateMutability": "view",
      "type": "function"
    },
    {
      "constant": true,
      "inputs": [
        {
          "name": "",
          "type": "uint256"
        }
      ],
      "name": "models",
      "outputs": [
        {
          "name": "identity",
          "type": "bytes"
        },
        {
          "name": "ownerAddress",
          "type": "address"
        },
        {
          "name": "ipfsAddress",
          "type": "bytes32"
        },
        {
          "name": "storedAs",
          "type": "uint256"
        },
        {
          "name": "bounty",
          "type": "uint256"
        },
        {
          "name": "currentError",
          "type": "uint256"
        },
        {
          "name": "targetError",
          "type": "uint256"
        },
        {
          "name": "isValid",
          "type": "bool"
        }
      ],
      "payable": false,
      "stateMutability": "view",
      "type": "function"
    },
    {
      "constant": true,
      "inputs": [
        {
          "name": "",
          "type": "uint256"
        }
      ],
      "name": "challenges",
      "outputs": [
        {
          "name": "modelIdentity",
          "type": "bytes32"
        },
        {
          "name": "verifierAddress",
          "type": "address"
        },
        {
          "name": "ipfsAddress",
          "type": "bytes32"
        },
        {
          "name": "errorMetric",
          "type": "uint256"
        },
        {
          "name": "validationResult",
          "type": "uint256"
        },
        {
          "name": "isActive",
          "type": "bool"
        },
        {
          "name": "timestamp",
          "type": "uint256"
        }
      ],
      "payable": false,
      "stateMutability": "view",
      "type": "function"
    },
    {
      "constant": true,
      "inputs": [
        {
          "name": "",
          "type": "bytes32"
        }
      ],
      "name": "idToModel",
      "outputs": [
        {
          "name": "",
          "type": "uint256"
        }
      ],
      "payable": false,
      "stateMutability": "view",
      "type": "function"
    },
    {
      "constant": true,
      "inputs": [],
      "name": "deployerAddress",
      "outputs": [
        {
          "name": "",
          "type": "address"
        }
      ],
      "payable": false,
      "stateMutability": "view",
      "type": "function"
    },
    {
      "inputs": [],
      "payable": true,
      "stateMutability": "payable",
      "type": "constructor"
    },
    {
      "anonymous": false,
      "inputs": [
        {
          "indexed": false,
          "name": "owner",
          "type": "address"
        },
        {
          "indexed": false,
          "name": "entityType",
          "type": "bytes32"
        },
        {
          "indexed": false,
          "name": "entityId",
          "type": "bytes32"
        },
        {
          "indexed": false,
          "name": "ipfs",
          "type": "bytes32"
        }
      ],
      "name": "EntityCreated",
      "type": "event"
    },
    {
      "anonymous": false,
      "inputs": [
        {
          "indexed": false,
          "name": "owner",
          "type": "address"
        },
        {
          "indexed": false,
          "name": "entityType",
          "type": "bytes32"
        },
        {
          "indexed": false,
          "name": "entityId",
          "type": "bytes32"
        }
      ],
      "name": "EntityArchived",
      "type": "event"
    },
    {
      "anonymous": false,
      "inputs": [
        {
          "indexed": false,
          "name": "project",
          "type": "bytes32"
        },
        {
          "indexed": false,
          "name": "workspace",
          "type": "bytes32"
        },
        {
          "indexed": false,
          "name": "job",
          "type": "bytes32"
        },
        {
          "indexed": false,
          "name": "timestamp",
          "type": "uint256"
        },
        {
          "indexed": false,
          "name": "channel",
          "type": "bytes32"
        },
        {
          "indexed": false,
          "name": "payload",
          "type": "string"
        }
      ],
      "name": "LogCreated",
      "type": "event"
    },
    {
      "anonymous": false,
      "inputs": [
        {
          "indexed": false,
          "name": "user",
          "type": "address"
        },
        {
          "indexed": false,
          "name": "project",
          "type": "bytes32"
        },
        {
          "indexed": false,
          "name": "workspace",
          "type": "bytes32"
        },
        {
          "indexed": false,
          "name": "job",
          "type": "bytes32"
        },
        {
          "indexed": false,
          "name": "timestamp",
          "type": "uint256"
        },
        {
          "indexed": false,
          "name": "key",
          "type": "bytes32"
        },
        {
          "indexed": false,
          "name": "value",
          "type": "bytes32"
        }
      ],
      "name": "MetricCreated",
      "type": "event"
    },
    {
      "anonymous": false,
      "inputs": [
        {
          "indexed": false,
          "name": "timestamp",
          "type": "uint256"
        },
        {
          "indexed": false,
          "name": "user",
          "type": "address"
        },
        {
          "indexed": false,
          "name": "project",
          "type": "bytes32"
        }
      ],
      "name": "WorkspaceCreated",
      "type": "event"
    },
    {
      "anonymous": false,
      "inputs": [
        {
          "indexed": false,
          "name": "id",
          "type": "bytes32"
        },
        {
          "indexed": true,
          "name": "owner",
          "type": "address"
        }
      ],
      "name": "Created",
      "type": "event"
    },
    {
      "anonymous": false,
      "inputs": [
        {
          "indexed": false,
          "name": "id",
          "type": "bytes32"
        },
        {
          "indexed": true,
          "name": "owner",
          "type": "address"
        },
        {
          "indexed": false,
          "name": "isValid",
          "type": "bool"
        }
      ],
      "name": "Updated",
      "type": "event"
    },
    {
      "anonymous": false,
      "inputs": [
        {
          "indexed": false,
          "name": "id",
          "type": "bytes32"
        }
      ],
      "name": "Deleted",
      "type": "event"
    },
    {
      "anonymous": false,
      "inputs": [
        {
          "indexed": false,
          "name": "code",
          "type": "uint256"
        }
      ],
      "name": "Error",
      "type": "event"
    },
    {
      "constant": false,
      "inputs": [
        {
          "name": "entityType",
          "type": "bytes32"
        },
        {
          "name": "entityId",
          "type": "bytes32"
        },
        {
          "name": "ipfs",
          "type": "bytes32"
        }
      ],
      "name": "createEntity",
      "outputs": [],
      "payable": false,
      "stateMutability": "nonpayable",
      "type": "function"
    },
    {
      "constant": false,
      "inputs": [
        {
          "name": "entityType",
          "type": "bytes32"
        },
        {
          "name": "entityId",
          "type": "bytes32"
        }
      ],
      "name": "archiveEntity",
      "outputs": [],
      "payable": false,
      "stateMutability": "nonpayable",
      "type": "function"
    },
    {
      "constant": false,
      "inputs": [
        {
          "name": "timestamp",
          "type": "uint256"
        },
        {
          "name": "projectId",
          "type": "bytes32"
        }
      ],
      "name": "workOnProject",
      "outputs": [],
      "payable": false,
      "stateMutability": "nonpayable",
      "type": "function"
    },
    {
      "constant": false,
      "inputs": [
        {
          "name": "project",
          "type": "bytes32"
        },
        {
          "name": "workspace",
          "type": "bytes32"
        },
        {
          "name": "job",
          "type": "bytes32"
        },
        {
          "name": "timestamp",
          "type": "uint256"
        },
        {
          "name": "channel",
          "type": "bytes32"
        },
        {
          "name": "payload",
          "type": "string"
        }
      ],
      "name": "createLog",
      "outputs": [],
      "payable": false,
      "stateMutability": "nonpayable",
      "type": "function"
    },
    {
      "constant": false,
      "inputs": [
        {
          "name": "project",
          "type": "bytes32"
        },
        {
          "name": "workspace",
          "type": "bytes32"
        },
        {
          "name": "job",
          "type": "bytes32"
        },
        {
          "name": "timestamp",
          "type": "uint256"
        },
        {
          "name": "key",
          "type": "bytes32"
        },
        {
          "name": "value",
          "type": "bytes32"
        }
      ],
      "name": "createMetric",
      "outputs": [],
      "payable": false,
      "stateMutability": "nonpayable",
      "type": "function"
    },
    {
      "constant": false,
      "inputs": [
        {
          "name": "model_id",
          "type": "bytes"
        },
        {
          "name": "vote",
          "type": "uint256"
        }
      ],
      "name": "voteModel",
      "outputs": [],
      "payable": true,
      "stateMutability": "payable",
      "type": "function"
    },
    {
      "constant": false,
      "inputs": [
        {
          "name": "model_id",
          "type": "bytes32"
        },
        {
          "name": "ipfs_address",
          "type": "bytes32"
        }
      ],
      "name": "createChallenge",
      "outputs": [
        {
          "name": "",
          "type": "bytes32"
        }
      ],
      "payable": false,
      "stateMutability": "nonpayable",
      "type": "function"
    },
    {
      "constant": false,
      "inputs": [
        {
          "name": "model_id",
          "type": "bytes"
        },
        {
          "name": "ipfs_address",
          "type": "bytes32"
        },
        {
          "name": "stored_as",
          "type": "uint256"
        },
        {
          "name": "bounty",
          "type": "uint256"
        },
        {
          "name": "current_error",
          "type": "uint256"
        },
        {
          "name": "target_error",
          "type": "uint256"
        }
      ],
      "name": "createModel",
      "outputs": [
        {
          "name": "",
          "type": "bool"
        }
      ],
      "payable": true,
      "stateMutability": "payable",
      "type": "function"
    },
    {
      "constant": true,
      "inputs": [],
      "name": "getNumberOfModels",
      "outputs": [
        {
          "name": "numberOfModels",
          "type": "uint256"
        }
      ],
      "payable": false,
      "stateMutability": "view",
      "type": "function"
    },
    {
      "constant": true,
      "inputs": [
        {
          "name": "model_id",
          "type": "bytes32"
        }
      ],
      "name": "getNumberOfChallenges",
      "outputs": [
        {
          "name": "",
          "type": "uint256"
        }
      ],
      "payable": false,
      "stateMutability": "view",
      "type": "function"
    },
    {
      "constant": true,
      "inputs": [
        {
          "name": "model_id",
          "type": "bytes32"
        }
      ],
      "name": "getModel",
      "outputs": [
        {
          "name": "",
          "type": "address"
        },
        {
          "name": "",
          "type": "bytes32"
        },
        {
          "name": "",
          "type": "uint256"
        },
        {
          "name": "",
          "type": "uint256"
        },
        {
          "name": "",
          "type": "uint256"
        },
        {
          "name": "",
          "type": "uint256"
        },
        {
          "name": "",
          "type": "bool"
        }
      ],
      "payable": false,
      "stateMutability": "view",
      "type": "function"
    },
    {
      "constant": true,
      "inputs": [
        {
          "name": "challenge_hash",
          "type": "bytes32"
        }
      ],
      "name": "getChallenge",
      "outputs": [
        {
          "name": "model_identity",
          "type": "bytes32"
        },
        {
          "name": "verifier_address",
          "type": "address"
        },
        {
          "name": "ipfs_address",
          "type": "bytes32"
        },
        {
          "name": "error_metric",
          "type": "uint256"
        },
        {
          "name": "is_active",
          "type": "bool"
        },
        {
          "name": "validator_address",
          "type": "bytes32[]"
        }
      ],
      "payable": false,
      "stateMutability": "view",
      "type": "function"
    },
    {
      "constant": true,
      "inputs": [
        {
          "name": "model_id",
          "type": "bytes32"
        }
      ],
      "name": "getModelChallenges",
      "outputs": [
        {
          "name": "",
          "type": "bytes32[]"
        }
      ],
      "payable": false,
      "stateMutability": "view",
      "type": "function"
    },
    {
      "constant": false,
      "inputs": [
        {
          "name": "model_id",
          "type": "bytes32"
        }
      ],
      "name": "deleteModel",
      "outputs": [
        {
          "name": "",
          "type": "bool"
        }
      ],
      "payable": false,
      "stateMutability": "nonpayable",
      "type": "function"
    },
    {
      "constant": false,
      "inputs": [
        {
          "name": "challenge_id",
          "type": "bytes32"
        }
      ],
      "name": "deleteChallenge",
      "outputs": [
        {
          "name": "",
          "type": "bool"
        }
      ],
      "payable": false,
      "stateMutability": "nonpayable",
      "type": "function"
    },
    {
      "constant": true,
      "inputs": [
        {
          "name": "model_id",
          "type": "bytes32"
        },
        {
          "name": "is_valid",
          "type": "bool"
        }
      ],
      "name": "setModelValid",
      "outputs": [
        {
          "name": "",
          "type": "bool"
        }
      ],
      "payable": false,
      "stateMutability": "view",
      "type": "function"
    },
    {
      "constant": false,
      "inputs": [
        {
          "name": "challenge_id",
          "type": "bytes32"
        },
        {
          "name": "is_active",
          "type": "bool"
        }
      ],
      "name": "setChallengeActive",
      "outputs": [
        {
          "name": "",
          "type": "bool"
        }
      ],
      "payable": false,
      "stateMutability": "nonpayable",
      "type": "function"
    }
  ],
  "bytecode": "0x6080604052600160009054906101000a900473ffffffffffffffffffffffffffffffffffffffff166000806101000a81548173ffffffffffffffffffffffffffffffffffffffff021916908373ffffffffffffffffffffffffffffffffffffffff160217905550600380548091906001016200007c9190620000db565b506005805480919060010162000093919062000110565b5033600260006101000a81548173ffffffffffffffffffffffffffffffffffffffff021916908373ffffffffffffffffffffffffffffffffffffffff16021790555062000332565b8154818355818111156200010b576008028160080283600052602060002091820191016200010a919062000145565b5b505050565b81548183558181111562000140576008028160080283600052602060002091820191016200013f9190620001dc565b5b505050565b620001d991905b80821115620001d5576000808201600062000168919062000273565b6001820160006101000a81549073ffffffffffffffffffffffffffffffffffffffff0219169055600282016000905560038201600090556004820160009055600582016000905560068201600090556007820160006101000a81549060ff0219169055506008016200014c565b5090565b90565b6200027091905b808211156200026c576000808201600090556001820160006101000a81549073ffffffffffffffffffffffffffffffffffffffff02191690556002820160009055600382016000905560048201600090556005820160006101000a81549060ff02191690556006820160009055600782016000620002629190620002bf565b50600801620001e3565b5090565b90565b50805460018160011615610100020316600290046000825580601f106200029b5750620002bc565b601f016020900490600052602060002090810190620002bb9190620002e2565b5b50565b5080546000825590600052602060002090810190620002df91906200030a565b50565b6200030791905b8082111562000303576000816000905550600101620002e9565b5090565b90565b6200032f91905b808211156200032b57600081600090555060010162000311565b5090565b90565b612ddb80620003426000396000f30060806040526004361061013e576000357c0100000000000000000000000000000000000000000000000000000000900463ffffffff1680630ce11a771461014357806314d668d21461019a57806321e7c498146101f55780632908d3621461029c578063458d2bf1146102e157806347f3325f146103ca57806348966c4f146104215780634e2e8671146104a7578063665584a8146104ec5780636a030ca91461051757806372052773146106265780637d1c2f8e1461066f5780638f1d3776146106d55780639c4ef0aa146107805780639cb2603b146107bb578063a26b183a14610800578063a837545b146108ab578063d8ebf36314610955578063de75a3e314610994578063ed15e3cf14610a07578063ed3d7edc14610a54578063efdee94f14610a9d578063fbf99c6714610af4578063fefab0c914610b49575b600080fd5b34801561014f57600080fd5b50610158610b9e565b604051808273ffffffffffffffffffffffffffffffffffffffff1673ffffffffffffffffffffffffffffffffffffffff16815260200191505060405180910390f35b3480156101a657600080fd5b506101d760048036038101908080356000191690602001909291908035600019169060200190929190505050610bc4565b60405180826000191660001916815260200191505060405180910390f35b34801561020157600080fd5b506102246004803603810190808035600019169060200190929190505050610eb7565b604051808873ffffffffffffffffffffffffffffffffffffffff1673ffffffffffffffffffffffffffffffffffffffff16815260200187600019166000191681526020018681526020018581526020018481526020018381526020018215151515815260200197505050505050505060405180910390f35b3480156102a857600080fd5b506102cb60048036038101908080356000191690602001909291905050506110e7565b6040518082815260200191505060405180910390f35b3480156102ed57600080fd5b506103106004803603810190808035600019169060200190929190505050611176565b6040518087600019166000191681526020018673ffffffffffffffffffffffffffffffffffffffff1673ffffffffffffffffffffffffffffffffffffffff16815260200185600019166000191681526020018481526020018315151515815260200180602001828103825283818151815260200191508051906020019060200280838360005b838110156103b1578082015181840152602081019050610396565b5050505090500197505050505050505060405180910390f35b3480156103d657600080fd5b50610403600480360381019080803560001916906020019092919080359060200190929190505050611318565b60405180826000191660001916815260200191505060405180910390f35b34801561042d57600080fd5b506104506004803603810190808035600019169060200190929190505050611348565b6040518080602001828103825283818151815260200191508051906020019060200280838360005b83811015610493578082015181840152602081019050610478565b505050509050019250505060405180910390f35b3480156104b357600080fd5b506104d66004803603810190808035600019169060200190929190505050611513565b6040518082815260200191505060405180910390f35b3480156104f857600080fd5b5061050161152b565b6040518082815260200191505060405180910390f35b34801561052357600080fd5b506105426004803603810190808035906020019092919050505061153b565b60405180806020018973ffffffffffffffffffffffffffffffffffffffff1673ffffffffffffffffffffffffffffffffffffffff16815260200188600019166000191681526020018781526020018681526020018581526020018481526020018315151515815260200182810382528a818151815260200191508051906020019080838360005b838110156105e45780820151818401526020810190506105c9565b50505050905090810190601f1680156106115780820380516001836020036101000a031916815260200191505b50995050505050505050505060405180910390f35b34801561063257600080fd5b506106556004803603810190808035600019169060200190929190505050611657565b604051808215151515815260200191505060405180910390f35b6106d3600480360381019080803590602001908201803590602001908080601f01602080910402602001604051908101604052809392919081815260200183838082843782019150505050505091929192908035906020019092919050505061192e565b005b3480156106e157600080fd5b5061070060048036038101908080359060200190929190505050611a3b565b6040518088600019166000191681526020018773ffffffffffffffffffffffffffffffffffffffff1673ffffffffffffffffffffffffffffffffffffffff16815260200186600019166000191681526020018581526020018481526020018315151515815260200182815260200197505050505050505060405180910390f35b34801561078c57600080fd5b506107b9600480360381019080803590602001909291908035600019169060200190929190505050611ab9565b005b3480156107c757600080fd5b506107ea6004803603810190808035600019169060200190929190505050611b38565b6040518082815260200191505060405180910390f35b34801561080c57600080fd5b506108a9600480360381019080803560001916906020019092919080356000191690602001909291908035600019169060200190929190803590602001909291908035600019169060200190929190803590602001908201803590602001908080601f0160208091040260200160405190810160405280939291908181526020018383808284378201915050505050509192919290505050611b50565b005b61093b600480360381019080803590602001908201803590602001908080601f0160208091040260200160405190810160405280939291908181526020018383808284378201915050505050509192919290803560001916906020019092919080359060200190929190803590602001909291908035906020019092919080359060200190929190505050611c3c565b604051808215151515815260200191505060405180910390f35b34801561096157600080fd5b5061099260048036038101908080356000191690602001909291908035600019169060200190929190505050611eda565b005b3480156109a057600080fd5b50610a056004803603810190808035600019169060200190929190803560001916906020019092919080356000191690602001909291908035906020019092919080356000191690602001909291908035600019169060200190929190505050611f61565b005b348015610a1357600080fd5b50610a52600480360381019080803560001916906020019092919080356000191690602001909291908035600019169060200190929190505050612024565b005b348015610a6057600080fd5b50610a8360048036038101908080356000191690602001909291905050506120bc565b604051808215151515815260200191505060405180910390f35b348015610aa957600080fd5b50610ab2612406565b604051808273ffffffffffffffffffffffffffffffffffffffff1673ffffffffffffffffffffffffffffffffffffffff16815260200191505060405180910390f35b348015610b0057600080fd5b50610b2f600480360381019080803560001916906020019092919080351515906020019092919050505061242c565b604051808215151515815260200191505060405180910390f35b348015610b5557600080fd5b50610b84600480360381019080803560001916906020019092919080351515906020019092919050505061266e565b604051808215151515815260200191505060405180910390f35b600160009054906101000a900473ffffffffffffffffffffffffffffffffffffffff1681565b60008060008060006004600088600019166000191681526020019081526020016000205493506000841415610c30577f2e36a7093f25f22bd4cbdeb6040174c3ba4c5fe8f1abc04e7c3c48f26c7413e060026040518082815260200191505060405180910390a1610ead565b6006600087600019166000191681526020019081526020016000205492506000831115610c5f57859450610ead565b60058054809190600101610c7391906128b0565b915061010060405190810160405280886000191681526020013373ffffffffffffffffffffffffffffffffffffffff1681526020018760001916815260200160008152602001600081526020016001151581526020014281526020016000604051908082528060200260200182016040528015610cff5781602001602082028038833980820191505090505b50815250600583815481101515610d1257fe5b90600052602060002090600802016000820151816000019060001916905560208201518160010160006101000a81548173ffffffffffffffffffffffffffffffffffffffff021916908373ffffffffffffffffffffffffffffffffffffffff16021790555060408201518160020190600019169055606082015181600301556080820151816004015560a08201518160050160006101000a81548160ff02191690831515021790555060c0820151816006015560e0820151816007019080519060200190610de19291906128e2565b5090505081600660008860001916600019168152602001908152602001600020819055506007600088600019166000191681526020019081526020016000209050808690806001815401808255809150509060018203906000526020600020016000909192909190915090600019169055503373ffffffffffffffffffffffffffffffffffffffff167f6e765c1505df7edb32788588e8f625dd368914ea995e3d429094152b826977a78760405180826000191660001916815260200191505060405180910390a28594505b5050505092915050565b600080600080600080600080610ecb612935565b600460008b600019166000191681526020019081526020016000205491506000821415610f2f577f2e36a7093f25f22bd4cbdeb6040174c3ba4c5fe8f1abc04e7c3c48f26c7413e060026040518082815260200191505060405180910390a16110da565b600382815481101515610f3e57fe5b90600052602060002090600802016101006040519081016040529081600082018054600181600116156101000203166002900480601f016020809104026020016040519081016040528092919081815260200182805460018160011615610100020316600290048015610ff25780601f10610fc757610100808354040283529160200191610ff2565b820191906000526020600020905b815481529060010190602001808311610fd557829003601f168201915b505050505081526020016001820160009054906101000a900473ffffffffffffffffffffffffffffffffffffffff1673ffffffffffffffffffffffffffffffffffffffff1673ffffffffffffffffffffffffffffffffffffffff168152602001600282015460001916600019168152602001600382015481526020016004820154815260200160058201548152602001600682015481526020016007820160009054906101000a900460ff161515151581525050905080602001518160400151826060015183608001518460a001518560c001518660e0015198509850985098509850985098505b5050919395979092949650565b600080600460008460001916600019168152602001908152602001600020549050600081141561114e577f2e36a7093f25f22bd4cbdeb6040174c3ba4c5fe8f1abc04e7c3c48f26c7413e060026040518082815260200191505060405180910390a1611170565b6007600084600019166000191681526020019081526020016000208054905091505b50919050565b60008060008060006060600061118a612996565b600660008a600019166000191681526020019081526020016000205491506005828154811015156111b757fe5b906000526020600020906008020161010060405190810160405290816000820154600019166000191681526020016001820160009054906101000a900473ffffffffffffffffffffffffffffffffffffffff1673ffffffffffffffffffffffffffffffffffffffff1673ffffffffffffffffffffffffffffffffffffffff16815260200160028201546000191660001916815260200160038201548152602001600482015481526020016005820160009054906101000a900460ff1615151515815260200160068201548152602001600782018054806020026020016040519081016040528092919081815260200182805480156112d857602002820191906000526020600020905b815460001916815260200190600101908083116112c0575b5050505050815250509050806000015197508060200151965080604001519550806060015194508060a0015193508060e001519250505091939550919395565b60076020528160005260406000208181548110151561133357fe5b90600052602060002001600091509150505481565b606060008060606000806000806000806060600460008d6000191660001916815260200190815260200160002054995060008a14156113be577f2e36a7093f25f22bd4cbdeb6040174c3ba4c5fe8f1abc04e7c3c48f26c7413e060026040518082815260200191505060405180910390a1611504565b600760008d6000191660001916815260200190815260200160002080548060200260200160405190810160405280929190818152602001828054801561142757602002820191906000526020600020905b8154600019168152602001906001019080831161140f575b50505050509750600096505b87518710156114ad5761145c888881518110151561144d57fe5b90602001906020020151611176565b95509550955095509550955081156114a057888490806001815401808255809150509060018203906000526020600020016000909192909190915090600019169055505b8680600101975050611433565b888054806020026020016040519081016040528092919081815260200182805480156114fc57602002820191906000526020600020905b815460001916815260200190600101908083116114e4575b50505050509a505b50505050505050505050919050565b60066020528060005260406000206000915090505481565b6000600160038054905003905090565b60038181548110151561154a57fe5b9060005260206000209060080201600091509050806000018054600181600116156101000203166002900480601f0160208091040260200160405190810160405280929190818152602001828054600181600116156101000203166002900480156115f65780601f106115cb576101008083540402835291602001916115f6565b820191906000526020600020905b8154815290600101906020018083116115d957829003601f168201915b5050505050908060010160009054906101000a900473ffffffffffffffffffffffffffffffffffffffff16908060020154908060030154908060040154908060050154908060060154908060070160009054906101000a900460ff16905088565b60008060008034111561166957600080fd5b60066000856000191660001916815260200190815260200160002054915060008214156116cd577f2e36a7093f25f22bd4cbdeb6040174c3ba4c5fe8f1abc04e7c3c48f26c7413e060026040518082815260200191505060405180910390a1611927565b3373ffffffffffffffffffffffffffffffffffffffff166005838154811015156116f357fe5b906000526020600020906008020160010160009054906101000a900473ffffffffffffffffffffffffffffffffffffffff1673ffffffffffffffffffffffffffffffffffffffff1614151561177f577f2e36a7093f25f22bd4cbdeb6040174c3ba4c5fe8f1abc04e7c3c48f26c7413e060036040518082815260200191505060405180910390a1611927565b600060066000866000191660001916815260200190815260200160002081905550600160058054905003821415156118e35760016005805490500390506005818154811015156117cb57fe5b90600052602060002090600802016005838154811015156117e857fe5b9060005260206000209060080201600082015481600001906000191690556001820160009054906101000a900473ffffffffffffffffffffffffffffffffffffffff168160010160006101000a81548173ffffffffffffffffffffffffffffffffffffffff021916908373ffffffffffffffffffffffffffffffffffffffff1602179055506002820154816002019060001916905560038201548160030155600482015481600401556005820160009054906101000a900460ff168160050160006101000a81548160ff0219169083151502179055506006820154816006015560078201816007019080546118de9291906129fa565b509050505b7f5c098fc6091f34b53be138bd13af35c3082d14080fd720c188e0db7a508204738460405180826000191660001916815260200191505060405180910390a1600192505b5050919050565b600115156000809054906101000a900473ffffffffffffffffffffffffffffffffffffffff1673ffffffffffffffffffffffffffffffffffffffff16631cf52f2b336040518263ffffffff167c0100000000000000000000000000000000000000000000000000000000028152600401808273ffffffffffffffffffffffffffffffffffffffff1673ffffffffffffffffffffffffffffffffffffffff168152602001915050602060405180830381600087803b1580156119ee57600080fd5b505af1158015611a02573d6000803e3d6000fd5b505050506040513d6020811015611a1857600080fd5b81019080805190602001909291905050501515141515611a3757600080fd5b5050565b600581815481101515611a4a57fe5b90600052602060002090600802016000915090508060000154908060010160009054906101000a900473ffffffffffffffffffffffffffffffffffffffff16908060020154908060030154908060040154908060050160009054906101000a900460ff16908060060154905087565b7fc2c72288b8b26f191b17506c192e8f9464b9238c9ac1717dacd56db60d9af7da823383604051808481526020018373ffffffffffffffffffffffffffffffffffffffff1673ffffffffffffffffffffffffffffffffffffffff1681526020018260001916600019168152602001935050505060405180910390a15050565b60046020528060005260406000206000915090505481565b7f377802895493e1007b0c6ca3234c32e5f1121a6812f90896b8f9de99a7dd59d186868686868660405180876000191660001916815260200186600019166000191681526020018560001916600019168152602001848152602001836000191660001916815260200180602001828103825283818151815260200191508051906020019080838360005b83811015611bf5578082015181840152602081019050611bda565b50505050905090810190601f168015611c225780820380516001836020036101000a031916815260200191505b5097505050505050505060405180910390a1505050505050565b60008060006004600089600019166000191681526020019081526020016000205491506000821115611ca9577f2e36a7093f25f22bd4cbdeb6040174c3ba4c5fe8f1abc04e7c3c48f26c7413e060016040518082815260200191505060405180910390a160009250611ece565b60038054809190600101611cbd9190612a4c565b9050610100604051908101604052808a81526020013373ffffffffffffffffffffffffffffffffffffffff1681526020018960001916815260200188815260200187815260200186815260200185815260200160011515815250600382815481101515611d2657fe5b90600052602060002090600802016000820151816000019080519060200190611d50929190612a7e565b5060208201518160010160006101000a81548173ffffffffffffffffffffffffffffffffffffffff021916908373ffffffffffffffffffffffffffffffffffffffff16021790555060408201518160020190600019169055606082015181600301556080820151816004015560a0820151816005015560c0820151816006015560e08201518160070160006101000a81548160ff02191690831515021790555090505080600460008a60001916600019168152602001908152602001600020819055506000604051908082528060200260200182016040528015611e435781602001602082028038833980820191505090505b50600760008a600019166000191681526020019081526020016000209080519060200190611e72929190612afe565b503373ffffffffffffffffffffffffffffffffffffffff167f6e765c1505df7edb32788588e8f625dd368914ea995e3d429094152b826977a78960405180826000191660001916815260200191505060405180910390a2600192505b50509695505050505050565b7f61975b6e9c2f783367258f506c5343c03173466d02b63cfae4a4c8205edd6c5e338383604051808473ffffffffffffffffffffffffffffffffffffffff1673ffffffffffffffffffffffffffffffffffffffff16815260200183600019166000191681526020018260001916600019168152602001935050505060405180910390a15050565b7f1c8951346f8b3d14c2fdfc602ea418de955f130cb2ebb2fe9d334315282bc13f33878787878787604051808873ffffffffffffffffffffffffffffffffffffffff1673ffffffffffffffffffffffffffffffffffffffff1681526020018760001916600019168152602001866000191660001916815260200185600019166000191681526020018481526020018360001916600019168152602001826000191660001916815260200197505050505050505060405180910390a1505050505050565b7fc4b9eafc5284f835f533c6b1c52e3c95ad5a0589fa2180acab8df58bdd9c6e1a33848484604051808573ffffffffffffffffffffffffffffffffffffffff1673ffffffffffffffffffffffffffffffffffffffff16815260200184600019166000191681526020018360001916600019168152602001826000191660001916815260200194505050505060405180910390a1505050565b60008060606000806000803411156120d357600080fd5b6004600088600019166000191681526020019081526020016000205494506000851415612137577f2e36a7093f25f22bd4cbdeb6040174c3ba4c5fe8f1abc04e7c3c48f26c7413e060026040518082815260200191505060405180910390a16123fc565b3373ffffffffffffffffffffffffffffffffffffffff1660038681548110151561215d57fe5b906000526020600020906008020160010160009054906101000a900473ffffffffffffffffffffffffffffffffffffffff1673ffffffffffffffffffffffffffffffffffffffff161415156121e9577f2e36a7093f25f22bd4cbdeb6040174c3ba4c5fe8f1abc04e7c3c48f26c7413e060036040518082815260200191505060405180910390a16123fc565b6121f287611348565b935083519250600091505b8282101561223657838281518110151561221357fe5b90602001906020020151905061222881611657565b5081806001019250506121fd565b600060046000896000191660001916815260200190815260200160002081905550600160038054905003851415156123a257600360016003805490500381548110151561227f57fe5b906000526020600020906008020160038681548110151561229c57fe5b9060005260206000209060080201600082018160000190805460018160011615610100020316600290046122d1929190612b51565b506001820160009054906101000a900473ffffffffffffffffffffffffffffffffffffffff168160010160006101000a81548173ffffffffffffffffffffffffffffffffffffffff021916908373ffffffffffffffffffffffffffffffffffffffff16021790555060028201548160020190600019169055600382015481600301556004820154816004015560058201548160050155600682015481600601556007820160009054906101000a900460ff168160070160006101000a81548160ff0219169083151502179055509050505b60038054809190600190036123b79190612a4c565b507f5c098fc6091f34b53be138bd13af35c3082d14080fd720c188e0db7a508204738760405180826000191660001916815260200191505060405180910390a1600195505b5050505050919050565b600260009054906101000a900473ffffffffffffffffffffffffffffffffffffffff1681565b600080600034111561243d57600080fd5b60046000856000191660001916815260200190815260200160002054905060008114156124a5577f2e36a7093f25f22bd4cbdeb6040174c3ba4c5fe8f1abc04e7c3c48f26c7413e060026040518082815260200191505060405180910390a160009150612667565b3373ffffffffffffffffffffffffffffffffffffffff166003828154811015156124cb57fe5b906000526020600020906008020160010160009054906101000a900473ffffffffffffffffffffffffffffffffffffffff1673ffffffffffffffffffffffffffffffffffffffff1614151561255b577f2e36a7093f25f22bd4cbdeb6040174c3ba4c5fe8f1abc04e7c3c48f26c7413e060036040518082815260200191505060405180910390a160009150612667565b8260038281548110151561256b57fe5b906000526020600020906008020160070160006101000a81548160ff0219169083151502179055506003818154811015156125a257fe5b906000526020600020906008020160010160009054906101000a900473ffffffffffffffffffffffffffffffffffffffff1673ffffffffffffffffffffffffffffffffffffffff167f682fdbf1bda88460e1160d7bae3a4692b1cd3a74f99c5b8449bde1d6f13033b88560038481548110151561261b57fe5b906000526020600020906008020160070160009054906101000a900460ff16604051808360001916600019168152602001821515151581526020019250505060405180910390a2600191505b5092915050565b600080600034111561267f57600080fd5b60066000856000191660001916815260200190815260200160002054905060008114156126e7577f2e36a7093f25f22bd4cbdeb6040174c3ba4c5fe8f1abc04e7c3c48f26c7413e060026040518082815260200191505060405180910390a1600091506128a9565b3373ffffffffffffffffffffffffffffffffffffffff1660058281548110151561270d57fe5b906000526020600020906008020160010160009054906101000a900473ffffffffffffffffffffffffffffffffffffffff1673ffffffffffffffffffffffffffffffffffffffff1614151561279d577f2e36a7093f25f22bd4cbdeb6040174c3ba4c5fe8f1abc04e7c3c48f26c7413e060036040518082815260200191505060405180910390a1600091506128a9565b826005828154811015156127ad57fe5b906000526020600020906008020160050160006101000a81548160ff0219169083151502179055506005818154811015156127e457fe5b906000526020600020906008020160010160009054906101000a900473ffffffffffffffffffffffffffffffffffffffff1673ffffffffffffffffffffffffffffffffffffffff167f682fdbf1bda88460e1160d7bae3a4692b1cd3a74f99c5b8449bde1d6f13033b88560058481548110151561285d57fe5b906000526020600020906008020160050160009054906101000a900460ff16604051808360001916600019168152602001821515151581526020019250505060405180910390a2600191505b5092915050565b8154818355818111156128dd576008028160080283600052602060002091820191016128dc9190612bd8565b5b505050565b828054828255906000526020600020908101928215612924579160200282015b82811115612923578251829060001916905591602001919060010190612902565b5b5090506129319190612c6a565b5090565b6101006040519081016040528060608152602001600073ffffffffffffffffffffffffffffffffffffffff16815260200160008019168152602001600081526020016000815260200160008152602001600081526020016000151581525090565b6101006040519081016040528060008019168152602001600073ffffffffffffffffffffffffffffffffffffffff16815260200160008019168152602001600081526020016000815260200160001515815260200160008152602001606081525090565b828054828255906000526020600020908101928215612a3b5760005260206000209182015b82811115612a3a578254825591600101919060010190612a1f565b5b509050612a489190612c6a565b5090565b815481835581811115612a7957600802816008028360005260206000209182019101612a789190612c8f565b5b505050565b828054600181600116156101000203166002900490600052602060002090601f016020900481019282601f10612abf57805160ff1916838001178555612aed565b82800160010185558215612aed579182015b82811115612aec578251825591602001919060010190612ad1565b5b509050612afa9190612d21565b5090565b828054828255906000526020600020908101928215612b40579160200282015b82811115612b3f578251829060001916905591602001919060010190612b1e565b5b509050612b4d9190612c6a565b5090565b828054600181600116156101000203166002900490600052602060002090601f016020900481019282601f10612b8a5780548555612bc7565b82800160010185558215612bc757600052602060002091601f016020900482015b82811115612bc6578254825591600101919060010190612bab565b5b509050612bd49190612d21565b5090565b612c6791905b80821115612c63576000808201600090556001820160006101000a81549073ffffffffffffffffffffffffffffffffffffffff02191690556002820160009055600382016000905560048201600090556005820160006101000a81549060ff02191690556006820160009055600782016000612c5a9190612d46565b50600801612bde565b5090565b90565b612c8c91905b80821115612c88576000816000905550600101612c70565b5090565b90565b612d1e91905b80821115612d1a5760008082016000612cae9190612d67565b6001820160006101000a81549073ffffffffffffffffffffffffffffffffffffffff0219169055600282016000905560038201600090556004820160009055600582016000905560068201600090556007820160006101000a81549060ff021916905550600801612c95565b5090565b90565b612d4391905b80821115612d3f576000816000905550600101612d27565b5090565b90565b5080546000825590600052602060002090810190612d649190612c6a565b50565b50805460018160011615610100020316600290046000825580601f10612d8d5750612dac565b601f016020900490600052602060002090810190612dab9190612d21565b5b505600a165627a7a723058200d2f4541053831bece4df2d0dacd3ada5cc8cc217838ffaea760df7bc1e445a30029",
  "source": "pragma solidity ^0.4.23;\nimport \"./vpc.sol\";\nimport \"./fitchainLib.sol\";\n\n// https://www.reddit.com/r/ethdev/comments/6lbmhy/a_practical_guide_to_cheap_ipfs_hash_storage_in/\n\n/*\n * Start geth on rinkeby\n * geth --rinkeby --rpc --rpccorsdomain \"http://localhost:8080\" console\n * geth --rinkeby --rpc --rpccorsdomain \"*\" --ws --wsorigins=\"*\" --unlock 0x95d4ca7b9c8cc4f00871d95378f94ca24197ee2e console\n *\n*/\n\ncontract Registry {\n\n    Vpc registrar = Vpc(registrarAddress);\n\n    // Address of the fitchainRegistrar contract which holds all the Registrants\n    address public registrarAddress;\n    // Address of the account which deployed the contract. Used only to configure contract.\n    address public deployerAddress;\n\n\t/*****************************\n\t *  model_metric events      *\n\t ****************************/\n\n\t//////////////////////////////////////////////////////////////////////////////\n\t// TODO make obsolete when using state channel\n\tevent EntityCreated(address owner,bytes32 entityType,\n\t\t\t\t\t\tbytes32 entityId, bytes32 ipfs);\n    event EntityArchived(address owner, bytes32 entityType, bytes32 entityId);\n    event LogCreated(bytes32 project, bytes32 workspace, bytes32 job,\n\t\t\t\t\t uint timestamp, bytes32 channel, string payload);\n    event MetricCreated(address user, bytes32 project, bytes32 workspace,\n\t\t\t\t\t\tbytes32 job, uint timestamp, bytes32 key, bytes32 value);\n    event WorkspaceCreated(uint timestamp, address user, bytes32 project);\n\n\n\tfunction createEntity(bytes32 entityType, bytes32 entityId, bytes32 ipfs) public {\n        EntityCreated(msg.sender, entityType, entityId, ipfs);\n    }\n\n    function archiveEntity(bytes32 entityType, bytes32 entityId ) public {\n        EntityArchived(msg.sender, entityType, entityId);\n    }\n\n    function workOnProject(uint timestamp, bytes32 projectId) public {\n        WorkspaceCreated(timestamp, msg.sender, projectId);\n    }\n\n    function createLog(bytes32 project, bytes32 workspace, bytes32 job, uint timestamp,\n        bytes32 channel, string payload ) public {\n        LogCreated(project, workspace, job, timestamp, channel, payload);\n    }\n\n    function createMetric(bytes32 project, bytes32 workspace, bytes32 job,\n\t\t\t\t\t\t  uint timestamp, bytes32 key, bytes32 value) public {\n        MetricCreated(msg.sender, project, workspace, job, timestamp, key, value);\n    }\n\n\t/////////////////////////////////////////////////////////////////////////////////\n\n\t/*****************************\n\t *  registry events          *\n\t ****************************/\n\n    /*\n    * Creation event that gets triggered when a model is created.\n    * event\n    * @param ids - The identity of the thing.\n    * @param owner - The owner address.\n    */\n    event Created(bytes32 id, address indexed owner);\n\n    /*\n    * Update event that gets triggered when a model is updated.\n    * event\n    * @param ids - The identity of the thing.\n    * @param owner - The owner address.\n    * @param isValid - The validity of the thing.\n    */\n    event Updated(bytes32 id, address indexed owner, bool isValid);\n\n    /*\n    * Delete event, triggered when Thing is deleted.\n    * event\n    * @param ids - The identity of the thing.\n    * @param owner - The owner address.\n    */\n    event Deleted(bytes32 id);\n\n    /*\n    * Generic error event.\n    * event\n    * @param code - The error code.\n    * @param reference - Related references data for the Error event, e.g.: Identity, Address, etc.\n    * 1: Identity collision, already assigned to another Thing.\n    * 2: Not found, identity does not exist.\n    * 3: Unauthorized, modification only by owner.\n    * 4: Unknown schema specified.\n    * 5: Incorrect input, at least one identity is required.\n    * 6: Incorrect input, data is required.\n    * 7: Incorrect format of the identity, schema length and identity length cannot be empty.\n    * 8: Incorrect format of the identity, identity must be padded with trailing 0s.\n    * 9: Contract already configured\n    * 10: Challenge already closed\n    */\n    event Error(uint code);\n\n\t//uint256 max_int = 2**256;\n\n\t/* data structures */\n\tstruct Model {\n\t\t// identity of a model, eg.public key, architecture_hash, model_params_hash,etc.\n\t\tbytes identity;\n\t\t// Registrant address, who submitted the model\n\t\taddress ownerAddress;\n\t\t// where it is stored\n\t\tbytes32 ipfsAddress;\n\t\t// format it is stored\n\t\tuint storedAs; // 0:str, 1:bytes, 2:pyobj\n\t\tuint bounty;\n\t\tuint currentError;\n\t\tuint targetError;\n\t\t// Status of the Thing. false if compromised, revoked, etc.\n\t\tbool isValid;\n    }\n\n    // Models are stored in array\n    Model[] public models;\n    // Identity to model index pointer for lookups and duplicates prevention\n    mapping(bytes32 => uint) public idToModel;\n\n    struct Challenge {\n        bytes32 modelIdentity;   // model identity this challenge belongs to\n        address verifierAddress; // Verifier address\n        bytes32 ipfsAddress;     // IPFS address of validation data for this challenge\n        uint errorMetric;        // 0:elementwise match, 1:elementwise distance, 2:mse\n        uint validationResult;   // depends on errorMetric (accuracy, error_rate)\n        bool isActive;           // challenge can be closed only by smart contract\n        uint256 timestamp;\n        bytes32[] validatorAddress;\n    }\n\n    // Challenges are stored in the array\n    Challenge[] public challenges;\n\n    // Identity to Challenge index pointer for lookups and duplicates prevention\n    mapping(bytes32 => uint) public idToChallenge;\n    mapping(bytes32 => bytes32[]) public modelToChallenges;\n\n    struct Validator {\n        address validatorAddress;\n        uint deposit;\n        bool isActive;\n        uint reputationScore;\n    }\n\n    /*\n    * Function can't contain Ether value.\n    * modifier\n    */\n    modifier noEther() {\n      if (msg.value > 0) revert();\n      _;\n    }\n\n    /*\n    * Allow only registrants to exec the function.\n    * modifier\n    */\n    modifier isRegistrant() {\n    // TODO uncomment this in production\n    /*\n    fitchainRegistrar registrar = fitchainRegistrar(registrarAddress);\n      if (registrar.isActiveRegistrant(msg.sender)) {\n\t_;\n      }\n      */\n    _;\n    }\n\n    /*\n    * Allow only registrar to exec the function.\n    * modifier\n    */\n    modifier isRegistrar() {\n    // TODO uncomment this in production\n     /* fitchainRegistrar registrar = fitchainRegistrar(registrarAddress);\n      if (registrar.registrar() == msg.sender) {\n\t_;\n      }\n      */\n      _;\n    }\n\n    modifier onlyByModelOwner(uint gradientId) {\n        //require(msg.sender == models[grads[gradientId].modelId].owner);\n        _;\n  }\n\n    /*\n    * Initialization of the contract constructor\n    */\n    constructor() public payable {\n      // Initialize arrays. Leave first element empty, since mapping points non-existent keys to 0.\n      models.length++;\n      challenges.length++;\n      deployerAddress = msg.sender;\n    }\n\n    // WIP\n    function voteModel(bytes model_id, uint vote) public payable {\n        // need to be a verifier to vote a challenge\n        require(registrar.isActiveRegistrant(msg.sender) == true);\n\n    }\n\n    // TODO add timestamps\n    // otherwise a verifier can create and verify indefinitely\n    /*\n    * @param thing_id - identity of the thing to prove\n    * @param challengeHash - identity of the challenge to prove\n    * @param output - values of the proof\n    */\n    /*\n    function proveChallenge(bytes32 thing_id, bytes32 challengeHash, bytes32[] output) public returns(uint) {\n        uint matched=0;\n        // search in dictionary if challenge already exists\n        bytes32 idHash = keccak256(thing_id);\n        uint index = idToThing[idHash];\n        // Thing not found\n        if (index == 0)\n            {\n        \t  Error(2);\n        \t  return;\n        \t}\n\n        index = idToChallenge[challengeHash];\n        // challenge to prove not found\n        if (index == 0)\n    \t{\n    \t  Error(2);\n    \t  return;\n    \t}\n    \t// set proverClaim with output\n    \tChallenge storage this_challenge = challenges[index];\n    \t// this challenge has terminated\n    \tif (this_challenge.active == false){\n    \t    Error(10);\n    \t    return;\n    \t}\n    \t// mismatch between prover claim and verifier claim\n    \tif (output.length != this_challenge.output.length){\n    \t    Error(7);\n    \t    return;\n    \t}\n\n    \tthis_challenge.proverClaim = output;\n    \tfor(uint i=0; i< output.length; i++){\n    \t    if(output[i] == this_challenge.output[i]) matched++;\n    \t}\n    \t// deactivate this challenge\n    \tthis_challenge.active = false;\n    \treturn matched;\n    }\n    */\n\n    /*\n     * Create challenge for model thing_id\n     * @return challenge unique id on success, 0x0 otherwise\n    */\n    function createChallenge(bytes32 model_id, bytes32 ipfs_address)\n\t\tpublic returns(bytes32)\n    {\n\t\t// TODO should not create challenge of non valid model\n\n        // check that thing to be challenged exists\n        uint modelIndex = idToModel[model_id];\n        // model to be challenged does not exist\n        if(modelIndex == 0){\n            emit Error(2);\n\t        return;\n        }\n        // search in dictionary if challenge already exists\n        uint index = idToChallenge[ipfs_address];\n        // Challenge with such ID already exists\n        if (index > 0)\n    \t{\n    \t  //Error(1);\n    \t  // return instead the existing challengeHash\n    \t  return ipfs_address;\n    \t}\n\n        // Now after all verifications passed we can add the challenge\n        uint pos = challenges.length++;\n        // Creating structure in-place is 11k gas cheaper than assigning parameters separately.\n        // That's why methods like updateThingData, addIdentities are not reused here.\n        challenges[pos] = Challenge(model_id,\n                                    msg.sender,\n                                    ipfs_address,\n                                    0, 0,\n                                    true,\n                                    now,\n                                    new bytes32[](0x0)\n                                    );\n        // Update index\n        idToChallenge[ipfs_address] = pos;\n        bytes32[] storage model_challenges = modelToChallenges[model_id];\n        // add pos of this new challenge to model_challenges mapping\n        model_challenges.push(ipfs_address);\n        // \"Broadcast\" event\n        emit Created(ipfs_address, msg.sender);\n        return ipfs_address;\n    }\n\n    /*\n    * Create model without duplicates\n    * <bytes> model_id name of the thing to create\n    * <bytes32> ipfs address where thing is stored\n    * <uint> stored_as how to store thing 0:str, 1:bytes, 2:pyobj\n    * @return bool - success or fail\n    */\n    function createModel(bytes model_id,\n                         bytes32 ipfs_address,\n                         uint stored_as,\n                         uint bounty,\n                         uint current_error,\n                         uint target_error) payable public returns(bool) {\n\n      //cannot create two models with different id pointing to same ipfs address\n      //bytes32 idHash = FitchainLib.getSomethingHash(\"\",\"\", ipfs_address);\n      //bytes32 idHash = ipfs_address; //keccak256(ipfs_address);\n      uint index = idToModel[ipfs_address];\n      // model already exists\n      if (index > 0)\n        {\n    \t  emit Error(1);\n    \t  return false;\n    \t}\n\n      // Now after all verifications passed we can add the Thing\n      uint pos = models.length++;\n      // Creating structure in-place is 11k gas cheaper than assigning parameters separately.\n      // That's why methods like updateThingData, addIdentities are not reused here\n      models[pos] = Model(model_id, msg.sender,\n                          ipfs_address,\n                          stored_as,\n                          bounty, current_error, target_error,\n                          true);\n      // Update index\n      idToModel[ipfs_address] = pos;\n\n      // init list of challenges for this model\n      modelToChallenges[ipfs_address] = new bytes32[](0x0);\n\n      // \"Broadcast\" event\n      emit Created(ipfs_address, msg.sender);\n      return true;\n    }\n\n    function getNumberOfModels() public constant returns (uint numberOfModels) {\n      // FIXME are we sure of this -1??\n      return models.length - 1;\n\n    }\n\n    /*\n    * Return number of challenges of model_id\n    * @param thing_id - id of thing to count active challenges of\n    */\n    function getNumberOfChallenges(bytes32 model_id) public constant returns (uint) {\n      uint index = idToModel[model_id];\n      // model not found\n      if (index == 0) {\n    \temit Error(2);\n    \treturn;\n      }\n      return modelToChallenges[model_id].length;\n    }\n\n    /*\n    * Get model's information\n    * constant_function\n    * @param model_id - identity of the thing.\n    */\n    function getModel(bytes32 model_id) public constant returns(address, bytes32, uint, uint, uint, uint, bool) {\n      //uint index = idToThing[keccak256(thing_id)];\n      uint index = idToModel[model_id];\n      // thing not found\n      if (index == 0) {\n    \temit Error(2);\n    \treturn;\n      }\n\n      Model memory model = models[index];\n      return (model.ownerAddress,\n              model.ipfsAddress,\n              model.storedAs,\n              model.bounty,\n              model.currentError,\n              model.targetError,\n              model.isValid);\n    }\n\n    /*\n    * Given challenge unique id, return all fields of this challenge\n    * @param id - hash(model_id + input)\n    */\n    function getChallenge(bytes32 challenge_hash)\n\t\tpublic constant returns(bytes32 model_identity,\n\t\t\t\t\t\t\t\taddress verifier_address,\n\t\t\t\t\t\t\t\tbytes32 ipfs_address,\n\t\t\t\t\t\t\t\tuint error_metric,\n\t\t\t\t\t\t\t\tbool is_active,\n\t\t\t\t\t\t\t\tbytes32[] validator_address) {\n\t\t//Challenge memory challenge = challenges[index];\n\t\tuint index = idToChallenge[challenge_hash];\n\n\t\t// TODO return not found error\n\n\t\tChallenge memory challenge = challenges[index];\n\t\tmodel_identity    = challenge.modelIdentity;\n\t\tverifier_address  = challenge.verifierAddress;\n\t\tipfs_address      = challenge.ipfsAddress;\n\t\terror_metric      = challenge.errorMetric;\n\t\tis_active         = challenge.isActive;\n\t\tvalidator_address = challenge.validatorAddress;\n    }\n\n    /*  Return all active challenge hash(es) of this model_id\n     *\n    */\n    function getModelChallenges(bytes32 model_id) public constant returns(bytes32[]){\n        uint index = idToModel[model_id];\n        if (index == 0) {\n            emit Error(2);\n            return;\n        }\n\n        // challenge indexes of this thing\n        bytes32[] active_challenges;\n        bytes32[] memory all_challenges_id = modelToChallenges[model_id];\n\n        for (uint i=0; i<all_challenges_id.length; i++) {\n            var(model_identity,verifier_address,ipfs_address, error_metric, is_active, validator_address) = getChallenge(all_challenges_id[i]);\n            if(is_active)\n                active_challenges.push(ipfs_address);\n        }\n        return active_challenges;\n\t}\n\n    /*\n    * Delete previously added model\n    * @param model_id - model identity to delete\n    */\n    function deleteModel(bytes32 model_id) public isRegistrant noEther returns(bool) {\n\t\t// FIXME\n\t\tuint index = idToModel[model_id];\n\t\t// not found\n\t\tif (index == 0) {\n\t\t\temit Error(2);\n\t\t\treturn;\n\t\t}\n\n\t\t// not authorized\n\t\tif (models[index].ownerAddress != msg.sender) {\n\t\t\temit Error(3);\n\t\t\treturn;\n\t\t}\n\n\t\t// delete all challenges of this thing or invalidate them\n\t\tbytes32[] memory model_to_challenges = getModelChallenges(model_id);\n\t\tuint num_challenges = model_to_challenges.length;\n\n\t\t// deactivate all challenges\n\t\tfor (uint i=0; i<num_challenges; i++) {\n\t\t\tbytes32 ch = model_to_challenges[i];\n\t\t\tdeleteChallenge(ch);\n\t\t}\n\n\t\t// set index to 0\n\t\tidToModel[model_id] = 0;\n\t\t// Put last element in place of deleted one\n\t\tif (index != models.length - 1) {\n\t\t\t// Move last model to the place of deleted one.\n\t\t\tmodels[index] = models[models.length - 1];\n\t\t}\n\t\t// Delete last model\n\t\tmodels.length--;\n\t\t// \"Broadcast\" event with identities before they're lost.\n\t\temit Deleted(model_id);\n\t\treturn true;\n    }\n\n    function deleteChallenge(bytes32 challenge_id) public isRegistrant noEther returns(bool) {\n\t\tuint index = idToChallenge[challenge_id];\n\t\t// not found\n\t\tif (index == 0) {\n\t\t\temit Error(2);\n\t\t\treturn;\n\t\t}\n\n\t\t// not authorized\n\t\tif (challenges[index].verifierAddress != msg.sender) {\n\t\t\temit Error(3);\n\t\t\treturn;\n\t\t}\n\n\t\t// set index to 0\n\t\tidToChallenge[challenge_id] = 0;\n\n\t\t// Put last element in place of deleted one\n\t\tif (index != challenges.length - 1) {\n\t\t\t// Move last challenge to the place of deleted one\n\t\t\tuint last_challenge_idx = challenges.length -1 ;\n\t\t\tchallenges[index] = challenges[last_challenge_idx];\n\t\t}\n\n\t\t// Delete last challenge\n\t\t//challenges.length--;\n\t\temit Deleted(challenge_id);\n\t\treturn true;\n    }\n\n\n    /*\n    * Set validity of a model, only registrants allowed.\n    * public_function\n    * @param _id - The model to change.\n    * @param _isValid - The new validity flag of the model.\n    */\n    function setModelValid(bytes32 model_id, bool is_valid) public isRegistrant noEther constant returns(bool) {\n        uint index = idToModel[model_id];\n\n\t    // not found\n        if (index == 0) {\n            emit Error(2);\n            return false;\n        }\n\t    // not authorized\n        if (models[index].ownerAddress != msg.sender) {\n            emit Error(3);\n            return false;\n        }\n        // set valid field\n        models[index].isValid = is_valid;\n\n        // Broadcast event\n        emit Updated(model_id, models[index].ownerAddress, models[index].isValid);\n        return true;\n    }\n\n    /*\n    * Set challenge active/non_active, only registrants allowed.\n    * public_function\n    * @param challenge_id - The identity to change flag of\n    * @param is_active - The new validity of the challenge\n    */\n    function setChallengeActive(bytes32 challenge_id, bool is_active) public isRegistrant noEther returns(bool) {\n        uint index = idToChallenge[challenge_id];\n\n\t    // not found\n        if (index == 0) {\n            emit Error(2);\n            return false;\n        }\n\t    // not authorized\n        if (challenges[index].verifierAddress != msg.sender) {\n            emit Error(3);\n            return false;\n        }\n\n        // set valid field\n        challenges[index].isActive = is_active;\n\n        // Broadcast event\n        emit Updated(challenge_id,\n                challenges[index].verifierAddress,\n                challenges[index].isActive);\n        return true;\n    }\n}\n",
  "sourcePath": "/home/frag/Documents/fitchain/fitchain-contracts/contracts/Registry.sol",
  "compiler": {
    "name": "solc",
    "version": "0.4.24+commit.e67f0147.Emscripten.clang"
  },
  "schemaVersion": "2.0.1",
  "updatedAt": "2018-10-17T10:00:04.554Z"
}