{
  "contractName": "Registry",
  "abi": [
    {
      "constant": false,
      "inputs": [],
      "name": "renounceOwnership",
      "outputs": [],
      "payable": false,
      "stateMutability": "nonpayable",
      "type": "function"
    },
    {
      "constant": true,
      "inputs": [],
      "name": "owner",
      "outputs": [
        {
          "name": "",
          "type": "address"
        }
      ],
      "payable": false,
      "stateMutability": "view",
      "type": "function"
    },
    {
      "constant": true,
      "inputs": [],
      "name": "isOwner",
      "outputs": [
        {
          "name": "",
          "type": "bool"
        }
      ],
      "payable": false,
      "stateMutability": "view",
      "type": "function"
    },
    {
      "constant": false,
      "inputs": [
        {
          "name": "newOwner",
          "type": "address"
        }
      ],
      "name": "transferOwnership",
      "outputs": [],
      "payable": false,
      "stateMutability": "nonpayable",
      "type": "function"
    },
    {
      "anonymous": false,
      "inputs": [
        {
          "indexed": true,
          "name": "previousOwner",
          "type": "address"
        },
        {
          "indexed": true,
          "name": "newOwner",
          "type": "address"
        }
      ],
      "name": "OwnershipTransferred",
      "type": "event"
    },
    {
      "constant": false,
      "inputs": [
        {
          "name": "actorTypes",
          "type": "address[]"
        },
        {
          "name": "active",
          "type": "bool"
        }
      ],
      "name": "registerActor",
      "outputs": [
        {
          "name": "",
          "type": "bool"
        }
      ],
      "payable": false,
      "stateMutability": "nonpayable",
      "type": "function"
    },
    {
      "constant": false,
      "inputs": [],
      "name": "deregisterActor",
      "outputs": [
        {
          "name": "",
          "type": "bool"
        }
      ],
      "payable": false,
      "stateMutability": "nonpayable",
      "type": "function"
    },
    {
      "constant": false,
      "inputs": [],
      "name": "activateActor",
      "outputs": [],
      "payable": false,
      "stateMutability": "nonpayable",
      "type": "function"
    },
    {
      "constant": false,
      "inputs": [
        {
          "name": "actor",
          "type": "address"
        }
      ],
      "name": "deactivateActor",
      "outputs": [
        {
          "name": "",
          "type": "bool"
        }
      ],
      "payable": false,
      "stateMutability": "nonpayable",
      "type": "function"
    },
    {
      "constant": false,
      "inputs": [
        {
          "name": "actorType",
          "type": "address"
        }
      ],
      "name": "registerActorType",
      "outputs": [
        {
          "name": "",
          "type": "bool"
        }
      ],
      "payable": false,
      "stateMutability": "nonpayable",
      "type": "function"
    },
    {
      "constant": false,
      "inputs": [
        {
          "name": "actorType",
          "type": "address"
        }
      ],
      "name": "deregisterActorType",
      "outputs": [
        {
          "name": "",
          "type": "bool"
        }
      ],
      "payable": false,
      "stateMutability": "nonpayable",
      "type": "function"
    },
    {
      "constant": true,
      "inputs": [
        {
          "name": "actor",
          "type": "address"
        }
      ],
      "name": "isActorRegistered",
      "outputs": [
        {
          "name": "",
          "type": "bool"
        }
      ],
      "payable": false,
      "stateMutability": "view",
      "type": "function"
    },
    {
      "constant": true,
      "inputs": [
        {
          "name": "actor",
          "type": "address"
        }
      ],
      "name": "isActiveActor",
      "outputs": [
        {
          "name": "",
          "type": "bool"
        }
      ],
      "payable": false,
      "stateMutability": "view",
      "type": "function"
    },
    {
      "constant": true,
      "inputs": [
        {
          "name": "actorType",
          "type": "address"
        }
      ],
      "name": "isValidActorType",
      "outputs": [
        {
          "name": "",
          "type": "bool"
        }
      ],
      "payable": false,
      "stateMutability": "view",
      "type": "function"
    }
  ],
  "bytecode": "0x6080604081905260008054600160a060020a0319163317808255600160a060020a0316917f8be0079c531659141344cd1fd0a4f28419497f9722a3daafe3b4186f6b6457e0908290a3610a1d806100576000396000f3006080604052600436106100c45763ffffffff7c0100000000000000000000000000000000000000000000000000000000600035041663164fe1e681146100c95780632bc6aa4e146100f25780632d9ed96d146101135780633c6b3b0a14610134578063715018a61461015557806382bb90761461016c5780638da5cb5b1461018d5780638f32d59b146101be5780639c24d078146101d3578063d0f9cbfc1461022c578063e092047a14610241578063f2fde38b14610262578063fc43669514610283575b600080fd5b3480156100d557600080fd5b506100de6102a4565b604080519115158252519081900360200190f35b3480156100fe57600080fd5b506100de600160a060020a03600435166103bf565b34801561011f57600080fd5b506100de600160a060020a03600435166103dd565b34801561014057600080fd5b506100de600160a060020a0360043516610417565b34801561016157600080fd5b5061016a610435565b005b34801561017857600080fd5b506100de600160a060020a036004351661049f565b34801561019957600080fd5b506101a26104c2565b60408051600160a060020a039092168252519081900360200190f35b3480156101ca57600080fd5b506100de6104d1565b3480156101df57600080fd5b50604080516020600480358082013583810280860185019096528085526100de953695939460249493850192918291850190849080828437509497505050509135151592506104e2915050565b34801561023857600080fd5b5061016a6106c2565b34801561024d57600080fd5b506100de600160a060020a0360043516610749565b34801561026e57600080fd5b5061016a600160a060020a0360043516610787565b34801561028f57600080fd5b506100de600160a060020a03600435166107a6565b3360009081526001602052604081205460ff16151561030d576040805160e560020a62461bcd02815260206004820152601960248201527f52656769737472616e7420646f6573206e6f7420657869737400000000000000604482015290519081900360640190fd5b33600090815260016020526040902054610100900460ff16156103a0576040805160e560020a62461bcd02815260206004820152602760248201527f52656769737472616e74206973206163746976652c2063616e206e6f7420646560448201527f7267697374657200000000000000000000000000000000000000000000000000606482015290519081900360840190fd5b50336000908152600160208190526040909120805460ff191690555b90565b600160a060020a031660009081526001602052604090205460ff1690565b60006103e76104d1565b15156103f257600080fd5b50600160a060020a03166000908152600260205260409020805460ff19169055600190565b600160a060020a031660009081526002602052604090205460ff1690565b61043d6104d1565b151561044857600080fd5b60008054604051600160a060020a03909116907f8be0079c531659141344cd1fd0a4f28419497f9722a3daafe3b4186f6b6457e0908390a36000805473ffffffffffffffffffffffffffffffffffffffff19169055565b600160a060020a0316600090815260016020526040902054610100900460ff1690565b600054600160a060020a031690565b600054600160a060020a0316331490565b3360009081526001602052604081205460ff161561054a576040805160e560020a62461bcd02815260206004820152601960248201527f52656769737472616e7420616c72656164792065786973747300000000000000604482015290519081900360640190fd5b8260008082511115156105a7576040805160e560020a62461bcd02815260206004820152601760248201527f696e76616c6964206e756d626572206f66207479706573000000000000000000604482015290519081900360640190fd5b5060005b815181101561064a576002600083838151811015156105c657fe5b6020908102909101810151600160a060020a031682528101919091526040016000205460ff161515610642576040805160e560020a62461bcd02815260206004820152601260248201527f696e76616c6964206163746f7220747970650000000000000000000000000000604482015290519081900360640190fd5b6001016105ab565b60408051606081018252600180825286151560208084019182528385018a81523360009081528483529590952084518154935115156101000261ff001991151560ff19909516949094171692909217825593518051939491936106b493850192919091019061094e565b506001979650505050505050565b3360009081526001602052604090205460ff16151561072b576040805160e560020a62461bcd02815260206004820152601960248201527f52656769737472616e7420646f6573206e6f7420657869737400000000000000604482015290519081900360640190fd5b336000908152600160205260409020805461ff001916610100179055565b60006107536104d1565b151561075e57600080fd5b50600160a060020a03166000908152600260205260409020805460ff1916600190811790915590565b61078f6104d1565b151561079a57600080fd5b6107a3816108d1565b50565b33600090815260026020526040812054829060ff161515610837576040805160e560020a62461bcd02815260206004820152602560248201527f696e76616c69642063616c6c2066726f6d206163746f72207479706520636f6e60448201527f7472616374000000000000000000000000000000000000000000000000000000606482015290519081900360840190fd5b600160a060020a03811660009081526001602052604090205460ff1615156108a9576040805160e560020a62461bcd02815260206004820152601960248201527f52656769737472616e7420646f6573206e6f7420657869737400000000000000604482015290519081900360640190fd5b5050600160a060020a03166000908152600160208190526040909120805461ff001916905590565b600160a060020a03811615156108e657600080fd5b60008054604051600160a060020a03808516939216917f8be0079c531659141344cd1fd0a4f28419497f9722a3daafe3b4186f6b6457e091a36000805473ffffffffffffffffffffffffffffffffffffffff1916600160a060020a0392909216919091179055565b8280548282559060005260206000209081019282156109b0579160200282015b828111156109b0578251825473ffffffffffffffffffffffffffffffffffffffff1916600160a060020a0390911617825560209092019160019091019061096e565b506109bc9291506109c0565b5090565b6103bc91905b808211156109bc57805473ffffffffffffffffffffffffffffffffffffffff191681556001016109c65600a165627a7a7230582039d8fe04f9952411844d1a991f847b419be461e24bde8cdb67997cf4e54f63c70029",
  "source": "pragma solidity 0.4.25;\n\nimport 'openzeppelin-solidity/contracts/ownership/Ownable.sol';\n\n/**\n@title Fitchain Actor Registry\n@author Team: Fitchain Team\n*/\n\ncontract Registry is Ownable {\n\n    struct Registrant {\n        bool exists;\n        bool isActive;\n        address[] actorTypes;\n    }\n\n    mapping(address => Registrant) registrants;\n    mapping(address => bool) actorContractsTypes;\n\n    modifier canDeregister() {\n        require(!registrants[msg.sender].isActive, 'Registrant is active, can not dergister');\n        _;\n    }\n\n    modifier onlyNotRegistered() {\n        require(!registrants[msg.sender].exists, 'Registrant already exists');\n        _;\n    }\n\n    modifier onlyRegistered() {\n        require(registrants[msg.sender].exists, 'Registrant does not exist');\n        _;\n    }\n\n    modifier canDeactivate(address actor) {\n        require(actorContractsTypes[msg.sender], 'invalid call from actor type contract');\n        require(registrants[actor].exists, 'Registrant does not exist');\n        _;\n    }\n\n    modifier onlyValidTypes(address[] Types) {\n        require(Types.length > 0, 'invalid number of types');\n        for (uint256 i=0; i < Types.length; i++) {\n            require(actorContractsTypes[Types[i]], 'invalid actor type');\n        }\n        _;\n    }\n\n    function registerActor(address[] actorTypes, bool active) public onlyNotRegistered() onlyValidTypes(actorTypes) returns(bool) {\n        registrants[msg.sender] = Registrant(true, active, actorTypes);\n        return true;\n    }\n\n\n    function deregisterActor() public onlyRegistered() canDeregister() returns (bool) {\n        registrants[msg.sender].exists = false;\n        return true;\n    }\n\n    function activateActor() public onlyRegistered() {\n        registrants[msg.sender].isActive = true;\n    }\n\n    function deactivateActor(address actor) public canDeactivate(actor) returns(bool) {\n        registrants[actor].isActive = false;\n        return true;\n    }\n\n    function registerActorType(address actorType) public onlyOwner() returns(bool) {\n        actorContractsTypes[actorType] = true;\n        return true;\n    }\n\n    function deregisterActorType(address actorType) public onlyOwner() returns(bool) {\n        actorContractsTypes[actorType] = false;\n        return true;\n    }\n\n    function isActorRegistered(address actor) public view returns(bool) {\n        return registrants[actor].exists;\n    }\n\n    function isActiveActor(address actor) public view returns(bool) {\n        return registrants[actor].isActive;\n    }\n\n    function isValidActorType(address actorType) public view returns(bool){\n        return actorContractsTypes[actorType];\n    }\n}",
  "sourcePath": "/Users/ahmed/Documents/github_projects/aabdulwahed/fitchain-contracts/contracts/Registry.sol",
  "compiler": {
    "name": "solc",
    "version": "0.4.25+commit.59dbf8f1.Emscripten.clang"
  },
  "schemaVersion": "3.0.0-beta.0",
  "updatedAt": "2018-11-16T14:02:12.235Z"
}