{
  "contractName": "Registry",
  "abi": [
    {
      "constant": false,
      "inputs": [],
      "name": "renounceOwnership",
      "outputs": [],
      "payable": false,
      "stateMutability": "nonpayable",
      "type": "function"
    },
    {
      "constant": true,
      "inputs": [],
      "name": "owner",
      "outputs": [
        {
          "name": "",
          "type": "address"
        }
      ],
      "payable": false,
      "stateMutability": "view",
      "type": "function"
    },
    {
      "constant": true,
      "inputs": [],
      "name": "isOwner",
      "outputs": [
        {
          "name": "",
          "type": "bool"
        }
      ],
      "payable": false,
      "stateMutability": "view",
      "type": "function"
    },
    {
      "constant": false,
      "inputs": [
        {
          "name": "newOwner",
          "type": "address"
        }
      ],
      "name": "transferOwnership",
      "outputs": [],
      "payable": false,
      "stateMutability": "nonpayable",
      "type": "function"
    },
    {
      "anonymous": false,
      "inputs": [
        {
          "indexed": true,
          "name": "previousOwner",
          "type": "address"
        },
        {
          "indexed": true,
          "name": "newOwner",
          "type": "address"
        }
      ],
      "name": "OwnershipTransferred",
      "type": "event"
    },
    {
      "constant": false,
      "inputs": [
        {
          "name": "actorTypes",
          "type": "address[]"
        },
        {
          "name": "active",
          "type": "bool"
        },
        {
          "name": "slots",
          "type": "uint256"
        }
      ],
      "name": "registerActor",
      "outputs": [
        {
          "name": "",
          "type": "bool"
        }
      ],
      "payable": false,
      "stateMutability": "nonpayable",
      "type": "function"
    },
    {
      "constant": false,
      "inputs": [],
      "name": "deregisterActor",
      "outputs": [
        {
          "name": "",
          "type": "bool"
        }
      ],
      "payable": false,
      "stateMutability": "nonpayable",
      "type": "function"
    },
    {
      "constant": false,
      "inputs": [],
      "name": "activateActor",
      "outputs": [],
      "payable": false,
      "stateMutability": "nonpayable",
      "type": "function"
    },
    {
      "constant": false,
      "inputs": [
        {
          "name": "actor",
          "type": "address"
        }
      ],
      "name": "deactivateActor",
      "outputs": [
        {
          "name": "",
          "type": "bool"
        }
      ],
      "payable": false,
      "stateMutability": "nonpayable",
      "type": "function"
    },
    {
      "constant": false,
      "inputs": [
        {
          "name": "actorType",
          "type": "address"
        }
      ],
      "name": "registerActorType",
      "outputs": [
        {
          "name": "",
          "type": "bool"
        }
      ],
      "payable": false,
      "stateMutability": "nonpayable",
      "type": "function"
    },
    {
      "constant": false,
      "inputs": [
        {
          "name": "actorType",
          "type": "address"
        }
      ],
      "name": "deregisterActorType",
      "outputs": [
        {
          "name": "",
          "type": "bool"
        }
      ],
      "payable": false,
      "stateMutability": "nonpayable",
      "type": "function"
    },
    {
      "constant": true,
      "inputs": [
        {
          "name": "actor",
          "type": "address"
        }
      ],
      "name": "isActorRegistered",
      "outputs": [
        {
          "name": "",
          "type": "bool"
        }
      ],
      "payable": false,
      "stateMutability": "view",
      "type": "function"
    },
    {
      "constant": true,
      "inputs": [
        {
          "name": "actor",
          "type": "address"
        }
      ],
      "name": "isActiveActor",
      "outputs": [
        {
          "name": "",
          "type": "bool"
        }
      ],
      "payable": false,
      "stateMutability": "view",
      "type": "function"
    },
    {
      "constant": true,
      "inputs": [
        {
          "name": "actor",
          "type": "address"
        }
      ],
      "name": "getActorActiveSlots",
      "outputs": [
        {
          "name": "",
          "type": "uint256"
        }
      ],
      "payable": false,
      "stateMutability": "view",
      "type": "function"
    },
    {
      "constant": true,
      "inputs": [
        {
          "name": "actorType",
          "type": "address"
        }
      ],
      "name": "isValidActorType",
      "outputs": [
        {
          "name": "",
          "type": "bool"
        }
      ],
      "payable": false,
      "stateMutability": "view",
      "type": "function"
    },
    {
      "constant": true,
      "inputs": [
        {
          "name": "actorType",
          "type": "address"
        }
      ],
      "name": "getAvaliableRegistrantsByType",
      "outputs": [
        {
          "name": "actors",
          "type": "address[]"
        }
      ],
      "payable": false,
      "stateMutability": "view",
      "type": "function"
    },
    {
      "constant": false,
      "inputs": [
        {
          "name": "actor",
          "type": "address"
        }
      ],
      "name": "decrementActorSlots",
      "outputs": [
        {
          "name": "",
          "type": "bool"
        }
      ],
      "payable": false,
      "stateMutability": "nonpayable",
      "type": "function"
    },
    {
      "constant": false,
      "inputs": [
        {
          "name": "actor",
          "type": "address"
        }
      ],
      "name": "incrementActorSlots",
      "outputs": [
        {
          "name": "",
          "type": "bool"
        }
      ],
      "payable": false,
      "stateMutability": "nonpayable",
      "type": "function"
    }
  ],
  "bytecode": "0x6080604081905260008054600160a060020a0319163317808255600160a060020a0316917f8be0079c531659141344cd1fd0a4f28419497f9722a3daafe3b4186f6b6457e0908290a3610fee806100576000396000f3006080604052600436106100f05763ffffffff7c0100000000000000000000000000000000000000000000000000000000600035041663149fe50981146100f5578063164fe1e61461012a5780632bc6aa4e1461013f5780632d9ed96d146101605780633c6b3b0a1461018157806357f7e58f146101a2578063715018a614610213578063772279dd1461022a57806382bb90761461024b5780638da5cb5b1461026c5780638f32d59b1461029d578063a9af4e2e146102b2578063ae7ca1e91461030e578063d0f9cbfc14610341578063e092047a14610356578063f2fde38b14610377578063fc43669514610398575b600080fd5b34801561010157600080fd5b50610116600160a060020a03600435166103b9565b604080519115158252519081900360200190f35b34801561013657600080fd5b5061011661051b565b34801561014b57600080fd5b50610116600160a060020a0360043516610636565b34801561016c57600080fd5b50610116600160a060020a0360043516610654565b34801561018d57600080fd5b50610116600160a060020a03600435166106a6565b3480156101ae57600080fd5b506101c3600160a060020a03600435166106c4565b60408051602080825283518183015283519192839290830191858101910280838360005b838110156101ff5781810151838201526020016101e7565b505050509050019250505060405180910390f35b34801561021f57600080fd5b506102286107b3565b005b34801561023657600080fd5b50610116600160a060020a036004351661081d565b34801561025757600080fd5b50610116600160a060020a036004351661097f565b34801561027857600080fd5b506102816109a2565b60408051600160a060020a039092168252519081900360200190f35b3480156102a957600080fd5b506101166109b1565b3480156102be57600080fd5b5060408051602060048035808201358381028086018501909652808552610116953695939460249493850192918291850190849080828437509497505050508235151593505050602001356109c2565b34801561031a57600080fd5b5061032f600160a060020a0360043516610c31565b60408051918252519081900360200190f35b34801561034d57600080fd5b50610228610c50565b34801561036257600080fd5b50610116600160a060020a0360043516610cd7565b34801561038357600080fd5b50610228600160a060020a0360043516610d15565b3480156103a457600080fd5b50610116600160a060020a0360043516610d34565b60008181805b600160a060020a038316600090815260016020526040902060020154811161046b57600160a060020a038316600090815260016020526040902060020180548290811061040857fe5b600091825260209091200154600160a060020a031633141561046357600160a060020a038316600090815260016020526040902060020180548290811061044b57fe5b600091825260209091200154600160a060020a031691505b6001016103bf565b600160a060020a03821633146104f0576040805160e560020a62461bcd028152602060048201526024808201527f756e61626c6520746f206368616e676520746865206e756d626572206f66207360448201527f6c6f747300000000000000000000000000000000000000000000000000000000606482015290519081900360840190fd5b505050600160a060020a03909116600090815260016020819052604090912001805460001901905590565b3360009081526001602052604081205460ff161515610584576040805160e560020a62461bcd02815260206004820152601960248201527f52656769737472616e7420646f6573206e6f7420657869737400000000000000604482015290519081900360640190fd5b33600090815260016020526040902054610100900460ff1615610617576040805160e560020a62461bcd02815260206004820152602760248201527f52656769737472616e74206973206163746976652c2063616e206e6f7420646560448201527f7267697374657200000000000000000000000000000000000000000000000000606482015290519081900360840190fd5b50336000908152600160208190526040909120805460ff191690555b90565b600160a060020a031660009081526001602052604090205460ff1690565b600061065e6109b1565b151561066957600080fd5b600160a060020a0382166000908152600260209081526040808320805460ff191690556003909152812061069d9082610edc565b50600192915050565b600160a060020a031660009081526002602052604090205460ff1690565b60606000805b600160a060020a0384166000908152600360205260409020548110156107ac57600160a060020a03841660009081526003602052604081208054600192839290918590811061071557fe5b6000918252602080832090910154600160a060020a03168352820192909252604001902060010154106107a457600160a060020a038416600090815260036020526040902080548290811061076657fe5b6000918252602090912001548351600160a060020a039091169084908490811061078c57fe5b600160a060020a039092166020928302909101909101525b6001016106ca565b5050919050565b6107bb6109b1565b15156107c657600080fd5b60008054604051600160a060020a03909116907f8be0079c531659141344cd1fd0a4f28419497f9722a3daafe3b4186f6b6457e0908390a36000805473ffffffffffffffffffffffffffffffffffffffff19169055565b60008181805b600160a060020a03831660009081526001602052604090206002015481116108cf57600160a060020a038316600090815260016020526040902060020180548290811061086c57fe5b600091825260209091200154600160a060020a03163314156108c757600160a060020a03831660009081526001602052604090206002018054829081106108af57fe5b600091825260209091200154600160a060020a031691505b600101610823565b600160a060020a0382163314610954576040805160e560020a62461bcd028152602060048201526024808201527f756e61626c6520746f206368616e676520746865206e756d626572206f66207360448201527f6c6f747300000000000000000000000000000000000000000000000000000000606482015290519081900360840190fd5b505050600160a060020a03909116600090815260016020819052604090912081018054909101905590565b600160a060020a0316600090815260016020526040902054610100900460ff1690565b600054600160a060020a031690565b600054600160a060020a0316331490565b33600090815260016020526040812054819060ff1615610a2c576040805160e560020a62461bcd02815260206004820152601960248201527f52656769737472616e7420616c72656164792065786973747300000000000000604482015290519081900360640190fd5b846000808251111515610a89576040805160e560020a62461bcd02815260206004820152601760248201527f696e76616c6964206e756d626572206f66207479706573000000000000000000604482015290519081900360640190fd5b5060005b8151811015610b2c57600260008383815181101515610aa857fe5b6020908102909101810151600160a060020a031682528101919091526040016000205460ff161515610b24576040805160e560020a62461bcd02815260206004820152601260248201527f696e76616c6964206163746f7220747970650000000000000000000000000000604482015290519081900360640190fd5b600101610a8d565b60408051608081018252600180825288151560208084019182528385018a8152606085018d81523360009081528584529690962085518154945115156101000261ff001991151560ff199096169590951716939093178355519282019290925592518051929392610ba39260028501920190610f05565b506000945050505b86518311610c2457600360008885815181101515610bc557fe5b6020908102909101810151600160a060020a0316825281810192909252604001600090812080546001818101835591835292909120909101805473ffffffffffffffffffffffffffffffffffffffff1916331790559290920191610bab565b5060019695505050505050565b600160a060020a03166000908152600160208190526040909120015490565b3360009081526001602052604090205460ff161515610cb9576040805160e560020a62461bcd02815260206004820152601960248201527f52656769737472616e7420646f6573206e6f7420657869737400000000000000604482015290519081900360640190fd5b336000908152600160205260409020805461ff001916610100179055565b6000610ce16109b1565b1515610cec57600080fd5b50600160a060020a03166000908152600260205260409020805460ff1916600190811790915590565b610d1d6109b1565b1515610d2857600080fd5b610d3181610e5f565b50565b33600090815260026020526040812054829060ff161515610dc5576040805160e560020a62461bcd02815260206004820152602560248201527f696e76616c69642063616c6c2066726f6d206163746f72207479706520636f6e60448201527f7472616374000000000000000000000000000000000000000000000000000000606482015290519081900360840190fd5b600160a060020a03811660009081526001602052604090205460ff161515610e37576040805160e560020a62461bcd02815260206004820152601960248201527f52656769737472616e7420646f6573206e6f7420657869737400000000000000604482015290519081900360640190fd5b5050600160a060020a03166000908152600160208190526040909120805461ff001916905590565b600160a060020a0381161515610e7457600080fd5b60008054604051600160a060020a03808516939216917f8be0079c531659141344cd1fd0a4f28419497f9722a3daafe3b4186f6b6457e091a36000805473ffffffffffffffffffffffffffffffffffffffff1916600160a060020a0392909216919091179055565b815481835581811115610f0057600083815260209020610f00918101908301610f77565b505050565b828054828255906000526020600020908101928215610f67579160200282015b82811115610f67578251825473ffffffffffffffffffffffffffffffffffffffff1916600160a060020a03909116178255602090920191600190910190610f25565b50610f73929150610f91565b5090565b61063391905b80821115610f735760008155600101610f7d565b61063391905b80821115610f7357805473ffffffffffffffffffffffffffffffffffffffff19168155600101610f975600a165627a7a723058206313992820543f0ac3c0ce0f6d65f5233ba2ce19870461235c82af294d86fae30029",
  "source": "pragma solidity 0.4.25;\n\nimport 'openzeppelin-solidity/contracts/ownership/Ownable.sol';\n\n/**\n@title Fitchain Actors Registry\n@author Team: Fitchain Team\n*/\n\ncontract Registry is Ownable {\n\n    struct Registrant {\n        bool exists;\n        bool isActive;\n        uint256 slots;\n        address[] actorTypes;\n    }\n\n    mapping(address => Registrant) registrants;\n    mapping(address => bool) actorContractsTypes;\n    mapping(address => address[]) contractType2Registrants;\n\n    modifier canDeregister() {\n        require(!registrants[msg.sender].isActive, 'Registrant is active, can not dergister');\n        _;\n    }\n\n    modifier onlyNotRegistered() {\n        require(!registrants[msg.sender].exists, 'Registrant already exists');\n        _;\n    }\n\n    modifier onlyRegistered() {\n        require(registrants[msg.sender].exists, 'Registrant does not exist');\n        _;\n    }\n\n    modifier canDeactivate(address actor) {\n        require(actorContractsTypes[msg.sender], 'invalid call from actor type contract');\n        require(registrants[actor].exists, 'Registrant does not exist');\n        _;\n    }\n\n    modifier onlyValidTypes(address[] Types) {\n        require(Types.length > 0, 'invalid number of types');\n        for (uint256 i=0; i < Types.length; i++) {\n            require(actorContractsTypes[Types[i]], 'invalid actor type');\n        }\n        _;\n    }\n\n    modifier canChangeSlots(address actor){\n        address actorType = address(0);\n        for (uint256 i=0; i<= registrants[actor].actorTypes.length; i++){\n            if(msg.sender == registrants[actor].actorTypes[i]) actorType = registrants[actor].actorTypes[i];\n        }\n        require(actorType == msg.sender, 'unable to change the number of slots');\n        _;\n    }\n\n    function registerActor(address[] actorTypes, bool active, uint256 slots) public onlyNotRegistered() onlyValidTypes(actorTypes) returns(bool) {\n        //TODO: validate slots number and avoid integer overflow/underflow.\n        registrants[msg.sender] = Registrant(true, active, slots, actorTypes);\n        for(uint i=0; i<= actorTypes.length; i++){\n            contractType2Registrants[actorTypes[i]].push(msg.sender);\n        }\n        return true;\n    }\n\n\n    function deregisterActor() public onlyRegistered() canDeregister() returns (bool) {\n        registrants[msg.sender].exists = false;\n        return true;\n    }\n\n    function activateActor() public onlyRegistered() {\n        registrants[msg.sender].isActive = true;\n    }\n\n    function deactivateActor(address actor) public canDeactivate(actor) returns(bool) {\n        registrants[actor].isActive = false;\n        return true;\n    }\n\n    function registerActorType(address actorType) public onlyOwner() returns(bool) {\n        actorContractsTypes[actorType] = true;\n        return true;\n    }\n\n    function deregisterActorType(address actorType) public onlyOwner() returns(bool) {\n        actorContractsTypes[actorType] = false;\n        contractType2Registrants[actorType].length = 0;\n        return true;\n    }\n\n    function isActorRegistered(address actor) public view returns(bool) {\n        return registrants[actor].exists;\n    }\n\n    function isActiveActor(address actor) public view returns(bool) {\n        return registrants[actor].isActive;\n    }\n\n    function getActorActiveSlots(address actor) public view returns(uint256) {\n        return registrants[actor].slots;\n    }\n\n    function isValidActorType(address actorType) public view returns(bool){\n        return actorContractsTypes[actorType];\n    }\n\n    function getAvaliableRegistrantsByType(address actorType) public view returns(address[] actors) {\n        uint256 j =0;\n        for (uint256 i=0; i < contractType2Registrants[actorType].length; i++){\n            if(registrants[contractType2Registrants[actorType][i]].slots >= 1)\n            actors[j] = contractType2Registrants[actorType][i];\n        }\n    }\n\n    function decrementActorSlots(address actor) public canChangeSlots(actor) returns(bool){\n        //TODO: this operation not secure\n        registrants[actor].slots -=1;\n    }\n\n    function incrementActorSlots(address actor) public canChangeSlots(actor) returns(bool){\n        //TODO: this operation not secure\n        registrants[actor].slots +=1;\n    }\n}",
  "sourcePath": "/Users/ahmed/Documents/github_projects/aabdulwahed/fitchain-contracts/contracts/Registry.sol",
  "compiler": {
    "name": "solc",
    "version": "0.4.25+commit.59dbf8f1.Emscripten.clang"
  },
  "schemaVersion": "3.0.0-beta.0",
  "updatedAt": "2018-11-17T10:22:13.766Z"
}