{
  "contractName": "VerifiersPool",
  "abi": [
    {
      "inputs": [
        {
          "name": "_minKVerifiers",
          "type": "uint256"
        },
        {
          "name": "_minStake",
          "type": "uint256"
        },
        {
          "name": "_commitTimeout",
          "type": "uint256"
        },
        {
          "name": "_revealTimeout",
          "type": "uint256"
        },
        {
          "name": "_commitReveal",
          "type": "address"
        },
        {
          "name": "_registry",
          "type": "address"
        }
      ],
      "payable": false,
      "stateMutability": "nonpayable",
      "type": "constructor"
    },
    {
      "anonymous": false,
      "inputs": [
        {
          "indexed": false,
          "name": "challengeId",
          "type": "bytes32"
        },
        {
          "indexed": false,
          "name": "verifiers",
          "type": "address[]"
        },
        {
          "indexed": false,
          "name": "proofId",
          "type": "bytes32"
        },
        {
          "indexed": false,
          "name": "testingData",
          "type": "bytes32"
        },
        {
          "indexed": false,
          "name": "state",
          "type": "bool"
        }
      ],
      "name": "ChallengeInitialized",
      "type": "event"
    },
    {
      "anonymous": false,
      "inputs": [
        {
          "indexed": false,
          "name": "challengeId",
          "type": "bytes32"
        },
        {
          "indexed": false,
          "name": "verifiers",
          "type": "address[]"
        },
        {
          "indexed": false,
          "name": "state",
          "type": "bool"
        }
      ],
      "name": "CommitPhaseStarted",
      "type": "event"
    },
    {
      "anonymous": false,
      "inputs": [
        {
          "indexed": false,
          "name": "losers",
          "type": "address[]"
        },
        {
          "indexed": false,
          "name": "state",
          "type": "int8"
        }
      ],
      "name": "CommitmentRevealResult",
      "type": "event"
    },
    {
      "constant": true,
      "inputs": [
        {
          "name": "challengeId",
          "type": "bytes32"
        }
      ],
      "name": "doesChallengeExist",
      "outputs": [
        {
          "name": "",
          "type": "bool"
        }
      ],
      "payable": false,
      "stateMutability": "view",
      "type": "function"
    },
    {
      "constant": false,
      "inputs": [
        {
          "name": "modelId",
          "type": "bytes32"
        },
        {
          "name": "challengeId",
          "type": "bytes32"
        },
        {
          "name": "wallTime",
          "type": "uint256"
        },
        {
          "name": "kVerifiers",
          "type": "uint256"
        },
        {
          "name": "testingData",
          "type": "bytes32"
        }
      ],
      "name": "initChallenge",
      "outputs": [
        {
          "name": "",
          "type": "bool"
        }
      ],
      "payable": false,
      "stateMutability": "nonpayable",
      "type": "function"
    },
    {
      "constant": false,
      "inputs": [
        {
          "name": "challengeId",
          "type": "bytes32"
        }
      ],
      "name": "startCommitRevealPhase",
      "outputs": [
        {
          "name": "",
          "type": "bool"
        }
      ],
      "payable": false,
      "stateMutability": "nonpayable",
      "type": "function"
    },
    {
      "constant": false,
      "inputs": [
        {
          "name": "challengeId",
          "type": "bytes32"
        }
      ],
      "name": "getCommitRevealResults",
      "outputs": [
        {
          "name": "",
          "type": "address[]"
        },
        {
          "name": "",
          "type": "int8"
        }
      ],
      "payable": false,
      "stateMutability": "nonpayable",
      "type": "function"
    },
    {
      "constant": true,
      "inputs": [],
      "name": "getAvailableVerifiers",
      "outputs": [
        {
          "name": "",
          "type": "address[]"
        }
      ],
      "payable": false,
      "stateMutability": "view",
      "type": "function"
    },
    {
      "constant": false,
      "inputs": [
        {
          "name": "amount",
          "type": "uint256"
        },
        {
          "name": "slots",
          "type": "uint256"
        }
      ],
      "name": "registerVerifier",
      "outputs": [
        {
          "name": "",
          "type": "bool"
        }
      ],
      "payable": false,
      "stateMutability": "nonpayable",
      "type": "function"
    },
    {
      "constant": false,
      "inputs": [
        {
          "name": "actor",
          "type": "address"
        }
      ],
      "name": "deregisterVerifier",
      "outputs": [
        {
          "name": "",
          "type": "bool"
        }
      ],
      "payable": false,
      "stateMutability": "nonpayable",
      "type": "function"
    },
    {
      "constant": false,
      "inputs": [
        {
          "name": "challengeId",
          "type": "bytes32"
        },
        {
          "name": "actor",
          "type": "address"
        }
      ],
      "name": "slashVerifier",
      "outputs": [
        {
          "name": "",
          "type": "bool"
        }
      ],
      "payable": false,
      "stateMutability": "nonpayable",
      "type": "function"
    },
    {
      "constant": true,
      "inputs": [
        {
          "name": "challengeId",
          "type": "bytes32"
        }
      ],
      "name": "isVerifiedProof",
      "outputs": [
        {
          "name": "",
          "type": "bool"
        }
      ],
      "payable": false,
      "stateMutability": "view",
      "type": "function"
    },
    {
      "constant": true,
      "inputs": [
        {
          "name": "challengeId",
          "type": "bytes32"
        }
      ],
      "name": "getChallengeOwner",
      "outputs": [
        {
          "name": "",
          "type": "address"
        }
      ],
      "payable": false,
      "stateMutability": "view",
      "type": "function"
    },
    {
      "constant": true,
      "inputs": [
        {
          "name": "verifier",
          "type": "address"
        }
      ],
      "name": "isRegisteredVerifier",
      "outputs": [
        {
          "name": "",
          "type": "bool"
        }
      ],
      "payable": false,
      "stateMutability": "view",
      "type": "function"
    }
  ],
  "bytecode": "0x608060405234801561001057600080fd5b5060405160c080611c5983398101604090815281516020830151918301516060840151608085015160a09095015192949192909190600160a060020a03821615156100e257604080517f08c379a000000000000000000000000000000000000000000000000000000000815260206004820152602d60248201527f696e76616c696420636f6d6d69742d72657665616c20736368656d6520636f6e60448201527f7472616374206164647265737300000000000000000000000000000000000000606482015290519081900360840190fd5b600160a060020a038116151561017f57604080517f08c379a000000000000000000000000000000000000000000000000000000000815260206004820152602160248201527f696e76616c696420666974636861696e2072656769737472792061646472657360448201527f7300000000000000000000000000000000000000000000000000000000000000606482015290519081900360840190fd5b60048054600160a060020a03928316600160a060020a03199182161790915560058054939092169216919091179055604080516080810182529485526020808601948552858201938452606086019283523060009081529081905220935184559151600184015551600283015551600390910155611a57806102026000396000f3006080604052600436106100955763ffffffff60e060020a60003504166318930577811461009a5780634196219a146100ce57806361b2806f146100fa57806369534c97146101125780636abc1d8c14610136578063811a280a1461014e578063a778f99d1461016f578063cfd946161461018a578063d5f1f8df146101ae578063f2501e4614610227578063f3b2c89414610248575b600080fd5b3480156100a657600080fd5b506100b26004356102ad565b60408051600160a060020a039092168252519081900360200190f35b3480156100da57600080fd5b506100e6600435610337565b604080519115158252519081900360200190f35b34801561010657600080fd5b506100e660043561034c565b34801561011e57600080fd5b506100e6600435600160a060020a03602435166103d2565b34801561014257600080fd5b506100e660043561057e565b34801561015a57600080fd5b506100e6600160a060020a0360043516610a34565b34801561017b57600080fd5b506100e6600435602435610b51565b34801561019657600080fd5b506100e6600435602435604435606435608435610c69565b3480156101ba57600080fd5b506101c66004356111a9565b60405180806020018360000b60000b8152602001828103825284818151815260200191508051906020019060200280838360005b838110156102125781810151838201526020016101fa565b50505050905001935050505060405180910390f35b34801561023357600080fd5b506100e6600160a060020a036004351661172a565b34801561025457600080fd5b5061025d6117f8565b60408051602080825283518183015283519192839290830191858101910280838360005b83811015610299578181015183820152602001610281565b505050509050019250505060405180910390f35b600081815260016020526040812054829060ff161515610317576040805160e560020a62461bcd02815260206004820152601860248201527f6368616c6c65676520646f6573206e6f74206578697374210000000000000000604482015290519081900360640190fd5b5050600090815260016020526040902060060154600160a060020a031690565b60009081526001602052604090205460ff1690565b600081815260026020526040812054829060ff1615156103b6576040805160e560020a62461bcd02815260206004820152601560248201527f50726f6f6620646f6573206e6f74206578697374210000000000000000000000604482015290519081900360640190fd5b5050600090815260026020526040902054610100900460ff1690565b6000828152600160205260408120600601548390600160a060020a03163014610445576040805160e560020a62461bcd02815260206004820152601760248201527f696e76616c6964206368616c6c656e6765206f776e6572000000000000000000604482015290519081900360640190fd5b600454604080516c010000000000000000000000003002602080830191909152825180830360140181526034909201928390528151600160a060020a03909416936362db8bc293918291908401908083835b602083106104b65780518252601f199092019160209182019101610497565b51815160209384036101000a60001901801990921691161790526040805192909401829003822030600090815280835285812060019081015463ffffffff8b1660e060020a0286526004860193909352600160a060020a038e166024860152604485019290925260648401919091529351608480840197509195509391849003019150829087803b15801561054a57600080fd5b505af115801561055e573d6000803e3d6000fd5b505050506040513d602081101561057457600080fd5b5051949350505050565b60008181526001602052604081205482908290819060ff1615156105ec576040805160e560020a62461bcd02815260206004820152601960248201527f4368616c6c656e676520646f6573206e6f742065786973742100000000000000604482015290519081900360640190fd5b5060005b60008381526001602052604090206007015481101561064f57600083815260016020526040902060070180548290811061062657fe5b600091825260209091200154600160a060020a031633141561064757600191505b6001016105f0565b8115156106cc576040805160e560020a62461bcd02815260206004820152602b60248201527f73656e646572206973206e6f74206120766572696669657220666f722074686960448201527f73206368616c6c656e6765000000000000000000000000000000000000000000606482015290519081900360840190fd5b60008581526003602090815260408083203384529091529020548590600111610765576040805160e560020a62461bcd02815260206004820152602360248201527f696e6469636174696e67207265706c61792061747461636b20666f7220766f7460448201527f696e670000000000000000000000000000000000000000000000000000000000606482015290519081900360840190fd5b6000868152600360209081526040808320338452825280832080546001908101909155898452918290529091206002810180549092019182905560070154141561097f5760008681526001602081815260409283902083518a81529384018390526060918401828152600790910180549285018390527ff2f81af9bef758d4108b7e890e3bcffc0eb60a26e7256540486b3309f91ee6e7948b9491939192909160808301908590801561084157602002820191906000526020600020905b8154600160a060020a03168152600190910190602001808311610823575b505094505050505060405180910390a16005543060009081526020818152604080832060028101546003909101548b855260019093529281902090517fd78d86f0000000000000000000000000000000000000000000000000000000008152600481018b815260248201859052604482018490526080606483019081526007909301805460848401819052600160a060020a039097169663d78d86f0968e9690959094929392909160a4909101908490801561092657602002820191906000526020600020905b8154600160a060020a03168152600190910190602001808311610908575b505095505050505050602060405180830381600087803b15801561094957600080fd5b505af115801561095d573d6000803e3d6000fd5b505050506040513d602081101561097357600080fd5b5060019550610a2b9050565b600086815260016020908152604080832081518a81529182018490526060928201838152600790910180549383018490527ff2f81af9bef758d4108b7e890e3bcffc0eb60a26e7256540486b3309f91ee6e7948b94919390929091608083019085908015610a1657602002820191906000526020600020905b8154600160a060020a031681526001909101906020018083116109f8575b505094505050505060405180910390a1600094505b50505050919050565b600454604080516c010000000000000000000000003002602080830191909152825180830360140181526034909201928390528151600094600160a060020a031693635cfcdbc5938793909282918401908083835b60208310610aa85780518252601f199092019160209182019101610a89565b51815160001960209485036101000a019081169019919091161790526040805194909201849003842060e060020a63ffffffff8a16028552600160a060020a039097166004850152602484019690965251604480840196955090935091839003909101905081600087803b158015610b1f57600080fd5b505af1158015610b33573d6000803e3d6000fd5b505050506040513d6020811015610b4957600080fd5b505192915050565b306000908152602081905260408120600101548390811015610b7257600080fd5b600454604080516c010000000000000000000000003002602080830191909152825180830360140181526034909201928390528151600160a060020a039094169363a7e7c09f9333938993909282918401908083835b60208310610be75780518252601f199092019160209182019101610bc8565b51815160209384036101000a60001901801990921691161790526040805192909401829003822063ffffffff8a1660e060020a028352600160a060020a039890981660048301526024820196909652604481019690965250606485018b9052516084808601959193509083900301905081600087803b15801561054a57600080fd5b6000848152600160205260408120546060908290879060ff1615610cd7576040805160e560020a62461bcd02815260206004820152601660248201527f6368616c6c65676520616c726561647920657869737400000000000000000000604482015290519081900360640190fd5b60148711610d7b576040805160e560020a62461bcd02815260206004820152604860248201527f696e76616c69642077616c6c54696d652c2073686f756c64206265206174206c60448201527f656173742067726561746572207468616e206176657261676520626c6f636b2060648201527f696e74657276616c000000000000000000000000000000000000000000000000608482015290519081900360a40190fd5b610d836117f8565b92508583511015156110e1576040805161010081018252600181524289016020808301919091526000828401819052606083018d9052608083018c905260a083018990523360c08401528351818152918201909352909160e0830191905090526000898152600160208181526040928390208451815460ff19169015151781558482015192810192909255918301516002820155606083015160038201556080830151600482015560a0830151600582015560c083015160068201805473ffffffffffffffffffffffffffffffffffffffff1916600160a060020a0390921691909117905560e083015180519192610e8392600785019290910190611988565b50905050610e9188876118de565b8614610f0d576040805160e560020a62461bcd02815260206004820152602560248201527f756e61626c6520746f207365742076657269666965727320666f72206368616c60448201527f6c656e6765000000000000000000000000000000000000000000000000000000606482015290519081900360840190fd5b600091505b600088815260016020526040902060070154821015610fe55760045460008981526001602052604090206007018054600160a060020a039092169163149fe509919085908110610f5e57fe5b60009182526020808320909101546040805160e060020a63ffffffff8716028152600160a060020a0390921660048301525160248083019491928390030190829087803b158015610fae57600080fd5b505af1158015610fc2573d6000803e3d6000fd5b505050506040513d6020811015610fd857600080fd5b5050600190910190610f12565b6040805180820182526001808252600060208084018281528d83526002825285832094518554915115156101000261ff001991151560ff1990931692909217161790935581835283902083518c81529384018c9052606084018990526080840182905260a0928401838152600790910180549385018490527fdeecfa2a4059ad7cd3c0c153cf00677e7ca6d50d1f50a63790e74acd02e64dda948d94919385938c9391929160c0830190879080156110c657602002820191906000526020600020905b8154600160a060020a031681526001909101906020018083116110a8575b5050965050505050505060405180910390a16001935061119d565b600088815260016020908152604080832081518c81529182018c9052606082018990526080820184905260a0928201838152600790910180549383018490527fdeecfa2a4059ad7cd3c0c153cf00677e7ca6d50d1f50a63790e74acd02e64dda948d94919385938c9360c08301908790801561118657602002820191906000526020600020905b8154600160a060020a03168152600190910190602001808311611168575b5050965050505050505060405180910390a1600093505b50505095945050505050565b600554604080517fe42d0d340000000000000000000000000000000000000000000000000000000081526004810184905290516060926000928492849283928392600160a060020a039092169163e42d0d349160248082019260209290919082900301818787803b15801561121d57600080fd5b505af1158015611231573d6000803e3d6000fd5b505050506040513d602081101561124757600080fd5b50511561153f576005546000888152600160205260409081902081517ff64b2f5d000000000000000000000000000000000000000000000000000000008152600481018b8152602482019384526007909201805460448301819052600160a060020a039095169463f64b2f5d948d9492939091606490910190849080156112f757602002820191906000526020600020905b8154600160a060020a031681526001909101906020018083116112d9575b50509350505050600060405180830381600087803b15801561131857600080fd5b505af115801561132c573d6000803e3d6000fd5b505050506040513d6000823e601f3d908101601f19168201604090815281101561135557600080fd5b81019080805164010000000081111561136d57600080fd5b8201602081018481111561138057600080fd5b815185602082028301116401000000008211171561139d57600080fd5b505060209182015160408051600083810b810b828701528282528451928201929092528351939a509198507f68fc6082c6d7d20e46db71721bf99d5d7e2d00053fb55424e71df40a3f0d71b29550899450889391928392606084019281880192909102908190849084905b83811015611420578181015183820152602001611408565b50505050905001935050505060405180910390a18260000b6001141561145c576000878152600260205260409020805461ff0019166101001790555b600091505b6000878152600160205260409020600701548210156115345760045460008881526001602052604090206007018054600160a060020a039092169163772279dd9190859081106114ad57fe5b60009182526020808320909101546040805160e060020a63ffffffff8716028152600160a060020a0390921660048301525160248083019491928390030190829087803b1580156114fd57600080fd5b505af1158015611511573d6000803e3d6000fd5b505050506040513d602081101561152757600080fd5b5050600190910190611461565b838395509550611721565b600091505b600087815260016020526040902060070154821015611688575060005b835181101561167d57600087815260016020526040902060070180548390811061158757fe5b6000918252602090912001548451600160a060020a03909116908590839081106115ad57fe5b60209081029091010151600160a060020a0316146116755760045460008881526001602052604090206007018054600160a060020a039092169163772279dd9190859081106115f857fe5b60009182526020808320909101546040805160e060020a63ffffffff8716028152600160a060020a0390921660048301525160248083019491928390030190829087803b15801561164857600080fd5b505af115801561165c573d6000803e3d6000fd5b505050506040513d602081101561167257600080fd5b50505b600101611561565b600190910190611544565b7f68fc6082c6d7d20e46db71721bf99d5d7e2d00053fb55424e71df40a3f0d71b28460001960405180806020018360000b8152602001828103825284818151815260200191508051906020019060200280838360005b838110156116f65781810151838201526020016116de565b50505050905001935050505060405180910390a1604080516000815260208101909152955060001994505b50505050915091565b6000600160a060020a038216151561178c576040805160e560020a62461bcd02815260206004820152601860248201527f696e76616c696420676f73736970657220616464726573730000000000000000604482015290519081900360640190fd5b60048054604080517f2bc6aa4e000000000000000000000000000000000000000000000000000000008152600160a060020a038681169482019490945290519290911691632bc6aa4e916024808201926020929091908290030181600087803b158015610b1f57600080fd5b6060600460009054906101000a9004600160a060020a0316600160a060020a03166329d8e19b6040518163ffffffff1660e060020a028152600401600060405180830381600087803b15801561184d57600080fd5b505af1158015611861573d6000803e3d6000fd5b505050506040513d6000823e601f3d908101601f19168201604052602081101561188a57600080fd5b8101908080516401000000008111156118a257600080fd5b820160208101848111156118b557600080fd5b81518560208202830111640100000000821117156118d257600080fd5b50909450505050505b90565b6000606060006118ec6117f8565b9150600090505b8381101561196f576000858152600160205260409020825160079091019083908390811061191d57fe5b602090810291909101810151825460018082018555600094855292909320909201805473ffffffffffffffffffffffffffffffffffffffff1916600160a060020a0390931692909217909155016118f3565b5050506000918252506001602052604090206007015490565b8280548282559060005260206000209081019282156119ea579160200282015b828111156119ea578251825473ffffffffffffffffffffffffffffffffffffffff1916600160a060020a039091161782556020909201916001909101906119a8565b506119f69291506119fa565b5090565b6118db91905b808211156119f657805473ffffffffffffffffffffffffffffffffffffffff19168155600101611a005600a165627a7a7230582000ba436014dbe07f822455362ec133d62863b3e7305d08d08751c64c0bc67f0e0029",
  "source": "pragma solidity 0.4.25;\n\nimport './FitchainRegistry.sol';\nimport './CommitReveal.sol';\n\n/**\n@title Fitchain Model Verifiers Pool Contract (VPC)\n@author Team: Fitchain Team\n*/\n\ncontract VerifiersPool {\n\n    struct Challenge{\n        bool exist;\n        uint256 wallTime;\n        uint256 canCommit;\n        bytes32 modelId;\n        bytes32 proofId;\n        bytes32 testingData;\n        address owner;\n        address[] verifiers;\n    }\n\n    struct Proof{\n        bool exist;\n        bool isVerified;\n    }\n\n    struct VPCSetting{\n        uint256 minKVerifiers;\n        uint256 minStake;\n        uint256 commitTimeout;\n        uint256 revealTimeout;\n    }\n\n    mapping (address => VPCSetting) VPCsettings;\n    mapping (bytes32 => Challenge) challenges;\n    mapping(bytes32 => Proof) proofs;\n    mapping(bytes32 => mapping (address => uint256)) voteOnce;\n    FitchainRegistry private registry;\n    CommitReveal private commitReveal;\n\n    // events\n    event ChallengeInitialized(bytes32 challengeId, address[] verifiers, bytes32 proofId, bytes32 testingData, bool state);\n    event CommitPhaseStarted(bytes32 challengeId, address[] verifiers, bool state);\n    event CommitmentRevealResult(address[] losers, int8 state);\n\n    // modifiers\n    modifier onlyChallengeVerifiers(bytes32 challengeId){\n        bool isVerifier = false;\n        require(challenges[challengeId].exist, 'Challenge does not exist!');\n        for(uint256 i=0; i < challenges[challengeId].verifiers.length; i++){\n            if(msg.sender == challenges[challengeId].verifiers[i]) isVerifier = true;\n        }\n        require(isVerifier, 'sender is not a verifier for this challenge');\n        _;\n    }\n\n    modifier onlyChallengeOwner(bytes32 challengeId){\n        require(address(this) == challenges[challengeId].owner, 'invalid challenge owner');\n        _;\n    }\n\n    modifier onlyValidStake(uint256 amount){\n        require(amount >= VPCsettings[address(this)].minStake);\n        _;\n    }\n\n    modifier onlyExistProof(bytes32 proofId) {\n        require(proofs[proofId].exist,'Proof does not exist!');\n        _;\n    }\n\n    modifier onlyExistChallenge(bytes32 challengeId){\n        require(challenges[challengeId].exist, 'challege does not exist!');\n        _;\n    }\n\n    modifier onlyNotExistChallenge(bytes32 challengeId) {\n        require(!challenges[challengeId].exist, 'challege already exist');\n        _;\n    }\n\n    modifier onlyCanVoteOnce(bytes32 challengeId) {\n        require(voteOnce[challengeId][msg.sender] < 1, 'indicating replay attack for voting');\n        _;\n    }\n\n    // init VPC settings\n    constructor(uint256 _minKVerifiers, uint256 _minStake, uint256 _commitTimeout, uint256 _revealTimeout, address _commitReveal, address _registry) public {\n        require(_commitReveal != address(0), 'invalid commit-reveal scheme contract address');\n        require(_registry != address(0), 'invalid fitchain registry address');\n        registry = FitchainRegistry(_registry);\n        commitReveal = CommitReveal(_commitReveal);\n        VPCsettings[address(this)] = VPCSetting(_minKVerifiers, _minStake, _commitTimeout, _revealTimeout);\n    }\n\n    function doesChallengeExist(bytes32 challengeId) public view returns(bool){\n        return challenges[challengeId].exist;\n    }\n\n    function initChallenge(bytes32 modelId, bytes32 challengeId, uint256 wallTime, uint256 kVerifiers, bytes32 testingData) public onlyNotExistChallenge(challengeId) returns(bool){\n        require(wallTime > 20, 'invalid wallTime, should be at least greater than average block interval');\n        address[] memory verifiers = getAvailableVerifiers();\n        if(verifiers.length >= kVerifiers){\n            challenges[challengeId] = Challenge(true, block.timestamp + wallTime, 0,modelId, challengeId, testingData, msg.sender, new address[](0));\n            require(kVerifiers == getKVerifiers(challengeId, kVerifiers), 'unable to set verifiers for challenge');\n            for (uint256 i=0; i < challenges[challengeId].verifiers.length; i++){\n                registry.decrementActorSlots(challenges[challengeId].verifiers[i]);\n            }\n            // now verifiers can start validation using\n            proofs[challengeId] = Proof(true, false);\n            emit ChallengeInitialized(challengeId, challenges[challengeId].verifiers, challengeId, testingData, true);\n            return true;\n        }\n        emit ChallengeInitialized(challengeId, challenges[challengeId].verifiers, challengeId, testingData, false);\n        return false;\n\n    }\n\n    function startCommitRevealPhase(bytes32 challengeId) public onlyChallengeVerifiers(challengeId) onlyCanVoteOnce(challengeId) returns(bool) {\n        voteOnce[challengeId][msg.sender] +=1;\n        challenges[challengeId].canCommit +=1;\n        if (challenges[challengeId].canCommit == challenges[challengeId].verifiers.length){\n            emit CommitPhaseStarted(challengeId, challenges[challengeId].verifiers, true);\n            commitReveal.setup(challengeId, VPCsettings[address(this)].commitTimeout, VPCsettings[address(this)].revealTimeout, challenges[challengeId].verifiers);\n            return true;\n        }\n        emit CommitPhaseStarted(challengeId, challenges[challengeId].verifiers, false);\n        return false;\n    }\n\n    function getCommitRevealResults(bytes32 challengeId) public returns(address[] , int8 ){\n        address[] memory losers;\n        int8 state;\n        uint256 i;\n        uint256 j;\n        if (commitReveal.isCommitmentTimedout(challengeId)){\n            (losers, state) = commitReveal.getCommitmentResult(challengeId, challenges[challengeId].verifiers);\n            emit CommitmentRevealResult(losers, state);\n            if(state == 1) proofs[challengeId].isVerified = true;\n            for(i=0; i < challenges[challengeId].verifiers.length; i++) registry.incrementActorSlots(challenges[challengeId].verifiers[i]);\n            return (losers, state);\n        }\n        // -1 indicate the challenge still not timed-out.\n        // free only who are not losers\n        for(i=0; i < challenges[challengeId].verifiers.length; i++){\n            for(j=0; j < losers.length; j++){\n                if(losers[j] != challenges[challengeId].verifiers[i]) registry.incrementActorSlots(challenges[challengeId].verifiers[i]);\n            }\n        }\n        emit CommitmentRevealResult(losers, -1);\n        return (new address[](0), -1);\n    }\n\n    function getAvailableVerifiers() public view returns(address[]){\n        return registry.getAvaliableRegistrants();\n    }\n\n    function registerVerifier(uint256 amount, uint256 slots) public onlyValidStake(amount) returns(bool){\n        return registry.register(msg.sender, slots, keccak256(abi.encodePacked(address(this))), amount);\n    }\n\n    function deregisterVerifier(address actor) public returns(bool){\n        return registry.deregister(actor, keccak256(abi.encodePacked(address(this))));\n    }\n\n    function slashVerifier(bytes32 challengeId, address actor) public onlyChallengeOwner(challengeId) returns(bool){\n        return registry.slashActor(keccak256(abi.encodePacked(address(this))), actor, VPCsettings[address(this)].minStake, true);\n    }\n\n    function getKVerifiers(bytes32 challengeId, uint256 K) private returns(uint256){\n        address[] memory verifiersSet = getAvailableVerifiers();\n        for(uint256 i=0; i< K; i++){\n            challenges[challengeId].verifiers.push(verifiersSet[i]);\n        }\n        return challenges[challengeId].verifiers.length;\n    }\n\n    function isVerifiedProof(bytes32 challengeId) public view onlyExistProof(challengeId) returns(bool){\n        return proofs[challengeId].isVerified;\n    }\n\n    function getChallengeOwner(bytes32 challengeId) public view onlyExistChallenge(challengeId) returns(address){\n        return challenges[challengeId].owner;\n    }\n\n    function isRegisteredVerifier(address verifier) public view returns(bool){\n        require(verifier != address(0), 'invalid gossiper address');\n        return registry.isActorRegistered(verifier);\n    }\n}",
  "sourcePath": "/Users/ahmed/Desktop/test/fitchain-contracts/contracts/VerifiersPool.sol",
  "compiler": {
    "name": "solc",
    "version": "0.4.25+commit.59dbf8f1.Emscripten.clang"
  },
  "schemaVersion": "3.0.0-beta.0",
  "updatedAt": "2018-12-12T16:40:25.916Z"
}