{
  "contractName": "Vpc",
  "abi": [
    {
      "constant": true,
      "inputs": [],
      "name": "registrar",
      "outputs": [
        {
          "name": "",
          "type": "address"
        }
      ],
      "payable": false,
      "stateMutability": "view",
      "type": "function"
    },
    {
      "constant": true,
      "inputs": [
        {
          "name": "",
          "type": "bytes32"
        },
        {
          "name": "",
          "type": "uint256"
        }
      ],
      "name": "channelVerifiers",
      "outputs": [
        {
          "name": "",
          "type": "address"
        }
      ],
      "payable": false,
      "stateMutability": "view",
      "type": "function"
    },
    {
      "constant": true,
      "inputs": [
        {
          "name": "",
          "type": "address"
        }
      ],
      "name": "registrantIndex",
      "outputs": [
        {
          "name": "",
          "type": "uint256"
        }
      ],
      "payable": false,
      "stateMutability": "view",
      "type": "function"
    },
    {
      "constant": true,
      "inputs": [
        {
          "name": "",
          "type": "uint256"
        }
      ],
      "name": "channelList",
      "outputs": [
        {
          "name": "",
          "type": "bytes32"
        }
      ],
      "payable": false,
      "stateMutability": "view",
      "type": "function"
    },
    {
      "constant": true,
      "inputs": [
        {
          "name": "",
          "type": "bytes32"
        }
      ],
      "name": "channelStructs",
      "outputs": [
        {
          "name": "channel_id",
          "type": "bytes32"
        },
        {
          "name": "model_id",
          "type": "bytes32"
        },
        {
          "name": "k",
          "type": "uint256"
        }
      ],
      "payable": false,
      "stateMutability": "view",
      "type": "function"
    },
    {
      "constant": true,
      "inputs": [
        {
          "name": "",
          "type": "uint256"
        }
      ],
      "name": "registrants",
      "outputs": [
        {
          "name": "addr",
          "type": "address"
        },
        {
          "name": "stake",
          "type": "uint256"
        },
        {
          "name": "active",
          "type": "bool"
        }
      ],
      "payable": false,
      "stateMutability": "view",
      "type": "function"
    },
    {
      "constant": true,
      "inputs": [
        {
          "name": "",
          "type": "address"
        }
      ],
      "name": "registrantBusy",
      "outputs": [
        {
          "name": "",
          "type": "bool"
        }
      ],
      "payable": false,
      "stateMutability": "view",
      "type": "function"
    },
    {
      "constant": true,
      "inputs": [
        {
          "name": "",
          "type": "bytes32"
        }
      ],
      "name": "isChannelActive",
      "outputs": [
        {
          "name": "",
          "type": "bool"
        }
      ],
      "payable": false,
      "stateMutability": "view",
      "type": "function"
    },
    {
      "inputs": [],
      "payable": false,
      "stateMutability": "nonpayable",
      "type": "constructor"
    },
    {
      "payable": false,
      "stateMutability": "nonpayable",
      "type": "fallback"
    },
    {
      "anonymous": false,
      "inputs": [
        {
          "indexed": false,
          "name": "registrant",
          "type": "address"
        },
        {
          "indexed": false,
          "name": "stake",
          "type": "uint256"
        }
      ],
      "name": "Created",
      "type": "event"
    },
    {
      "anonymous": false,
      "inputs": [
        {
          "indexed": true,
          "name": "registrant",
          "type": "address"
        },
        {
          "indexed": false,
          "name": "registrar",
          "type": "address"
        },
        {
          "indexed": false,
          "name": "active",
          "type": "bool"
        }
      ],
      "name": "Updated",
      "type": "event"
    },
    {
      "anonymous": false,
      "inputs": [
        {
          "indexed": false,
          "name": "addr",
          "type": "address"
        }
      ],
      "name": "Withdrawn",
      "type": "event"
    },
    {
      "anonymous": false,
      "inputs": [
        {
          "indexed": false,
          "name": "code",
          "type": "uint256"
        }
      ],
      "name": "Error",
      "type": "event"
    },
    {
      "anonymous": false,
      "inputs": [
        {
          "indexed": false,
          "name": "channel_id",
          "type": "bytes32"
        }
      ],
      "name": "InitChannel",
      "type": "event"
    },
    {
      "constant": false,
      "inputs": [
        {
          "name": "model_id",
          "type": "bytes32"
        },
        {
          "name": "merkle_root",
          "type": "bytes32"
        },
        {
          "name": "sigs",
          "type": "bytes32[]"
        }
      ],
      "name": "submitProof",
      "outputs": [
        {
          "name": "",
          "type": "bool"
        }
      ],
      "payable": false,
      "stateMutability": "nonpayable",
      "type": "function"
    },
    {
      "constant": true,
      "inputs": [
        {
          "name": "model_id",
          "type": "bytes32"
        }
      ],
      "name": "getProofCount",
      "outputs": [
        {
          "name": "",
          "type": "uint256"
        }
      ],
      "payable": false,
      "stateMutability": "view",
      "type": "function"
    },
    {
      "constant": true,
      "inputs": [
        {
          "name": "model_id",
          "type": "bytes32"
        }
      ],
      "name": "getProofsList",
      "outputs": [
        {
          "name": "",
          "type": "bytes32[]"
        }
      ],
      "payable": false,
      "stateMutability": "view",
      "type": "function"
    },
    {
      "constant": true,
      "inputs": [
        {
          "name": "model_id",
          "type": "bytes32"
        },
        {
          "name": "proof_key",
          "type": "bytes32"
        }
      ],
      "name": "getProof",
      "outputs": [
        {
          "name": "",
          "type": "address"
        },
        {
          "name": "",
          "type": "bytes32"
        },
        {
          "name": "",
          "type": "bytes32[]"
        }
      ],
      "payable": false,
      "stateMutability": "view",
      "type": "function"
    },
    {
      "constant": true,
      "inputs": [
        {
          "name": "model_id",
          "type": "bytes32"
        }
      ],
      "name": "isPotValid",
      "outputs": [
        {
          "name": "",
          "type": "bool"
        }
      ],
      "payable": false,
      "stateMutability": "view",
      "type": "function"
    },
    {
      "constant": true,
      "inputs": [
        {
          "name": "check",
          "type": "bytes32"
        }
      ],
      "name": "isChannel",
      "outputs": [
        {
          "name": "isIndeed",
          "type": "bool"
        }
      ],
      "payable": false,
      "stateMutability": "view",
      "type": "function"
    },
    {
      "constant": false,
      "inputs": [
        {
          "name": "model_id",
          "type": "bytes32"
        },
        {
          "name": "k",
          "type": "uint256"
        }
      ],
      "name": "init_channel",
      "outputs": [
        {
          "name": "success",
          "type": "bool"
        }
      ],
      "payable": false,
      "stateMutability": "nonpayable",
      "type": "function"
    },
    {
      "constant": true,
      "inputs": [
        {
          "name": "channel_id",
          "type": "bytes32"
        }
      ],
      "name": "getChannel",
      "outputs": [
        {
          "name": "",
          "type": "bytes32"
        },
        {
          "name": "",
          "type": "uint256"
        }
      ],
      "payable": false,
      "stateMutability": "view",
      "type": "function"
    },
    {
      "constant": true,
      "inputs": [
        {
          "name": "channel_id",
          "type": "bytes32"
        }
      ],
      "name": "getVerifiers",
      "outputs": [
        {
          "name": "",
          "type": "address[]"
        }
      ],
      "payable": false,
      "stateMutability": "view",
      "type": "function"
    },
    {
      "constant": true,
      "inputs": [],
      "name": "getNumberOfChannels",
      "outputs": [
        {
          "name": "count",
          "type": "uint256"
        }
      ],
      "payable": false,
      "stateMutability": "view",
      "type": "function"
    },
    {
      "constant": true,
      "inputs": [
        {
          "name": "model_id",
          "type": "bytes"
        }
      ],
      "name": "__is_valid",
      "outputs": [
        {
          "name": "",
          "type": "bool"
        }
      ],
      "payable": false,
      "stateMutability": "view",
      "type": "function"
    },
    {
      "constant": false,
      "inputs": [],
      "name": "deposit",
      "outputs": [
        {
          "name": "",
          "type": "bool"
        }
      ],
      "payable": true,
      "stateMutability": "payable",
      "type": "function"
    },
    {
      "constant": false,
      "inputs": [],
      "name": "withdraw",
      "outputs": [
        {
          "name": "",
          "type": "bool"
        }
      ],
      "payable": true,
      "stateMutability": "payable",
      "type": "function"
    },
    {
      "constant": false,
      "inputs": [
        {
          "name": "_registrar",
          "type": "address"
        }
      ],
      "name": "setNextRegistrar",
      "outputs": [
        {
          "name": "",
          "type": "bool"
        }
      ],
      "payable": false,
      "stateMutability": "nonpayable",
      "type": "function"
    },
    {
      "constant": true,
      "inputs": [
        {
          "name": "_registrant",
          "type": "address"
        }
      ],
      "name": "isActiveRegistrant",
      "outputs": [
        {
          "name": "",
          "type": "bool"
        }
      ],
      "payable": false,
      "stateMutability": "view",
      "type": "function"
    },
    {
      "constant": false,
      "inputs": [
        {
          "name": "_registrant",
          "type": "address"
        },
        {
          "name": "is_active",
          "type": "bool"
        }
      ],
      "name": "setRegistrantActive",
      "outputs": [
        {
          "name": "",
          "type": "bool"
        }
      ],
      "payable": false,
      "stateMutability": "nonpayable",
      "type": "function"
    },
    {
      "constant": true,
      "inputs": [],
      "name": "getRegistrants",
      "outputs": [
        {
          "name": "",
          "type": "address[]"
        }
      ],
      "payable": false,
      "stateMutability": "view",
      "type": "function"
    },
    {
      "constant": true,
      "inputs": [
        {
          "name": "_registrant",
          "type": "address"
        }
      ],
      "name": "getStake",
      "outputs": [
        {
          "name": "",
          "type": "uint256"
        }
      ],
      "payable": false,
      "stateMutability": "view",
      "type": "function"
    },
    {
      "constant": true,
      "inputs": [],
      "name": "getNumberRegistrants",
      "outputs": [
        {
          "name": "",
          "type": "uint256"
        }
      ],
      "payable": false,
      "stateMutability": "view",
      "type": "function"
    },
    {
      "constant": false,
      "inputs": [],
      "name": "discontinue",
      "outputs": [],
      "payable": false,
      "stateMutability": "nonpayable",
      "type": "function"
    },
    {
      "constant": true,
      "inputs": [],
      "name": "getBalance",
      "outputs": [
        {
          "name": "",
          "type": "uint256"
        }
      ],
      "payable": false,
      "stateMutability": "view",
      "type": "function"
    },
    {
      "constant": true,
      "inputs": [
        {
          "name": "pool",
          "type": "uint256[]"
        },
        {
          "name": "element",
          "type": "uint256"
        }
      ],
      "name": "contains",
      "outputs": [
        {
          "name": "",
          "type": "bool"
        }
      ],
      "payable": false,
      "stateMutability": "pure",
      "type": "function"
    },
    {
      "constant": true,
      "inputs": [
        {
          "name": "num_verifiers",
          "type": "uint256"
        }
      ],
      "name": "getEligibleProposer",
      "outputs": [
        {
          "name": "",
          "type": "address[]"
        }
      ],
      "payable": false,
      "stateMutability": "view",
      "type": "function"
    }
  ],
  "bytecode": "0x608060405267a688906bd8b000006000556103e86001553480156200002357600080fd5b5033600260006101000a81548173ffffffffffffffffffffffffffffffffffffffff021916908373ffffffffffffffffffffffffffffffffffffffff160217905550600580548091906001016200007b919062000082565b506200011c565b815481835581811115620000b257600302816003028360005260206000209182019101620000b19190620000b7565b5b505050565b6200011991905b808211156200011557600080820160006101000a81549073ffffffffffffffffffffffffffffffffffffffff021916905560018201600090556002820160006101000a81549060ff021916905550600301620000be565b5090565b90565b612b3a806200012c6000396000f30060806040526004361061018a576000357c0100000000000000000000000000000000000000000000000000000000900463ffffffff168062511568146101a7578063052b2aa7146101d257806312065fe01461023e5780631cf52f2b146102695780631f0f711f146102c45780632b20e397146102db5780632ca1e78814610332578063300db2c71461037b578063327cc732146103f65780633ccfd60b1461044d57806346e4e09b1461046f5780634b0d399d146104c25780634b5bcc6c146105445780634f63d9b9146105de5780635e41f5291461062757806364fd7e401461068a5780636ac4d5821461070b57806379bf1a371461078a5780637a151194146108105780637a76646014610896578063831c2b82146108ed5780638a16a35f14610941578063b32b8e2c14610a17578063d0e30db014610a9f578063d6bea93814610ac1578063ecf54ab014610b28578063f2cb7cdc14610b71578063f877609714610b9c578063fa8f6f8d14610bf7578063fc9e53df14610c40578063fd769d6314610c9b575b34801561019657600080fd5b5060003411156101a557600080fd5b005b3480156101b357600080fd5b506101bc610ce0565b6040518082815260200191505060405180910390f35b3480156101de57600080fd5b506101e7610d52565b6040518080602001828103825283818151815260200191508051906020019060200280838360005b8381101561022a57808201518184015260208101905061020f565b505050509050019250505060405180910390f35b34801561024a57600080fd5b50610253610e81565b6040518082815260200191505060405180910390f35b34801561027557600080fd5b506102aa600480360381019080803573ffffffffffffffffffffffffffffffffffffffff169060200190929190505050610ea0565b604051808215151515815260200191505060405180910390f35b3480156102d057600080fd5b506102d9610f27565b005b3480156102e757600080fd5b506102f0610fe4565b604051808273ffffffffffffffffffffffffffffffffffffffff1673ffffffffffffffffffffffffffffffffffffffff16815260200191505060405180910390f35b34801561033e57600080fd5b50610361600480360381019080803560001916906020019092919050505061100a565b604051808215151515815260200191505060405180910390f35b34801561038757600080fd5b506103b460048036038101908080356000191690602001909291908035906020019092919050505061103c565b604051808273ffffffffffffffffffffffffffffffffffffffff1673ffffffffffffffffffffffffffffffffffffffff16815260200191505060405180910390f35b34801561040257600080fd5b50610437600480360381019080803573ffffffffffffffffffffffffffffffffffffffff169060200190929190505050611089565b6040518082815260200191505060405180910390f35b6104556110a1565b604051808215151515815260200191505060405180910390f35b34801561047b57600080fd5b506104a8600480360381019080803560001916906020019092919080359060200190929190505050611166565b604051808215151515815260200191505060405180910390f35b3480156104ce57600080fd5b506104ed60048036038101908080359060200190929190505050611496565b6040518080602001828103825283818151815260200191508051906020019060200280838360005b83811015610530578082015181840152602081019050610515565b505050509050019250505060405180910390f35b34801561055057600080fd5b506105c460048036038101908080356000191690602001909291908035600019169060200190929190803590602001908201803590602001908080602002602001604051908101604052809392919081815260200183836020028082843782019150505050505091929192905050506116f3565b604051808215151515815260200191505060405180910390f35b3480156105ea57600080fd5b50610609600480360381019080803590602001909291905050506119e8565b60405180826000191660001916815260200191505060405180910390f35b34801561063357600080fd5b506106566004803603810190808035600019169060200190929190505050611a0b565b6040518084600019166000191681526020018360001916600019168152602001828152602001935050505060405180910390f35b34801561069657600080fd5b506106f1600480360381019080803590602001908201803590602001908080601f0160208091040260200160405190810160405280939291908181526020018383808284378201915050505050509192919290505050611a35565b604051808215151515815260200191505060405180910390f35b34801561071757600080fd5b5061073660048036038101908080359060200190929190505050611a3f565b604051808473ffffffffffffffffffffffffffffffffffffffff1673ffffffffffffffffffffffffffffffffffffffff16815260200183815260200182151515158152602001935050505060405180910390f35b34801561079657600080fd5b506107b96004803603810190808035600019169060200190929190505050611aa5565b6040518080602001828103825283818151815260200191508051906020019060200280838360005b838110156107fc5780820151818401526020810190506107e1565b505050509050019250505060405180910390f35b34801561081c57600080fd5b5061083f6004803603810190808035600019169060200190929190505050611b62565b6040518080602001828103825283818151815260200191508051906020019060200280838360005b83811015610882578082015181840152602081019050610867565b505050509050019250505060405180910390f35b3480156108a257600080fd5b506108d7600480360381019080803573ffffffffffffffffffffffffffffffffffffffff169060200190929190505050611bf0565b6040518082815260200191505060405180910390f35b3480156108f957600080fd5b5061091c6004803603810190808035600019169060200190929190505050611c6d565b6040518083600019166000191681526020018281526020019250505060405180910390f35b34801561094d57600080fd5b5061097e60048036038101908080356000191690602001909291908035600019169060200190929190505050611ccb565b604051808473ffffffffffffffffffffffffffffffffffffffff1673ffffffffffffffffffffffffffffffffffffffff168152602001836000191660001916815260200180602001828103825283818151815260200191508051906020019060200280838360005b83811015610a015780820151818401526020810190506109e6565b5050505090500194505050505060405180910390f35b348015610a2357600080fd5b50610a856004803603810190808035906020019082018035906020019080806020026020016040519081016040528093929190818152602001838360200280828437820191505050505050919291929080359060200190929190505050611e15565b604051808215151515815260200191505060405180910390f35b610aa7611e67565b604051808215151515815260200191505060405180910390f35b348015610acd57600080fd5b50610b0e600480360381019080803573ffffffffffffffffffffffffffffffffffffffff169060200190929190803515159060200190929190505050612102565b604051808215151515815260200191505060405180910390f35b348015610b3457600080fd5b50610b5760048036038101908080356000191690602001909291905050506123b8565b604051808215151515815260200191505060405180910390f35b348015610b7d57600080fd5b50610b866123c3565b6040518082815260200191505060405180910390f35b348015610ba857600080fd5b50610bdd600480360381019080803573ffffffffffffffffffffffffffffffffffffffff1690602001909291905050506123d0565b604051808215151515815260200191505060405180910390f35b348015610c0357600080fd5b50610c2660048036038101908080356000191690602001909291905050506123f0565b604051808215151515815260200191505060405180910390f35b348015610c4c57600080fd5b50610c81600480360381019080803573ffffffffffffffffffffffffffffffffffffffff169060200190929190505050612410565b604051808215151515815260200191505060405180910390f35b348015610ca757600080fd5b50610cca60048036038101908080356000191690602001909291905050506124ff565b6040518082815260200191505060405180910390f35b6000806000809150600190505b600580549050811015610d4a5760011515600582815481101515610d0d57fe5b906000526020600020906003020160020160009054906101000a900460ff1615151415610d3d5781806001019250505b8080600101915050610ced565b819250505090565b6060806000600160058054905003604051908082528060200260200182016040528015610d8e5781602001602082028038833980820191505090505b509150600190505b600580549050811015610e795760011515600582815481101515610db657fe5b906000526020600020906003020160020160009054906101000a900460ff1615151415610e6c57600581815481101515610dec57fe5b906000526020600020906003020160000160009054906101000a900473ffffffffffffffffffffffffffffffffffffffff168260018303815181101515610e2f57fe5b9060200190602002019073ffffffffffffffffffffffffffffffffffffffff16908173ffffffffffffffffffffffffffffffffffffffff16815250505b8080600101915050610d96565b819250505090565b60003073ffffffffffffffffffffffffffffffffffffffff1631905090565b600080600360008473ffffffffffffffffffffffffffffffffffffffff1673ffffffffffffffffffffffffffffffffffffffff168152602001908152602001600020549050600081118015610f1f5750600581815481101515610eff57fe5b906000526020600020906003020160020160009054906101000a900460ff165b915050919050565b600260009054906101000a900473ffffffffffffffffffffffffffffffffffffffff1673ffffffffffffffffffffffffffffffffffffffff163373ffffffffffffffffffffffffffffffffffffffff16141515610fbb577f2e36a7093f25f22bd4cbdeb6040174c3ba4c5fe8f1abc04e7c3c48f26c7413e060016040518082815260200191505060405180910390a1610fe2565b6000341115610fc957600080fd5b3373ffffffffffffffffffffffffffffffffffffffff16ff5b565b600260009054906101000a900473ffffffffffffffffffffffffffffffffffffffff1681565b600060076000836000191660001916815260200190815260200160002060009054906101000a900460ff169050919050565b60066020528160005260406000208181548110151561105757fe5b906000526020600020016000915091509054906101000a900473ffffffffffffffffffffffffffffffffffffffff1681565b60036020528060005260406000206000915090505481565b6000600460003373ffffffffffffffffffffffffffffffffffffffff1673ffffffffffffffffffffffffffffffffffffffff16815260200190815260200160002060009054906101000a900460ff161515156110fc57600080fd5b7ff45a04d08a70caa7eb4b747571305559ad9fdf4a093afd41506b35c8a306fa9433604051808273ffffffffffffffffffffffffffffffffffffffff1673ffffffffffffffffffffffffffffffffffffffff16815260200191505060405180910390a16001905090565b600080606060006111768661100a565b15151561118257600080fd5b85925060098390806001815401808255809150509060018203906000526020600020016000909192909190915090600019169055508260086000856000191660001916815260200190815260200160002060000181600019169055508560086000856000191660001916815260200190815260200160002060010181600019169055508460086000856000191660001916815260200190815260200160002060020181905550600160076000886000191660001916815260200190815260200160002060006101000a81548160ff021916908315150217905550600060405190808252806020026020018201604052801561128c5781602001602082028038833980820191505090505b5060066000856000191660001916815260200190815260200160002090805190602001906112bb9291906128a7565b5060006040519080825280602002602001820160405280156112ec5781602001602082028038833980820191505090505b50600a60008860001916600019168152602001908152602001600020600001908051906020019061131e929190612931565b5061132885611496565b9150600090505b815181101561144a57600660008460001916600019168152602001908152602001600020828281518110151561136157fe5b9060200190602002015190806001815401808255809150509060018203906000526020600020016000909192909190916101000a81548173ffffffffffffffffffffffffffffffffffffffff021916908373ffffffffffffffffffffffffffffffffffffffff1602179055505060016004600084848151811015156113e257fe5b9060200190602002015173ffffffffffffffffffffffffffffffffffffffff1673ffffffffffffffffffffffffffffffffffffffff16815260200190815260200160002060006101000a81548160ff021916908315150217905550808060010191505061132f565b7f4c5211b39f19cac6920e0e0cce425d092aeb9d60df2bfd5f596f8f0257270e238360405180826000191660001916815260200191505060405180910390a16001935050505092915050565b6060600060608060008060008060008060008060606114b3610ce0565b9b508b8e1015156114cd576114c6610d52565b9c506116e2565b8d6040519080825280602002602001820160405280156114fc5781602001602082028038833980820191505090505b509a50611507610d52565b995043985088404260405180836000191660001916815260200182815260200192505050604051809103902060019004975087600102965060009550600094505b8d86101561161957600192508491505b600285018210156115c857868260208110151561157157fe5b1a7f0100000000000000000000000000000000000000000000000000000000000000027f01000000000000000000000000000000000000000000000000000000000000009004830292508180600101925050611558565b8b838115156115d357fe5b0693506115e08b85611e15565b151561160c57838b878151811015156115f557fe5b906020019060200201818152505085806001019650505b8480600101955050611548565b8d6040519080825280602002602001820160405280156116485781602001602082028038833980820191505090505b509050600091505b8d8210156116de57898b8381518110151561166757fe5b9060200190602002015181518110151561167d57fe5b90602001906020020151818381518110151561169557fe5b9060200190602002019073ffffffffffffffffffffffffffffffffffffffff16908173ffffffffffffffffffffffffffffffffffffffff16815250508180600101925050611650565b809c505b505050505050505050505050919050565b60006116fd612984565b606060008061170b8861100a565b151561171657600080fd5b33846000019073ffffffffffffffffffffffffffffffffffffffff16908173ffffffffffffffffffffffffffffffffffffffff1681525050868460200190600019169081600019168152505085846040018190525061178f3373ffffffffffffffffffffffffffffffffffffffff16600102898961252a565b9250826040518082805190602001908083835b6020831015156117c757805182526020820191506020810190506020830392506117a2565b6001836020036101000a03801982511681845116808217855250505050505090500191505060405180910390209150600a600089600019166000191681526020019081526020016000206002016000836000191660001916815260200190815260200160002060009054906101000a900460ff16905060011515811515141561188b577f2e36a7093f25f22bd4cbdeb6040174c3ba4c5fe8f1abc04e7c3c48f26c7413e060066040518082815260200191505060405180910390a1600094506119dd565b600a6000896000191660001916815260200190815260200160002060000182908060018154018082558091505090600182039060005260206000200160009091929091909150906000191690555083600a60008a600019166000191681526020019081526020016000206001016000846000191660001916815260200190815260200160002060008201518160000160006101000a81548173ffffffffffffffffffffffffffffffffffffffff021916908373ffffffffffffffffffffffffffffffffffffffff1602179055506020820151816001019060001916905560408201518160020190805190602001906119849291906129bf565b509050506001600a60008a600019166000191681526020019081526020016000206002016000846000191660001916815260200190815260200160002060006101000a81548160ff021916908315150217905550600194505b505050509392505050565b6009818154811015156119f757fe5b906000526020600020016000915090505481565b60086020528060005260406000206000915090508060000154908060010154908060020154905083565b6000809050919050565b600581815481101515611a4e57fe5b90600052602060002090600302016000915090508060000160009054906101000a900473ffffffffffffffffffffffffffffffffffffffff16908060010154908060020160009054906101000a900460ff16905083565b6060611ab08261100a565b1515611abb57600080fd5b600660008360001916600019168152602001908152602001600020805480602002602001604051908101604052809291908181526020018280548015611b5657602002820191906000526020600020905b8160009054906101000a900473ffffffffffffffffffffffffffffffffffffffff1673ffffffffffffffffffffffffffffffffffffffff1681526020019060010190808311611b0c575b50505050509050919050565b6060611b6d8261100a565b1515611b7857600080fd5b600a60008360001916600019168152602001908152602001600020600001805480602002602001604051908101604052809291908181526020018280548015611be457602002820191906000526020600020905b81546000191681526020019060010190808311611bcc575b50505050509050919050565b600080600360008473ffffffffffffffffffffffffffffffffffffffff1673ffffffffffffffffffffffffffffffffffffffff168152602001908152602001600020549050600081111515611c4457600080fd5b600581815481101515611c5357fe5b906000526020600020906003020160010154915050919050565b600080611c798361100a565b1515611c8457600080fd5b600860008460001916600019168152602001908152602001600020600101546008600085600019166000191681526020019081526020016000206002015491509150915091565b6000806060611cd8612984565b611ce18661100a565b1515611cec57600080fd5b600a6000876000191660001916815260200190815260200160002060010160008660001916600019168152602001908152602001600020606060405190810160405290816000820160009054906101000a900473ffffffffffffffffffffffffffffffffffffffff1673ffffffffffffffffffffffffffffffffffffffff1673ffffffffffffffffffffffffffffffffffffffff16815260200160018201546000191660001916815260200160028201805480602002602001604051908101604052809291908181526020018280548015611dea57602002820191906000526020600020905b81546000191681526020019060010190808311611dd2575b5050505050815250509050806000015181602001518260400151809050935093509350509250925092565b600080600090505b8351811015611e5b578381815181101515611e3457fe5b90602001906020020151831415611e4e5760019150611e60565b8080600101915050611e1d565b600091505b5092915050565b6000806000600154600580549050101515611e8157600080fd5b600360003373ffffffffffffffffffffffffffffffffffffffff1673ffffffffffffffffffffffffffffffffffffffff1681526020019081526020016000205491506000821115611f5c5734600583815481101515611edc57fe5b906000526020600020906003020160010160008282540192505081905550600054600583815481101515611f0c57fe5b9060005260206000209060030201600101541015600583815481101515611f2f57fe5b906000526020600020906003020160020160006101000a81548160ff02191690831515021790555061208e565b600082141561208d5760058054809190600101611f799190612a12565b915060005434101590506060604051908101604052803373ffffffffffffffffffffffffffffffffffffffff168152602001348152602001821515815250600583815481101515611fc657fe5b906000526020600020906003020160008201518160000160006101000a81548173ffffffffffffffffffffffffffffffffffffffff021916908373ffffffffffffffffffffffffffffffffffffffff1602179055506020820151816001015560408201518160020160006101000a81548160ff02191690831515021790555090505081600360003373ffffffffffffffffffffffffffffffffffffffff1673ffffffffffffffffffffffffffffffffffffffff168152602001908152602001600020819055505b5b7f0ce3610e89a4bb9ec9359763f99110ed52a4abaea0b62028a1637e242ca2768b3334604051808373ffffffffffffffffffffffffffffffffffffffff1673ffffffffffffffffffffffffffffffffffffffff1681526020018281526020019250505060405180910390a160019250505090565b600080600260009054906101000a900473ffffffffffffffffffffffffffffffffffffffff1673ffffffffffffffffffffffffffffffffffffffff163373ffffffffffffffffffffffffffffffffffffffff16141515612199577f2e36a7093f25f22bd4cbdeb6040174c3ba4c5fe8f1abc04e7c3c48f26c7413e060016040518082815260200191505060405180910390a16123b1565b60003411156121a757600080fd5b600360008573ffffffffffffffffffffffffffffffffffffffff1673ffffffffffffffffffffffffffffffffffffffff1681526020019081526020016000205490506000811415612233577f2e36a7093f25f22bd4cbdeb6040174c3ba4c5fe8f1abc04e7c3c48f26c7413e060026040518082815260200191505060405180910390a1600091506123b0565b3373ffffffffffffffffffffffffffffffffffffffff16600260009054906101000a900473ffffffffffffffffffffffffffffffffffffffff1673ffffffffffffffffffffffffffffffffffffffff161415156122cb577f2e36a7093f25f22bd4cbdeb6040174c3ba4c5fe8f1abc04e7c3c48f26c7413e060036040518082815260200191505060405180910390a1600091506123b0565b826005828154811015156122db57fe5b906000526020600020906003020160020160006101000a81548160ff0219169083151502179055508373ffffffffffffffffffffffffffffffffffffffff167fa3dc6f84978ec45c7aa4a93448811c5c607b9f815af61466a2bedeebdd9f7248600260009054906101000a900473ffffffffffffffffffffffffffffffffffffffff1685604051808373ffffffffffffffffffffffffffffffffffffffff1673ffffffffffffffffffffffffffffffffffffffff168152602001821515151581526020019250505060405180910390a2600191505b5b5092915050565b600060019050919050565b6000600980549050905090565b60046020528060005260406000206000915054906101000a900460ff1681565b60076020528060005260406000206000915054906101000a900460ff1681565b6000600260009054906101000a900473ffffffffffffffffffffffffffffffffffffffff1673ffffffffffffffffffffffffffffffffffffffff163373ffffffffffffffffffffffffffffffffffffffff161415156124a6577f2e36a7093f25f22bd4cbdeb6040174c3ba4c5fe8f1abc04e7c3c48f26c7413e060016040518082815260200191505060405180910390a16124fa565b60003411156124b457600080fd5b81600260006101000a81548173ffffffffffffffffffffffffffffffffffffffff021916908373ffffffffffffffffffffffffffffffffffffffff160217905550600190505b919050565b6000600a60008360001916600019168152602001908152602001600020600001805490509050919050565b60608060008060006060600060606040519080825280601f01601f19166020018201604052801561256a5781602001602082028038833980820191505090505b509550600093505b602084101561262e578360080260020a8a6001900402600102925060007f010000000000000000000000000000000000000000000000000000000000000002837effffffffffffffffffffffffffffffffffffffffffffffffffffffffffffff1916141515612621578286868151811015156125ea57fe5b9060200101907effffffffffffffffffffffffffffffffffffffffffffffffffffffffffffff1916908160001a9053506001850194505b8380600101945050612572565b600093505b60208410156126ef578360080260020a896001900402600102925060007f010000000000000000000000000000000000000000000000000000000000000002837effffffffffffffffffffffffffffffffffffffffffffffffffffffffffffff19161415156126e2578286868151811015156126ab57fe5b9060200101907effffffffffffffffffffffffffffffffffffffffffffffffffffffffffffff1916908160001a9053506001850194505b8380600101945050612633565b600093505b60208410156127b0578360080260020a886001900402600102925060007f010000000000000000000000000000000000000000000000000000000000000002837effffffffffffffffffffffffffffffffffffffffffffffffffffffffffffff19161415156127a35782868681518110151561276c57fe5b9060200101907effffffffffffffffffffffffffffffffffffffffffffffffffffffffffffff1916908160001a9053506001850194505b83806001019450506126f4565b846040519080825280601f01601f1916602001820160405280156127e35781602001602082028038833980820191505090505b509150600090505b8481101561289757858181518110151561280157fe5b9060200101517f010000000000000000000000000000000000000000000000000000000000000090047f010000000000000000000000000000000000000000000000000000000000000002828281518110151561285a57fe5b9060200101907effffffffffffffffffffffffffffffffffffffffffffffffffffffffffffff1916908160001a90535080806001019150506127eb565b8196505050505050509392505050565b828054828255906000526020600020908101928215612920579160200282015b8281111561291f5782518260006101000a81548173ffffffffffffffffffffffffffffffffffffffff021916908373ffffffffffffffffffffffffffffffffffffffff160217905550916020019190600101906128c7565b5b50905061292d9190612a44565b5090565b828054828255906000526020600020908101928215612973579160200282015b82811115612972578251829060001916905591602001919060010190612951565b5b5090506129809190612a87565b5090565b606060405190810160405280600073ffffffffffffffffffffffffffffffffffffffff16815260200160008019168152602001606081525090565b828054828255906000526020600020908101928215612a01579160200282015b82811115612a005782518290600019169055916020019190600101906129df565b5b509050612a0e9190612a87565b5090565b815481835581811115612a3f57600302816003028360005260206000209182019101612a3e9190612aac565b5b505050565b612a8491905b80821115612a8057600081816101000a81549073ffffffffffffffffffffffffffffffffffffffff021916905550600101612a4a565b5090565b90565b612aa991905b80821115612aa5576000816000905550600101612a8d565b5090565b90565b612b0b91905b80821115612b0757600080820160006101000a81549073ffffffffffffffffffffffffffffffffffffffff021916905560018201600090556002820160006101000a81549060ff021916905550600301612ab2565b5090565b905600a165627a7a72305820efd53a42f943af23a56be9f97405c38e8f704341c4a565c8be9c4ab845649d180029",
  "source": "/*\nRegistrar  whitelisting contract, stores all Registrants which are allowed to add new\n            Models to the registry\nRegistry   registry itself, stores identities and information about all Models added\n\nThis contract implements the registrar identity.\nA registrar can be the owner of the thing or one of its verifiers\n*/\n\npragma solidity ^0.4.23;\nimport \"./fitchainLib.sol\";\n\ncontract Vpc {\n  uint MIN_STAKE      = 12000000000000000000;   // min stake in wei (12 eth)\n  uint VERIFIER_QUOTA = 1000;\n  address public registrar;                     // address of account who inits\n\n  /**\n   * Created event, gets triggered when a new registrant gets created\n   * event\n   * @param registrant - The registrant address (eg. prover)\n   * param registrar - The registrar address (eg. model id)\n   * @param stake     - The deposit of this registrant\n   */\n  //event Created(address indexed registrant, address registrar, bytes data, uint stake);\n  event Created(address registrant, uint stake);\n\n  /**\n   * Updated event, gets triggered when a new registrant id Updated\n   * event\n   * @param registrant - The registrant address.\n   * @param registrar - The registrar address.\n   * param data - The data of the registrant.\n   */\n  //event Updated(address indexed registrant, address registrar, bytes data, bool active);\n  event Updated(address indexed registrant, address registrar, bool active);\n  event Withdrawn(address addr);\n  /**\n   * Error event.\n   * event\n   * @param code - The error code\n   * 1: Permission denied\n   * 2: Duplicate Registrant address\n   * 3: No such Registrant\n   * 4: Min stake not reached\n   * 5: Max number of verifiers allowed\n   * 6: Proof already submitted\n   */\n  event Error(uint code);\n  event InitChannel(bytes32 channel_id);\n\n  // Registrant -> Validator\n  struct Registrant {\n\t  address addr;\n\t  uint stake;\n\t  bool active;\n  }\n  mapping(address => uint) public registrantIndex;\n  mapping(address => bool) public registrantBusy;  // a verifier is assigned to a channel\n  Registrant[] public registrants;\n\n  // one channel is initialized for one model\n  struct Channel {\n    bytes32 channel_id;   // assigned by contract\n    bytes32 model_id;     // model to be verified in this channel\n    uint k;               // proofs in this channel require k sigs\n  }\n\n  mapping(bytes32 => address[]) public channelVerifiers;\n  mapping(bytes32 => bool) public isChannelActive;\n  mapping(bytes32 => Channel) public channelStructs;\n  bytes32[] public channelList;\n\n  // Data structure containing the single proof for a model\n  struct Proof {\n    address sender;      // verifier who submitted this proof\n\t\tbytes32 merkle_root; // Merkle-root of the training logs\n    bytes32[] sigs;      // list of signatures provided by verifiers\n  }\n\n  struct Pot {\n    // bytes32 model_id;    // identity of the model this proof is for\n    bytes32[] proofsList;   // list of proofs'keys we can look up (sumbitted by verifiers)\n    mapping(bytes32 => Proof) proofStructs;\n    mapping(bytes32 => bool) proofsSubmitted;\n  }\n\n  mapping(bytes32 => Pot) potStructs;  // random access by model_id to proof of training\n\n  // Pot[] pots; // not used\n  // mapping(bytes32 => bytes32[]) pots;  // model_id to merkle_roots\n\n\n  /**\n   * Function can't have ether modifier\n   */\n  modifier noEther() {\n    if (msg.value > 0) revert();\n    _;\n    }\n\n  modifier isRegistrar() {\n      if (msg.sender != registrar) {\n        emit Error(1);\n        return;\n      }\n      else {\n        _;\n      }\n    }\n\n  /**\n   * Construct registry with and starting registrants lenght of one,\n   * and registrar as msg.sender\n   */\n  constructor() public{\n    registrar = msg.sender;\n    registrants.length++;\n    }\n\n  // submit proof of training to model\n  function submitProof(bytes32 model_id, bytes32 merkle_root, bytes32[] sigs) returns (bool) {\n      require(isChannel(model_id));\n      Proof memory prf;\n      prf.sender = msg.sender;\n      prf.merkle_root = merkle_root;\n      prf.sigs = sigs;\n\n      // FIXME\n      // proof key = hash(sender + model_id + merkle_root)\n      // sender + merkle_root should be enough because we store it to potStructs[model_id]\n      // there we go with the pot hash :)\n      bytes memory pot_hash = fitchainLib.concatenate3(bytes32(msg.sender), model_id, merkle_root);\n      bytes32 prf_key = keccak256(pot_hash);\n\n      // check if this proof has been submitted already\n      bool prf_exist = potStructs[model_id].proofsSubmitted[prf_key];\n      if(prf_exist == true){\n          emit Error(6);\n          return false;\n      }\n\n      potStructs[model_id].proofsList.push(prf_key);\n      potStructs[model_id].proofStructs[prf_key] = prf;\n      potStructs[model_id].proofsSubmitted[prf_key] = true;\n\n      // TODO\n      // check number of current submissions\n      // call isPotValid() (rename to isPotGood? :)\n\n      return true;\n    }\n\n  // given model_id returns the number of submitted proofs\n  function getProofCount(bytes32 model_id) public constant returns(uint) {\n    return potStructs[model_id].proofsList.length;\n    }\n\n  // given the model_id return the list of proof keys\n  function getProofsList(bytes32 model_id) public constant returns(bytes32[]) {\n    require(isChannel(model_id));\n    return potStructs[model_id].proofsList;\n  }\n\n  // given proof_key return the proof fields\n  function getProof(bytes32 model_id, bytes32 proof_key) public constant returns(address, bytes32, bytes32[]) {\n    require(isChannel(model_id));\n    Proof memory proof = potStructs[model_id].proofStructs[proof_key];\n    return (proof.sender, proof.merkle_root, proof.sigs);\n  }\n\n  // TBI given model_id returns bool if model is verified by consensus (valid Pot)\n  function isPotValid(bytes32 model_id) public constant returns(bool) {\n    // TODO count number of equal merkle roots reached super-majority\n    return true;\n  }\n\n  function isChannel(bytes32 check) public view returns(bool isIndeed) {\n   return isChannelActive[check];\n    }\n\n  function init_channel(bytes32 model_id, uint k) returns (bool success) {\n    require(!isChannel(model_id));\n    bytes32 channel_id = model_id;\n\n    channelList.push(channel_id);\n    channelStructs[channel_id].channel_id = channel_id;\n    channelStructs[channel_id].model_id = model_id;\n    channelStructs[channel_id].k = k;\n    isChannelActive[model_id] = true;\n    // allocate verifiers to this channel\n    channelVerifiers[channel_id] = new address[](0x0);\n\n    // allocate proof of training for the model in this channel\n    potStructs[model_id].proofsList = new bytes32[](0x0);\n    //pots[model_id] = new bytes32[](0x0);\n\n    // nominate verifiers for this channel\n    address[] memory v_addr = getEligibleProposer(k);\n    for(uint i=0; i<v_addr.length; i++) {\n        channelVerifiers[channel_id].push(v_addr[i]);\n        registrantBusy[v_addr[i]] = true;   // this verifier is busy\n    }\n\n    InitChannel(channel_id);\n    return true;\n    }\n\n\n  function getChannel(bytes32 channel_id) public view returns(bytes32, uint) {\n      require(isChannel(channel_id));\n      return (channelStructs[channel_id].model_id, channelStructs[channel_id].k);\n  }\n\n  function getVerifiers(bytes32 channel_id) public constant returns (address[]) {\n    require(isChannel(channel_id));\n    return channelVerifiers[channel_id];\n\n    /*\n    uint index = idToChannel[channel_id];\n    if (index == 0) {\n        emit Error(2);\n        return;\n    }\n    */\n\n    //address[] memory verifiers = channelVerifiers[channel_id];\n    //for(uint i=0; i<verifiers.length; i++){\n    //    v.push(verifiers[i]);\n    //  }\n    // return v;\n    //return new address[](0x0);\n  }\n\n\n  function getNumberOfChannels() public constant returns (uint count) {\n    return channelList.length;\n  }\n\n\n  function __is_valid(bytes model_id) constant returns (bool) {\n    // get channel from model_id\n    // get channel.verifiers and channel.k\n    // get pot from pot.model_id\n    // check that +k sigs in pot.proofs\n\n    return false;\n  }\n\n\n  /**\n   * Add a registrant and set stake with value\n   */\n  function deposit() payable public returns (bool) {\n\t  // check max number of verifiers (refund if fails)\n\t  require(registrants.length < VERIFIER_QUOTA);\n\t  uint pos = registrantIndex[msg.sender];\n\n\t  // if validator exists, add stake and activate if enough stake\n\t  if (pos > 0) {\n\t\t  registrants[pos].stake += msg.value;\n\t\t  registrants[pos].active = registrants[pos].stake >= MIN_STAKE;\n\t  }\n\t  // if new validator\n\t  else if (pos == 0) {\n\t\t  pos = registrants.length++;\n\t\t  bool active = msg.value >= MIN_STAKE;\n\t\t  // Create new registrant passing address, data, stake, active\n\t\t  registrants[pos] = Registrant(msg.sender, msg.value, active);\n\t\t  // Update position in mapping\n\t\t  registrantIndex[msg.sender] = pos;\n\t  }\n\n\t  // Notify blockchain\n\t  emit Created(msg.sender, msg.value);\n\t  return true;\n  }\n\n  // TBI\n  function withdraw() payable public returns (bool) {\n    require(!registrantBusy[msg.sender]);\n\n    // TODO make a payment from contract to sender\n\n    // TODO remove sender from list of verifiers\n\n\t  emit Withdrawn(msg.sender);\n\t  return true;\n    }\n\n    /**\n    * Edit a registrant, only registrar allowed\n    * public_function\n    * @param _registrant - The registrant address.\n    * @param _data - The registrant data string.\n    */\n    /*\n    function edit(address _registrant, bytes _data, bool _active) public isRegistrar noEther returns (bool) {\n      if (registrantIndex[_registrant] == 0) {\n\tError(3); // No such registrant\n\treturn false;\n      }\n\n      Registrant storage registrant = registrants[registrantIndex[_registrant]];\n      registrant.data = _data;\n      registrant.active = _active;\n      Updated(_registrant, msg.sender, _data, _active);\n      return true;\n    }\n    */\n\n    /**\n    * Set new registrar address, only registrar allowed\n    * public_function\n    * @param _registrar - The new registrar address.\n    */\n  function setNextRegistrar(address _registrar) public isRegistrar noEther returns (bool) {\n      registrar = _registrar;\n      return true;\n    }\n\n  /**\n    * Get if a registrant is active or not\n    * constant_function\n    * @param _registrant - The registrant address.\n    */\n  function isActiveRegistrant(address _registrant)  public constant returns (bool) {\n      // take index of this _registrant\n      uint pos = registrantIndex[_registrant];\n      return (pos > 0 && registrants[pos].active);\n    }\n\n\n\n\t /*\n    * Set registrant active or not active, only registrar allowed\n    * public_function\n    * @param _id - The identity to change.\n    * @param _isValid - The new validity of the thing.\n    */\n\n  function setRegistrantActive(address _registrant, bool is_active) public isRegistrar noEther returns(bool) {\n        uint index = registrantIndex[_registrant];\n\t      // not found\n        if (index == 0) {\n            emit Error(2);\n            return false;\n        }\n\n\t    // not authorized\n        if (registrar != msg.sender) {\n            emit Error(3);\n            return false;\n        }\n        // set valid field\n        registrants[index].active = is_active;\n\n        // Broadcast event\n\t\t    emit Updated(_registrant, registrar, is_active);\n        return true;\n    }\n\n\n    /**\n    * Get all the active registrants' addresses\n\t  * constant_function\n    */\n  function getRegistrants() public constant returns (address[]) {\n        address[] memory result = new address[](registrants.length-1);\n        for (uint j = 1; j < registrants.length; j++) {\n\t\t\t       if(registrants[j].active == true) {\n\t\t\t\t           result[j-1] = registrants[j].addr;\n\t\t\t              }\n        }\n        return result;\n    }\n\n\tfunction getStake(address _registrant) public constant returns (uint) {\n\t\t  uint index = registrantIndex[_registrant];\n\t\t  require(index > 0);\n\t\t  return registrants[index].stake;\n\t   }\n\n\n\t  /**\n    * Returns number of active registrants in the registrar\n    */\n  function getNumberRegistrants() public constant returns (uint) {\n\t\t    uint total = 0;\n\t\t    for(uint j=1;j<registrants.length;j++){\n\t\t\t     if(registrants[j].active == true) {\n\t\t\t          total++;\n\t\t\t            }\n\t\t    }\n      return total;\n    }\n\n    /**\n    * Function to reject value sends to the contract.\n    * fallback_function\n    */\n  function () noEther public  {}\n\n    /**\n    * Destruct the smart contract. Since this is first, alpha release of Open Registry for IoT, updated versions will follow.\n    * Registry's discontinue must be executed first.\n    */\n  function discontinue() public isRegistrar noEther {\n      selfdestruct(msg.sender);\n    }\n\n  function getBalance() public constant returns (uint){\n        return address(this).balance;\n      }\n\n\n    /* check if pool contains element */\n    // FIXME convert this to a mapping (much more efficient)\n  function contains(uint[] pool, uint element) pure returns(bool) {\n        for(uint i=0; i<pool.length; i++){\n            if(element == pool[i]){\n                return true;\n            }\n        }\n        return false;\n      }\n\n  function getEligibleProposer(uint num_verifiers) public constant returns (address[]) {\n        uint num_registrants = getNumberRegistrants();  // get number of active registrants\n        // FIXME require(num_registrants/num_verifiers > 2.5)\n\n        // selecting as many verifiers as available registrants\n        if (num_verifiers >= num_registrants) {\n          return getRegistrants();\n        }\n\n        uint[] memory selected = new uint[](num_verifiers);  // array of the indexes of selected verifiers\n        address[] memory v_addr = getRegistrants();  // addresses of active registrants\n\n        // get block.hash\n        uint blockNumber = block.number;\n        uint block_hash = uint(keccak256(block.blockhash(blockNumber), block.timestamp));\n        bytes32 hash = bytes32(block_hash);\n        uint added = 0;  // number of unique verifiers added so far\n        uint round = 0;  // selection round (keep selecting without duplicates)\n\n        while(added < num_verifiers) {\n            uint idx;\n            uint product = 1;\n            // calculate some random number from some digits in block hash\n            for(uint i=round; i<round+2; i++){\n                product = product*uint(hash[i]);\n            }\n            idx = product % num_registrants;\n\n            // FIXME convert to a mapping (uint => bool)\n            if(!contains(selected, idx))\n            {\n                selected[added] = idx;\n                added++;\n            }\n            round++;\n        }\n        address[] memory selected_addr = new address[](num_verifiers);\n        for(i=0; i<num_verifiers; i++){\n          selected_addr[i] = v_addr[selected[i]];\n          }\n        return selected_addr;\n        }\n      }\n",
  "sourcePath": "/Users/frag/Documents/fitchain/ethereum_contracts/contracts/vpc.sol",
  "compiler": {
    "name": "solc",
    "version": "0.4.24+commit.e67f0147.Emscripten.clang"
  },
  "schemaVersion": "2.0.0",
  "updatedAt": "2018-09-11T13:48:28.958Z"
}