{
  "contractName": "Vpc",
  "abi": [
    {
      "constant": true,
      "inputs": [],
      "name": "registrar",
      "outputs": [
        {
          "name": "",
          "type": "address"
        }
      ],
      "payable": false,
      "stateMutability": "view",
      "type": "function"
    },
    {
      "constant": true,
      "inputs": [
        {
          "name": "",
          "type": "bytes32"
        },
        {
          "name": "",
          "type": "uint256"
        }
      ],
      "name": "channelVerifiers",
      "outputs": [
        {
          "name": "",
          "type": "address"
        }
      ],
      "payable": false,
      "stateMutability": "view",
      "type": "function"
    },
    {
      "constant": true,
      "inputs": [
        {
          "name": "",
          "type": "address"
        }
      ],
      "name": "registrantIndex",
      "outputs": [
        {
          "name": "",
          "type": "uint256"
        }
      ],
      "payable": false,
      "stateMutability": "view",
      "type": "function"
    },
    {
      "constant": true,
      "inputs": [
        {
          "name": "",
          "type": "uint256"
        }
      ],
      "name": "channelList",
      "outputs": [
        {
          "name": "",
          "type": "bytes32"
        }
      ],
      "payable": false,
      "stateMutability": "view",
      "type": "function"
    },
    {
      "constant": true,
      "inputs": [
        {
          "name": "",
          "type": "bytes32"
        }
      ],
      "name": "channelStructs",
      "outputs": [
        {
          "name": "channel_id",
          "type": "bytes32"
        },
        {
          "name": "model_id",
          "type": "bytes32"
        },
        {
          "name": "k",
          "type": "uint256"
        }
      ],
      "payable": false,
      "stateMutability": "view",
      "type": "function"
    },
    {
      "constant": true,
      "inputs": [
        {
          "name": "",
          "type": "uint256"
        }
      ],
      "name": "registrants",
      "outputs": [
        {
          "name": "addr",
          "type": "address"
        },
        {
          "name": "stake",
          "type": "uint256"
        },
        {
          "name": "active",
          "type": "bool"
        }
      ],
      "payable": false,
      "stateMutability": "view",
      "type": "function"
    },
    {
      "constant": true,
      "inputs": [
        {
          "name": "",
          "type": "address"
        }
      ],
      "name": "registrantBusy",
      "outputs": [
        {
          "name": "",
          "type": "bool"
        }
      ],
      "payable": false,
      "stateMutability": "view",
      "type": "function"
    },
    {
      "constant": true,
      "inputs": [
        {
          "name": "",
          "type": "bytes32"
        }
      ],
      "name": "isChannelActive",
      "outputs": [
        {
          "name": "",
          "type": "bool"
        }
      ],
      "payable": false,
      "stateMutability": "view",
      "type": "function"
    },
    {
      "inputs": [],
      "payable": false,
      "stateMutability": "nonpayable",
      "type": "constructor"
    },
    {
      "payable": false,
      "stateMutability": "nonpayable",
      "type": "fallback"
    },
    {
      "anonymous": false,
      "inputs": [
        {
          "indexed": false,
          "name": "registrant",
          "type": "address"
        },
        {
          "indexed": false,
          "name": "stake",
          "type": "uint256"
        }
      ],
      "name": "Created",
      "type": "event"
    },
    {
      "anonymous": false,
      "inputs": [
        {
          "indexed": true,
          "name": "registrant",
          "type": "address"
        },
        {
          "indexed": false,
          "name": "registrar",
          "type": "address"
        },
        {
          "indexed": false,
          "name": "active",
          "type": "bool"
        }
      ],
      "name": "Updated",
      "type": "event"
    },
    {
      "anonymous": false,
      "inputs": [
        {
          "indexed": false,
          "name": "addr",
          "type": "address"
        }
      ],
      "name": "Withdrawn",
      "type": "event"
    },
    {
      "anonymous": false,
      "inputs": [
        {
          "indexed": false,
          "name": "channel_id",
          "type": "bytes32"
        }
      ],
      "name": "InitChannel",
      "type": "event"
    },
    {
      "anonymous": false,
      "inputs": [
        {
          "indexed": false,
          "name": "code",
          "type": "uint256"
        }
      ],
      "name": "Error",
      "type": "event"
    },
    {
      "constant": false,
      "inputs": [
        {
          "name": "model_id",
          "type": "bytes32"
        },
        {
          "name": "merkle_root",
          "type": "bytes32"
        },
        {
          "name": "sigs",
          "type": "bytes32[]"
        }
      ],
      "name": "submitProof",
      "outputs": [
        {
          "name": "",
          "type": "bool"
        }
      ],
      "payable": false,
      "stateMutability": "nonpayable",
      "type": "function"
    },
    {
      "constant": true,
      "inputs": [
        {
          "name": "model_id",
          "type": "bytes32"
        }
      ],
      "name": "getProofCount",
      "outputs": [
        {
          "name": "",
          "type": "uint256"
        }
      ],
      "payable": false,
      "stateMutability": "view",
      "type": "function"
    },
    {
      "constant": true,
      "inputs": [
        {
          "name": "model_id",
          "type": "bytes32"
        }
      ],
      "name": "getProofsList",
      "outputs": [
        {
          "name": "",
          "type": "bytes32[]"
        }
      ],
      "payable": false,
      "stateMutability": "view",
      "type": "function"
    },
    {
      "constant": true,
      "inputs": [
        {
          "name": "model_id",
          "type": "bytes32"
        },
        {
          "name": "proof_key",
          "type": "bytes32"
        }
      ],
      "name": "getProof",
      "outputs": [
        {
          "name": "",
          "type": "address"
        },
        {
          "name": "",
          "type": "bytes32"
        },
        {
          "name": "",
          "type": "bytes32[]"
        }
      ],
      "payable": false,
      "stateMutability": "view",
      "type": "function"
    },
    {
      "constant": true,
      "inputs": [
        {
          "name": "model_id",
          "type": "bytes32"
        }
      ],
      "name": "isPotValid",
      "outputs": [
        {
          "name": "",
          "type": "bool"
        },
        {
          "name": "",
          "type": "uint256"
        }
      ],
      "payable": false,
      "stateMutability": "view",
      "type": "function"
    },
    {
      "constant": true,
      "inputs": [
        {
          "name": "model_id",
          "type": "bytes32"
        },
        {
          "name": "merkle_root",
          "type": "bytes32"
        }
      ],
      "name": "getValidationInfo",
      "outputs": [
        {
          "name": "",
          "type": "uint256"
        }
      ],
      "payable": false,
      "stateMutability": "view",
      "type": "function"
    },
    {
      "constant": true,
      "inputs": [
        {
          "name": "check",
          "type": "bytes32"
        }
      ],
      "name": "isChannel",
      "outputs": [
        {
          "name": "isIndeed",
          "type": "bool"
        }
      ],
      "payable": false,
      "stateMutability": "view",
      "type": "function"
    },
    {
      "constant": false,
      "inputs": [
        {
          "name": "model_id",
          "type": "bytes32"
        },
        {
          "name": "k",
          "type": "uint256"
        }
      ],
      "name": "initChannel",
      "outputs": [
        {
          "name": "success",
          "type": "bool"
        }
      ],
      "payable": false,
      "stateMutability": "nonpayable",
      "type": "function"
    },
    {
      "constant": true,
      "inputs": [
        {
          "name": "channel_id",
          "type": "bytes32"
        }
      ],
      "name": "getChannel",
      "outputs": [
        {
          "name": "",
          "type": "bytes32"
        },
        {
          "name": "",
          "type": "uint256"
        }
      ],
      "payable": false,
      "stateMutability": "view",
      "type": "function"
    },
    {
      "constant": true,
      "inputs": [
        {
          "name": "channel_id",
          "type": "bytes32"
        }
      ],
      "name": "getVerifiers",
      "outputs": [
        {
          "name": "",
          "type": "address[]"
        }
      ],
      "payable": false,
      "stateMutability": "view",
      "type": "function"
    },
    {
      "constant": true,
      "inputs": [],
      "name": "getNumberOfChannels",
      "outputs": [
        {
          "name": "count",
          "type": "uint256"
        }
      ],
      "payable": false,
      "stateMutability": "view",
      "type": "function"
    },
    {
      "constant": false,
      "inputs": [],
      "name": "deposit",
      "outputs": [
        {
          "name": "",
          "type": "bool"
        }
      ],
      "payable": true,
      "stateMutability": "payable",
      "type": "function"
    },
    {
      "constant": false,
      "inputs": [],
      "name": "withdraw",
      "outputs": [
        {
          "name": "",
          "type": "bool"
        }
      ],
      "payable": true,
      "stateMutability": "payable",
      "type": "function"
    },
    {
      "constant": false,
      "inputs": [
        {
          "name": "_registrar",
          "type": "address"
        }
      ],
      "name": "setNextRegistrar",
      "outputs": [
        {
          "name": "",
          "type": "bool"
        }
      ],
      "payable": false,
      "stateMutability": "nonpayable",
      "type": "function"
    },
    {
      "constant": true,
      "inputs": [
        {
          "name": "_registrant",
          "type": "address"
        }
      ],
      "name": "isActiveRegistrant",
      "outputs": [
        {
          "name": "",
          "type": "bool"
        }
      ],
      "payable": false,
      "stateMutability": "view",
      "type": "function"
    },
    {
      "constant": false,
      "inputs": [
        {
          "name": "_registrant",
          "type": "address"
        },
        {
          "name": "is_active",
          "type": "bool"
        }
      ],
      "name": "setRegistrantActive",
      "outputs": [
        {
          "name": "",
          "type": "bool"
        }
      ],
      "payable": false,
      "stateMutability": "nonpayable",
      "type": "function"
    },
    {
      "constant": true,
      "inputs": [],
      "name": "getRegistrants",
      "outputs": [
        {
          "name": "",
          "type": "address[]"
        }
      ],
      "payable": false,
      "stateMutability": "view",
      "type": "function"
    },
    {
      "constant": true,
      "inputs": [
        {
          "name": "_registrant",
          "type": "address"
        }
      ],
      "name": "getStake",
      "outputs": [
        {
          "name": "",
          "type": "uint256"
        }
      ],
      "payable": false,
      "stateMutability": "view",
      "type": "function"
    },
    {
      "constant": true,
      "inputs": [],
      "name": "getNumberRegistrants",
      "outputs": [
        {
          "name": "",
          "type": "uint256"
        }
      ],
      "payable": false,
      "stateMutability": "view",
      "type": "function"
    },
    {
      "constant": false,
      "inputs": [],
      "name": "discontinue",
      "outputs": [],
      "payable": false,
      "stateMutability": "nonpayable",
      "type": "function"
    },
    {
      "constant": true,
      "inputs": [],
      "name": "getBalance",
      "outputs": [
        {
          "name": "",
          "type": "uint256"
        }
      ],
      "payable": false,
      "stateMutability": "view",
      "type": "function"
    },
    {
      "constant": true,
      "inputs": [
        {
          "name": "pool",
          "type": "uint256[]"
        },
        {
          "name": "element",
          "type": "uint256"
        }
      ],
      "name": "contains",
      "outputs": [
        {
          "name": "",
          "type": "bool"
        }
      ],
      "payable": false,
      "stateMutability": "pure",
      "type": "function"
    },
    {
      "constant": true,
      "inputs": [
        {
          "name": "num_verifiers",
          "type": "uint256"
        }
      ],
      "name": "getEligibleProposer",
      "outputs": [
        {
          "name": "",
          "type": "address[]"
        }
      ],
      "payable": false,
      "stateMutability": "view",
      "type": "function"
    }
  ],
  "bytecode": "0x608060405267a688906bd8b000006000556103e860015560016002553480156200002857600080fd5b5033600360006101000a81548173ffffffffffffffffffffffffffffffffffffffff021916908373ffffffffffffffffffffffffffffffffffffffff1602179055506006805480919060010162000080919062000087565b5062000121565b815481835581811115620000b757600302816003028360005260206000209182019101620000b69190620000bc565b5b505050565b6200011e91905b808211156200011a57600080820160006101000a81549073ffffffffffffffffffffffffffffffffffffffff021916905560018201600090556002820160006101000a81549060ff021916905550600301620000c3565b5090565b90565b612ca080620001316000396000f30060806040526004361061018a576000357c0100000000000000000000000000000000000000000000000000000000900463ffffffff168062511568146101a7578063052b2aa7146101d257806312065fe01461023e5780631cf52f2b146102695780631f0f711f146102c45780632b20e397146102db5780632ca1e78814610332578063300db2c71461037b578063327cc732146103f65780633ccfd60b1461044d5780634b0d399d1461046f5780634b5bcc6c146104f15780634f63d9b91461058b5780635d3a38bc146105d45780635e41f529146106275780636ac4d5821461068a57806379bf1a37146107095780637a1511941461078f5780637a76646014610815578063831c2b821461086c5780638a16a35f146108c0578063b28c978b14610996578063b32b8e2c146109e9578063d0e30db014610a71578063d6bea93814610a93578063ecf54ab014610afa578063f2cb7cdc14610b4a578063f877609714610b75578063fa8f6f8d14610bd0578063fc9e53df14610c19578063fd769d6314610c74575b34801561019657600080fd5b5060003411156101a557600080fd5b005b3480156101b357600080fd5b506101bc610cb9565b6040518082815260200191505060405180910390f35b3480156101de57600080fd5b506101e7610d2b565b6040518080602001828103825283818151815260200191508051906020019060200280838360005b8381101561022a57808201518184015260208101905061020f565b505050509050019250505060405180910390f35b34801561024a57600080fd5b50610253610e5a565b6040518082815260200191505060405180910390f35b34801561027557600080fd5b506102aa600480360381019080803573ffffffffffffffffffffffffffffffffffffffff169060200190929190505050610e79565b604051808215151515815260200191505060405180910390f35b3480156102d057600080fd5b506102d9610f00565b005b3480156102e757600080fd5b506102f0610fbd565b604051808273ffffffffffffffffffffffffffffffffffffffff1673ffffffffffffffffffffffffffffffffffffffff16815260200191505060405180910390f35b34801561033e57600080fd5b506103616004803603810190808035600019169060200190929190505050610fe3565b604051808215151515815260200191505060405180910390f35b34801561038757600080fd5b506103b4600480360381019080803560001916906020019092919080359060200190929190505050611015565b604051808273ffffffffffffffffffffffffffffffffffffffff1673ffffffffffffffffffffffffffffffffffffffff16815260200191505060405180910390f35b34801561040257600080fd5b50610437600480360381019080803573ffffffffffffffffffffffffffffffffffffffff169060200190929190505050611062565b6040518082815260200191505060405180910390f35b61045561107a565b604051808215151515815260200191505060405180910390f35b34801561047b57600080fd5b5061049a6004803603810190808035906020019092919050505061113f565b6040518080602001828103825283818151815260200191508051906020019060200280838360005b838110156104dd5780820151818401526020810190506104c2565b505050509050019250505060405180910390f35b3480156104fd57600080fd5b50610571600480360381019080803560001916906020019092919080356000191690602001909291908035906020019082018035906020019080806020026020016040519081016040528093929190818152602001838360200280828437820191505050505050919291929050505061139c565b604051808215151515815260200191505060405180910390f35b34801561059757600080fd5b506105b66004803603810190808035906020019092919050505061170d565b60405180826000191660001916815260200191505060405180910390f35b3480156105e057600080fd5b5061060d600480360381019080803560001916906020019092919080359060200190929190505050611730565b604051808215151515815260200191505060405180910390f35b34801561063357600080fd5b506106566004803603810190808035600019169060200190929190505050611a70565b6040518084600019166000191681526020018360001916600019168152602001828152602001935050505060405180910390f35b34801561069657600080fd5b506106b560048036038101908080359060200190929190505050611a9a565b604051808473ffffffffffffffffffffffffffffffffffffffff1673ffffffffffffffffffffffffffffffffffffffff16815260200183815260200182151515158152602001935050505060405180910390f35b34801561071557600080fd5b506107386004803603810190808035600019169060200190929190505050611b00565b6040518080602001828103825283818151815260200191508051906020019060200280838360005b8381101561077b578082015181840152602081019050610760565b505050509050019250505060405180910390f35b34801561079b57600080fd5b506107be6004803603810190808035600019169060200190929190505050611bbd565b6040518080602001828103825283818151815260200191508051906020019060200280838360005b838110156108015780820151818401526020810190506107e6565b505050509050019250505060405180910390f35b34801561082157600080fd5b50610856600480360381019080803573ffffffffffffffffffffffffffffffffffffffff169060200190929190505050611c4b565b6040518082815260200191505060405180910390f35b34801561087857600080fd5b5061089b6004803603810190808035600019169060200190929190505050611cc8565b6040518083600019166000191681526020018281526020019250505060405180910390f35b3480156108cc57600080fd5b506108fd60048036038101908080356000191690602001909291908035600019169060200190929190505050611d26565b604051808473ffffffffffffffffffffffffffffffffffffffff1673ffffffffffffffffffffffffffffffffffffffff168152602001836000191660001916815260200180602001828103825283818151815260200191508051906020019060200280838360005b83811015610980578082015181840152602081019050610965565b5050505090500194505050505060405180910390f35b3480156109a257600080fd5b506109d360048036038101908080356000191690602001909291908035600019169060200190929190505050611e70565b6040518082815260200191505060405180910390f35b3480156109f557600080fd5b50610a576004803603810190808035906020019082018035906020019080806020026020016040519081016040528093929190818152602001838360200280828437820191505050505050919291929080359060200190929190505050611eb2565b604051808215151515815260200191505060405180910390f35b610a79611f04565b604051808215151515815260200191505060405180910390f35b348015610a9f57600080fd5b50610ae0600480360381019080803573ffffffffffffffffffffffffffffffffffffffff16906020019092919080351515906020019092919050505061219f565b604051808215151515815260200191505060405180910390f35b348015610b0657600080fd5b50610b296004803603810190808035600019169060200190929190505050612455565b60405180831515151581526020018281526020019250505060405180910390f35b348015610b5657600080fd5b50610b5f612529565b6040518082815260200191505060405180910390f35b348015610b8157600080fd5b50610bb6600480360381019080803573ffffffffffffffffffffffffffffffffffffffff169060200190929190505050612536565b604051808215151515815260200191505060405180910390f35b348015610bdc57600080fd5b50610bff6004803603810190808035600019169060200190929190505050612556565b604051808215151515815260200191505060405180910390f35b348015610c2557600080fd5b50610c5a600480360381019080803573ffffffffffffffffffffffffffffffffffffffff169060200190929190505050612576565b604051808215151515815260200191505060405180910390f35b348015610c8057600080fd5b50610ca36004803603810190808035600019169060200190929190505050612665565b6040518082815260200191505060405180910390f35b6000806000809150600190505b600680549050811015610d235760011515600682815481101515610ce657fe5b906000526020600020906003020160020160009054906101000a900460ff1615151415610d165781806001019250505b8080600101915050610cc6565b819250505090565b6060806000600160068054905003604051908082528060200260200182016040528015610d675781602001602082028038833980820191505090505b509150600190505b600680549050811015610e525760011515600682815481101515610d8f57fe5b906000526020600020906003020160020160009054906101000a900460ff1615151415610e4557600681815481101515610dc557fe5b906000526020600020906003020160000160009054906101000a900473ffffffffffffffffffffffffffffffffffffffff168260018303815181101515610e0857fe5b9060200190602002019073ffffffffffffffffffffffffffffffffffffffff16908173ffffffffffffffffffffffffffffffffffffffff16815250505b8080600101915050610d6f565b819250505090565b60003073ffffffffffffffffffffffffffffffffffffffff1631905090565b600080600460008473ffffffffffffffffffffffffffffffffffffffff1673ffffffffffffffffffffffffffffffffffffffff168152602001908152602001600020549050600081118015610ef85750600681815481101515610ed857fe5b906000526020600020906003020160020160009054906101000a900460ff165b915050919050565b600360009054906101000a900473ffffffffffffffffffffffffffffffffffffffff1673ffffffffffffffffffffffffffffffffffffffff163373ffffffffffffffffffffffffffffffffffffffff16141515610f94577f2e36a7093f25f22bd4cbdeb6040174c3ba4c5fe8f1abc04e7c3c48f26c7413e060016040518082815260200191505060405180910390a1610fbb565b6000341115610fa257600080fd5b3373ffffffffffffffffffffffffffffffffffffffff16ff5b565b600360009054906101000a900473ffffffffffffffffffffffffffffffffffffffff1681565b600060086000836000191660001916815260200190815260200160002060009054906101000a900460ff169050919050565b60076020528160005260406000208181548110151561103057fe5b906000526020600020016000915091509054906101000a900473ffffffffffffffffffffffffffffffffffffffff1681565b60046020528060005260406000206000915090505481565b6000600560003373ffffffffffffffffffffffffffffffffffffffff1673ffffffffffffffffffffffffffffffffffffffff16815260200190815260200160002060009054906101000a900460ff161515156110d557600080fd5b7ff45a04d08a70caa7eb4b747571305559ad9fdf4a093afd41506b35c8a306fa9433604051808273ffffffffffffffffffffffffffffffffffffffff1673ffffffffffffffffffffffffffffffffffffffff16815260200191505060405180910390a16001905090565b60606000606080600080600080600080600080606061115c610cb9565b9b508b8e1015156111765761116f610d2b565b9c5061138b565b8d6040519080825280602002602001820160405280156111a55781602001602082028038833980820191505090505b509a506111b0610d2b565b995043985088404260405180836000191660001916815260200182815260200192505050604051809103902060019004975087600102965060009550600094505b8d8610156112c257600192508491505b6002850182101561127157868260208110151561121a57fe5b1a7f0100000000000000000000000000000000000000000000000000000000000000027f01000000000000000000000000000000000000000000000000000000000000009004830292508180600101925050611201565b8b8381151561127c57fe5b0693506112898b85611eb2565b15156112b557838b8781518110151561129e57fe5b906020019060200201818152505085806001019650505b84806001019550506111f1565b8d6040519080825280602002602001820160405280156112f15781602001602082028038833980820191505090505b509050600091505b8d82101561138757898b8381518110151561131057fe5b9060200190602002015181518110151561132657fe5b90602001906020020151818381518110151561133e57fe5b9060200190602002019073ffffffffffffffffffffffffffffffffffffffff16908173ffffffffffffffffffffffffffffffffffffffff168152505081806001019250506112f9565b809c505b505050505050505050505050919050565b60006113a6612a0d565b606060008060006113b689610fe3565b15156113c157600080fd5b33856000019073ffffffffffffffffffffffffffffffffffffffff16908173ffffffffffffffffffffffffffffffffffffffff1681525050878560200190600019169081600019168152505086856040018190525061143a3373ffffffffffffffffffffffffffffffffffffffff166001028a8a612690565b9350836040518082805190602001908083835b602083101515611472578051825260208201915060208101905060208303925061144d565b6001836020036101000a03801982511681845116808217855250505050505090500191505060405180910390209250600b60008a600019166000191681526020019081526020016000206002016000846000191660001916815260200190815260200160002060009054906101000a900460ff169150600115158215151415611536577f2e36a7093f25f22bd4cbdeb6040174c3ba4c5fe8f1abc04e7c3c48f26c7413e060066040518082815260200191505060405180910390a160009550611701565b600b60008a6000191660001916815260200190815260200160002060000183908060018154018082558091505090600182039060005260206000200160009091929091909150906000191690555084600b60008b600019166000191681526020019081526020016000206001016000856000191660001916815260200190815260200160002060008201518160000160006101000a81548173ffffffffffffffffffffffffffffffffffffffff021916908373ffffffffffffffffffffffffffffffffffffffff16021790555060208201518160010190600019169055604082015181600201908051906020019061162f929190612a48565b509050506001600b60008b600019166000191681526020019081526020016000206002016000856000191660001916815260200190815260200160002060006101000a81548160ff021916908315150217905550600b60008a600019166000191681526020019081526020016000206003016000896000191660001916815260200190815260200160002054905060018101600b60008b6000191660001916815260200190815260200160002060030160008a6000191660001916815260200190815260200160002081905550600195505b50505050509392505050565b600a8181548110151561171c57fe5b906000526020600020016000915090505481565b6000806060600061174086610fe3565b15151561174c57600080fd5b6002548511151561175c57600080fd5b859250600a8390806001815401808255809150509060018203906000526020600020016000909192909190915090600019169055508260096000856000191660001916815260200190815260200160002060000181600019169055508560096000856000191660001916815260200190815260200160002060010181600019169055508460096000856000191660001916815260200190815260200160002060020181905550600160086000886000191660001916815260200190815260200160002060006101000a81548160ff02191690831515021790555060006040519080825280602002602001820160405280156118665781602001602082028038833980820191505090505b506007600085600019166000191681526020019081526020016000209080519060200190611895929190612a9b565b5060006040519080825280602002602001820160405280156118c65781602001602082028038833980820191505090505b50600b6000886000191660001916815260200190815260200160002060000190805190602001906118f8929190612b25565b506119028561113f565b9150600090505b8151811015611a2457600760008460001916600019168152602001908152602001600020828281518110151561193b57fe5b9060200190602002015190806001815401808255809150509060018203906000526020600020016000909192909190916101000a81548173ffffffffffffffffffffffffffffffffffffffff021916908373ffffffffffffffffffffffffffffffffffffffff1602179055505060016005600084848151811015156119bc57fe5b9060200190602002015173ffffffffffffffffffffffffffffffffffffffff1673ffffffffffffffffffffffffffffffffffffffff16815260200190815260200160002060006101000a81548160ff0219169083151502179055508080600101915050611909565b7f4c5211b39f19cac6920e0e0cce425d092aeb9d60df2bfd5f596f8f0257270e238360405180826000191660001916815260200191505060405180910390a16001935050505092915050565b60096020528060005260406000206000915090508060000154908060010154908060020154905083565b600681815481101515611aa957fe5b90600052602060002090600302016000915090508060000160009054906101000a900473ffffffffffffffffffffffffffffffffffffffff16908060010154908060020160009054906101000a900460ff16905083565b6060611b0b82610fe3565b1515611b1657600080fd5b600760008360001916600019168152602001908152602001600020805480602002602001604051908101604052809291908181526020018280548015611bb157602002820191906000526020600020905b8160009054906101000a900473ffffffffffffffffffffffffffffffffffffffff1673ffffffffffffffffffffffffffffffffffffffff1681526020019060010190808311611b67575b50505050509050919050565b6060611bc882610fe3565b1515611bd357600080fd5b600b60008360001916600019168152602001908152602001600020600001805480602002602001604051908101604052809291908181526020018280548015611c3f57602002820191906000526020600020905b81546000191681526020019060010190808311611c27575b50505050509050919050565b600080600460008473ffffffffffffffffffffffffffffffffffffffff1673ffffffffffffffffffffffffffffffffffffffff168152602001908152602001600020549050600081111515611c9f57600080fd5b600681815481101515611cae57fe5b906000526020600020906003020160010154915050919050565b600080611cd483610fe3565b1515611cdf57600080fd5b600960008460001916600019168152602001908152602001600020600101546009600085600019166000191681526020019081526020016000206002015491509150915091565b6000806060611d33612a0d565b611d3c86610fe3565b1515611d4757600080fd5b600b6000876000191660001916815260200190815260200160002060010160008660001916600019168152602001908152602001600020606060405190810160405290816000820160009054906101000a900473ffffffffffffffffffffffffffffffffffffffff1673ffffffffffffffffffffffffffffffffffffffff1673ffffffffffffffffffffffffffffffffffffffff16815260200160018201546000191660001916815260200160028201805480602002602001604051908101604052809291908181526020018280548015611e4557602002820191906000526020600020905b81546000191681526020019060010190808311611e2d575b5050505050815250509050806000015181602001518260400151809050935093509350509250925092565b6000600b600084600019166000191681526020019081526020016000206003016000836000191660001916815260200190815260200160002054905092915050565b600080600090505b8351811015611ef8578381815181101515611ed157fe5b90602001906020020151831415611eeb5760019150611efd565b8080600101915050611eba565b600091505b5092915050565b6000806000600154600680549050101515611f1e57600080fd5b600460003373ffffffffffffffffffffffffffffffffffffffff1673ffffffffffffffffffffffffffffffffffffffff1681526020019081526020016000205491506000821115611ff95734600683815481101515611f7957fe5b906000526020600020906003020160010160008282540192505081905550600054600683815481101515611fa957fe5b9060005260206000209060030201600101541015600683815481101515611fcc57fe5b906000526020600020906003020160020160006101000a81548160ff02191690831515021790555061212b565b600082141561212a57600680548091906001016120169190612b78565b915060005434101590506060604051908101604052803373ffffffffffffffffffffffffffffffffffffffff16815260200134815260200182151581525060068381548110151561206357fe5b906000526020600020906003020160008201518160000160006101000a81548173ffffffffffffffffffffffffffffffffffffffff021916908373ffffffffffffffffffffffffffffffffffffffff1602179055506020820151816001015560408201518160020160006101000a81548160ff02191690831515021790555090505081600460003373ffffffffffffffffffffffffffffffffffffffff1673ffffffffffffffffffffffffffffffffffffffff168152602001908152602001600020819055505b5b7f0ce3610e89a4bb9ec9359763f99110ed52a4abaea0b62028a1637e242ca2768b3334604051808373ffffffffffffffffffffffffffffffffffffffff1673ffffffffffffffffffffffffffffffffffffffff1681526020018281526020019250505060405180910390a160019250505090565b600080600360009054906101000a900473ffffffffffffffffffffffffffffffffffffffff1673ffffffffffffffffffffffffffffffffffffffff163373ffffffffffffffffffffffffffffffffffffffff16141515612236577f2e36a7093f25f22bd4cbdeb6040174c3ba4c5fe8f1abc04e7c3c48f26c7413e060016040518082815260200191505060405180910390a161244e565b600034111561224457600080fd5b600460008573ffffffffffffffffffffffffffffffffffffffff1673ffffffffffffffffffffffffffffffffffffffff16815260200190815260200160002054905060008114156122d0577f2e36a7093f25f22bd4cbdeb6040174c3ba4c5fe8f1abc04e7c3c48f26c7413e060026040518082815260200191505060405180910390a16000915061244d565b3373ffffffffffffffffffffffffffffffffffffffff16600360009054906101000a900473ffffffffffffffffffffffffffffffffffffffff1673ffffffffffffffffffffffffffffffffffffffff16141515612368577f2e36a7093f25f22bd4cbdeb6040174c3ba4c5fe8f1abc04e7c3c48f26c7413e060036040518082815260200191505060405180910390a16000915061244d565b8260068281548110151561237857fe5b906000526020600020906003020160020160006101000a81548160ff0219169083151502179055508373ffffffffffffffffffffffffffffffffffffffff167fa3dc6f84978ec45c7aa4a93448811c5c607b9f815af61466a2bedeebdd9f7248600360009054906101000a900473ffffffffffffffffffffffffffffffffffffffff1685604051808373ffffffffffffffffffffffffffffffffffffffff1673ffffffffffffffffffffffffffffffffffffffff168152602001821515151581526020019250505060405180910390a2600191505b5b5092915050565b600080600080606060008060006060600061246f8b611cc8565b9750975061247c8b611bbd565b9550600094505b8551851015612511576124ad8b878781518110151561249e57fe5b90602001906020020151611d26565b935093509350600b60008c600019166000191681526020019081526020016000206003016000846000191660001916815260200190815260200160002054905060018703811115612504576001819950995061251c565b8480600101955050612483565b600080809050995099505b5050505050505050915091565b6000600a80549050905090565b60056020528060005260406000206000915054906101000a900460ff1681565b60086020528060005260406000206000915054906101000a900460ff1681565b6000600360009054906101000a900473ffffffffffffffffffffffffffffffffffffffff1673ffffffffffffffffffffffffffffffffffffffff163373ffffffffffffffffffffffffffffffffffffffff1614151561260c577f2e36a7093f25f22bd4cbdeb6040174c3ba4c5fe8f1abc04e7c3c48f26c7413e060016040518082815260200191505060405180910390a1612660565b600034111561261a57600080fd5b81600360006101000a81548173ffffffffffffffffffffffffffffffffffffffff021916908373ffffffffffffffffffffffffffffffffffffffff160217905550600190505b919050565b6000600b60008360001916600019168152602001908152602001600020600001805490509050919050565b60608060008060006060600060606040519080825280601f01601f1916602001820160405280156126d05781602001602082028038833980820191505090505b509550600093505b6020841015612794578360080260020a8a6001900402600102925060007f010000000000000000000000000000000000000000000000000000000000000002837effffffffffffffffffffffffffffffffffffffffffffffffffffffffffffff19161415156127875782868681518110151561275057fe5b9060200101907effffffffffffffffffffffffffffffffffffffffffffffffffffffffffffff1916908160001a9053506001850194505b83806001019450506126d8565b600093505b6020841015612855578360080260020a896001900402600102925060007f010000000000000000000000000000000000000000000000000000000000000002837effffffffffffffffffffffffffffffffffffffffffffffffffffffffffffff19161415156128485782868681518110151561281157fe5b9060200101907effffffffffffffffffffffffffffffffffffffffffffffffffffffffffffff1916908160001a9053506001850194505b8380600101945050612799565b600093505b6020841015612916578360080260020a886001900402600102925060007f010000000000000000000000000000000000000000000000000000000000000002837effffffffffffffffffffffffffffffffffffffffffffffffffffffffffffff1916141515612909578286868151811015156128d257fe5b9060200101907effffffffffffffffffffffffffffffffffffffffffffffffffffffffffffff1916908160001a9053506001850194505b838060010194505061285a565b846040519080825280601f01601f1916602001820160405280156129495781602001602082028038833980820191505090505b509150600090505b848110156129fd57858181518110151561296757fe5b9060200101517f010000000000000000000000000000000000000000000000000000000000000090047f01000000000000000000000000000000000000000000000000000000000000000282828151811015156129c057fe5b9060200101907effffffffffffffffffffffffffffffffffffffffffffffffffffffffffffff1916908160001a9053508080600101915050612951565b8196505050505050509392505050565b606060405190810160405280600073ffffffffffffffffffffffffffffffffffffffff16815260200160008019168152602001606081525090565b828054828255906000526020600020908101928215612a8a579160200282015b82811115612a89578251829060001916905591602001919060010190612a68565b5b509050612a979190612baa565b5090565b828054828255906000526020600020908101928215612b14579160200282015b82811115612b135782518260006101000a81548173ffffffffffffffffffffffffffffffffffffffff021916908373ffffffffffffffffffffffffffffffffffffffff16021790555091602001919060010190612abb565b5b509050612b219190612bcf565b5090565b828054828255906000526020600020908101928215612b67579160200282015b82811115612b66578251829060001916905591602001919060010190612b45565b5b509050612b749190612baa565b5090565b815481835581811115612ba557600302816003028360005260206000209182019101612ba49190612c12565b5b505050565b612bcc91905b80821115612bc8576000816000905550600101612bb0565b5090565b90565b612c0f91905b80821115612c0b57600081816101000a81549073ffffffffffffffffffffffffffffffffffffffff021916905550600101612bd5565b5090565b90565b612c7191905b80821115612c6d57600080820160006101000a81549073ffffffffffffffffffffffffffffffffffffffff021916905560018201600090556002820160006101000a81549060ff021916905550600301612c18565b5090565b905600a165627a7a72305820824638d8ef8385131c2d71070b2f4bdddea2663faaccbf7e7c431646f4bfa3960029",
  "source": "pragma solidity ^0.4.23;\nimport \"./fitchainLib.sol\";\n// import \"./Dictionary.sol\";\n\ncontract Vpc {\n  uint MIN_STAKE         = 12000000000000000000;   // min stake in wei (12 eth)\n  uint VERIFIER_QUOTA    = 1000;\n  uint MIN_NUM_VERIFIERS = 1;  // FIXME change_me\n  address public registrar;                        // address of account who inits\n\n  // using Dictionary for Dictionary.Data;\n\n  event Created(address registrant, uint stake);\n  event Updated(address indexed registrant, address registrar, bool active);\n  event Withdrawn(address addr);\n  event InitChannel(bytes32 channel_id);\n\n  /**\n   * Error event.\n   * event\n   * @param code - The error code\n   * 1: Permission denied\n   * 2: Duplicate Registrant address\n   * 3: No such Registrant\n   * 4: Min stake not reached\n   * 5: Max number of verifiers allowed\n   * 6: Proof already submitted\n   */\n  event Error(uint code);\n\n  // Registrant -> Validator\n  struct Registrant {\n\t  address addr;\n\t  uint stake;\n\t  bool active;\n  }\n  mapping(address => uint) public registrantIndex;\n  mapping(address => bool) public registrantBusy;  // a verifier is assigned to a channel\n  Registrant[] public registrants;\n\n  // one channel is initialized for one model\n  struct Channel {\n    bytes32 channel_id;   // assigned by contract\n    bytes32 model_id;     // model to be verified in this channel\n    uint k;               // proofs in this channel require k sigs\n  }\n\n  mapping(bytes32 => address[]) public channelVerifiers;\n  mapping(bytes32 => bool) public isChannelActive;\n  mapping(bytes32 => Channel) public channelStructs;\n  bytes32[] public channelList;\n\n  // Data structure containing the single proof for a model\n  struct Proof {\n    address sender;      // verifier who submitted this proof\n\t\tbytes32 merkle_root; // Merkle-root of the training logs\n    bytes32[] sigs;      // list of signatures provided by verifiers\n  }\n\n  struct Pot {\n    bytes32[] proofsList;   // list of proofs'keys we can look up (sumbitted by verifiers)\n    mapping(bytes32 => Proof) proofStructs;\n    mapping(bytes32 => bool) proofsSubmitted;\n    mapping(bytes32 => uint) merkle_counters;\n  }\n\n  mapping(bytes32 => Pot) potStructs;  // random access by model_id to proof of training\n  // Pot[] pots; // not used\n  // mapping(bytes32 => bytes32[]) pots;  // model_id to merkle_roots\n\n  /**\n   * no ether accepted for this tx\n   */\n  modifier noEther() {\n    if (msg.value > 0) revert();\n    _;\n    }\n\n  modifier isRegistrar() {\n      if (msg.sender != registrar) {\n        emit Error(1);\n        return;\n      }\n      else {\n        _;\n      }\n    }\n\n  /**\n   * Construct registry with and starting registrants lenght of one,\n   * and registrar as msg.sender\n   */\n  constructor() public{\n    registrar = msg.sender;\n    registrants.length++;\n    }\n\n  // submit proof of training to model\n  function submitProof(bytes32 model_id, bytes32 merkle_root, bytes32[] sigs) returns (bool) {\n      require(isChannel(model_id));\n      Proof memory prf;\n      prf.sender = msg.sender;\n      prf.merkle_root = merkle_root;\n      prf.sigs = sigs;\n\n      // FIXME\n      // proof key = hash(sender + model_id + merkle_root)\n      // sender + merkle_root should be enough because we store it to potStructs[model_id]\n      // there we go with the pot hash :)\n      bytes memory pot_hash = fitchainLib.concatenate3(bytes32(msg.sender), model_id, merkle_root);\n      bytes32 prf_key = keccak256(pot_hash);\n\n      // check if this proof has been submitted already\n      bool prf_exist = potStructs[model_id].proofsSubmitted[prf_key];\n      if(prf_exist == true){\n          emit Error(6);\n          return false;\n      }\n\n      potStructs[model_id].proofsList.push(prf_key);\n      potStructs[model_id].proofStructs[prf_key] = prf;\n      potStructs[model_id].proofsSubmitted[prf_key] = true;\n      // update merkle counter for this pot\n      uint count = potStructs[model_id].merkle_counters[merkle_root];\n      potStructs[model_id].merkle_counters[merkle_root] = count+1;\n\n      // TODO\n      // check number of current submissions\n      // call isPotValid() (rename to isPotGood? :)\n\n      return true;\n    }\n\n  // given model_id returns the number of submitted proofs\n  function getProofCount(bytes32 model_id) public constant returns(uint) {\n    return potStructs[model_id].proofsList.length;\n    }\n\n  // given the model_id return the list of proof keys\n  function getProofsList(bytes32 model_id) public constant returns(bytes32[]) {\n    require(isChannel(model_id));\n    return potStructs[model_id].proofsList;\n  }\n\n  // given proof_key return the proof fields\n  // TODO make this internal\n  function getProof(bytes32 model_id, bytes32 proof_key) public constant returns(address, bytes32, bytes32[]) {\n    require(isChannel(model_id));\n    Proof memory proof = potStructs[model_id].proofStructs[proof_key];\n    return (proof.sender, proof.merkle_root, proof.sigs);\n    }\n\n  // !!WORK IN PROGRESS!! given model_id returns bool if model is verified by consensus (valid Pot)\n  function isPotValid(bytes32 model_id) public constant returns(bool, uint) {\n    // get channel from model_id\n    // get channel.verifiers and channel.k\n    // get pot from pot.model_id\n    // check that +k sigs in pot.proofs\n    var (m_id, k) = getChannel(model_id);\n\n    // TODO count number of equal merkle roots reached super-majority\n    bytes32[] memory proof_keys = getProofsList(model_id);\n\n    for(uint i=0; i<proof_keys.length; i++){\n      var (prf_sender, prf_merkleroot, prf_sigs) = getProof(model_id, proof_keys[i]);\n        // TODO check sender is in verifiers of this channel\n\n        // TODO check that sigs belong to verifiers of this channel\n\n        // count how many verifiers proposed this merkle root\n        uint count = potStructs[model_id].merkle_counters[prf_merkleroot];\n        // FIXME super-majority 51% is enough\n        if(count > k-1) {\n          return (true, count);\n        }\n    }\n    return (false, 0);\n  }\n\n  function getValidationInfo(bytes32 model_id, bytes32 merkle_root) public constant returns(uint) {\n    return potStructs[model_id].merkle_counters[merkle_root];\n    }\n\n  function isChannel(bytes32 check) public view returns(bool isIndeed) {\n   return isChannelActive[check];\n    }\n\n  function initChannel(bytes32 model_id, uint k) returns (bool success) {\n    require(!isChannel(model_id));\n    require(k > MIN_NUM_VERIFIERS);\n\n    bytes32 channel_id = model_id;\n\n    channelList.push(channel_id);\n    channelStructs[channel_id].channel_id = channel_id;\n    channelStructs[channel_id].model_id = model_id;\n    channelStructs[channel_id].k = k;\n    isChannelActive[model_id] = true;\n    // allocate verifiers to this channel\n    channelVerifiers[channel_id] = new address[](0x0);\n\n    // allocate proof of training for the model in this channel\n    potStructs[model_id].proofsList = new bytes32[](0x0);\n\n    //pots[model_id] = new bytes32[](0x0);\n\n    // nominate verifiers for this channel\n    address[] memory v_addr = getEligibleProposer(k);\n    for(uint i=0; i<v_addr.length; i++) {\n        channelVerifiers[channel_id].push(v_addr[i]);\n        registrantBusy[v_addr[i]] = true;   // this verifier is busy\n    }\n\n    InitChannel(channel_id);\n    return true;\n    }\n\n  function getChannel(bytes32 channel_id) public view returns(bytes32, uint) {\n      require(isChannel(channel_id));\n      return (channelStructs[channel_id].model_id, channelStructs[channel_id].k);\n    }\n\n  function getVerifiers(bytes32 channel_id) public constant returns (address[]) {\n    require(isChannel(channel_id));\n    return channelVerifiers[channel_id];\n    }\n\n  function getNumberOfChannels() public constant returns (uint count) {\n    return channelList.length;\n    }\n\n  function deposit() payable public returns (bool) {\n\t  // check max number of verifiers (refund if fails)\n\t  require(registrants.length < VERIFIER_QUOTA);\n\t  uint pos = registrantIndex[msg.sender];\n\n\t  // if validator exists, add stake and activate if enough stake\n\t  if (pos > 0) {\n\t\t  registrants[pos].stake += msg.value;\n\t\t  registrants[pos].active = registrants[pos].stake >= MIN_STAKE;\n\t  }\n\t  // if new validator\n\t  else if (pos == 0) {\n\t\t  pos = registrants.length++;\n\t\t  bool active = msg.value >= MIN_STAKE;\n\t\t  // Create new registrant passing address, data, stake, active\n\t\t  registrants[pos] = Registrant(msg.sender, msg.value, active);\n\t\t  // Update position in mapping\n\t\t  registrantIndex[msg.sender] = pos;\n\t   }\n\t  // Notify blockchain\n\t  emit Created(msg.sender, msg.value);\n\t  return true;\n    }\n\n  // TBI\n  function withdraw() payable public returns (bool) {\n    require(!registrantBusy[msg.sender]);\n\n    // TODO make a payment from contract to sender\n\n    // TODO remove sender from list of verifiers\n\n\t  emit Withdrawn(msg.sender);\n\t  return true;\n    }\n\n    /**\n    * Set new registrar address, only registrar allowed\n    * public_function\n    * @param _registrar - The new registrar address.\n    */\n\n  function setNextRegistrar(address _registrar) public isRegistrar noEther returns (bool) {\n      registrar = _registrar;\n      return true;\n    }\n\n  /**\n    * Get if a registrant is active or not\n    * constant_function\n    * @param _registrant - The registrant address.\n    */\n  function isActiveRegistrant(address _registrant)  public constant returns (bool) {\n      // take index of this _registrant\n      uint pos = registrantIndex[_registrant];\n      return (pos > 0 && registrants[pos].active);\n    }\n\n\n\n\t /*\n    * Set registrant active or not active, only registrar allowed\n    * public_function\n    * @param _id - The identity to change.\n    * @param _isValid - The new validity of the thing.\n    */\n\n  function setRegistrantActive(address _registrant, bool is_active) public isRegistrar noEther returns(bool) {\n        uint index = registrantIndex[_registrant];\n\t      // not found\n        if (index == 0) {\n            emit Error(2);\n            return false;\n        }\n\n\t    // not authorized\n        if (registrar != msg.sender) {\n            emit Error(3);\n            return false;\n        }\n        // set valid field\n        registrants[index].active = is_active;\n\n        // Broadcast event\n\t\t    emit Updated(_registrant, registrar, is_active);\n        return true;\n    }\n\n\n    /**\n    * Get all the active registrants' addresses\n\t  * constant_function\n    */\n\n  function getRegistrants() public constant returns (address[]) {\n        address[] memory result = new address[](registrants.length-1);\n        for (uint j = 1; j < registrants.length; j++) {\n\t\t\t       if(registrants[j].active == true) {\n\t\t\t\t           result[j-1] = registrants[j].addr;\n\t\t\t              }\n        }\n        return result;\n    }\n\n\tfunction getStake(address _registrant) public constant returns (uint) {\n\t\t  uint index = registrantIndex[_registrant];\n\t\t  require(index > 0);\n\t\t  return registrants[index].stake;\n\t   }\n\n\n\t  /**\n    * Returns number of active registrants in the registrar\n    */\n\n  function getNumberRegistrants() public constant returns (uint) {\n\t\t    uint total = 0;\n\t\t    for(uint j=1;j<registrants.length;j++){\n\t\t\t     if(registrants[j].active == true) {\n\t\t\t          total++;\n\t\t\t            }\n\t\t    }\n      return total;\n    }\n\n    /**\n    * Function to reject value sends to the contract.\n    * fallback_function\n    */\n\n  function () noEther public  {}\n\n    /**\n    * Destruct the smart contract. Since this is first, alpha release of Open Registry for IoT, updated versions will follow.\n    * Registry's discontinue must be executed first.\n    */\n  function discontinue() public isRegistrar noEther {\n      selfdestruct(msg.sender);\n    }\n\n  function getBalance() public constant returns (uint){\n        return address(this).balance;\n      }\n\n\n    /* check if pool contains element */\n    // FIXME convert this to a mapping (much more efficient)\n\n  function contains(uint[] pool, uint element) pure returns(bool) {\n        for(uint i=0; i<pool.length; i++){\n            if(element == pool[i]){\n                return true;\n            }\n        }\n        return false;\n      }\n\n  function getEligibleProposer(uint num_verifiers) public constant returns (address[]) {\n        uint num_registrants = getNumberRegistrants();  // get number of active registrants\n        // FIXME require(num_registrants/num_verifiers > 2.5)\n\n        // selecting as many verifiers as available registrants\n        if (num_verifiers >= num_registrants) {\n          return getRegistrants();\n        }\n\n        uint[] memory selected = new uint[](num_verifiers);  // array of the indexes of selected verifiers\n        address[] memory v_addr = getRegistrants();  // addresses of active registrants\n\n        // get block.hash\n        uint blockNumber = block.number;\n        uint block_hash = uint(keccak256(block.blockhash(blockNumber), block.timestamp));\n        bytes32 hash = bytes32(block_hash);\n        uint added = 0;  // number of unique verifiers added so far\n        uint round = 0;  // selection round (keep selecting without duplicates)\n\n        while(added < num_verifiers) {\n            uint idx;\n            uint product = 1;\n            // calculate some random number from some digits in block hash\n            for(uint i=round; i<round+2; i++){\n                product = product*uint(hash[i]);\n            }\n            idx = product % num_registrants;\n\n            // FIXME convert to a mapping (uint => bool)\n            if(!contains(selected, idx))\n            {\n                selected[added] = idx;\n                added++;\n            }\n            round++;\n        }\n        address[] memory selected_addr = new address[](num_verifiers);\n        for(i=0; i<num_verifiers; i++){\n          selected_addr[i] = v_addr[selected[i]];\n          }\n        return selected_addr;\n        }\n      }\n",
  "sourcePath": "/home/frag/Documents/fitchain/fitchain-contracts/contracts/vpc.sol",
  "compiler": {
    "name": "solc",
    "version": "0.4.24+commit.e67f0147.Emscripten.clang"
  },
  "schemaVersion": "2.0.1",
  "updatedAt": "2018-10-17T10:00:03.750Z"
}